:200000000C94AE0A0C94D90A0C94D90A0C94D90A0C94D90A0C94D90A0C94D90A0C94D90AF3
:200020000C94D90A0C94D90A0C94BE8F0C94378E0C94D90A0C94D90A0C94D90A0C94D90A5C
:200040000C94D90A0C948B6D0C94D90A0C94D90A0C94D90A0C94D90A0C946D760C94FA8CD0
:200060000C94D90A0C94D90A0C94D90A0C94D90A0C94D90A0C94D90A0C94D90A0C94D90A68
:200080000C94D90A0C94D90A0C94D90A0C94D90A0C94E7870C94D90A084AD73B3BCE016EE7
:2000A00084BCBFFDC12F3D6C74319ABD56833DDA3D00C77F11BED9E4BB4C3E916BAAAABE5D
:2000C000000000803F05A84CCDB2D44EB93836A9020C50B9918688083CA6AAAA2ABE00001B
:2000E00000803F6563686F3A0048617264636F6465642044656661756C74205365747469DC
:200100006E6773204C6F616465640053746F7265642073657474696E6773207265747269E6
:2001200065766564002044002049002020204D3330312050005049442073657474696E67A2
:20014000733A00205A0020590020204D323036205800486F6D65206F666673657420286D7D
:200160006D293A00204500205A0020580020420020540020204D323035205300416476616F
:200180006E636564207661726961626C65733A20533D4D696E206665656472617465202836
:2001A0006D6D2F73292C20543D4D696E2074726176656C20666565647261746520286D6D69
:2001C0002F73292C20423D6D696E696D756D207365676D656E742074696D6520286D73295A
:2001E0002C20583D6D6178696D756D205859206A65726B20286D6D2F73292C20205A3D6D26
:200200006178696D756D205A206A65726B20286D6D2F73292C2020453D6D6178696D756D2E
:200220002045206A65726B20286D6D2F73290020540020204D323034205300416363656CBE
:2002400065726174696F6E3A20533D616363656C65726174696F6E2C20543D7265747261DD
:20026000637420616363656C65726174696F6E00204500205A0020590020204D3230312005
:2002800058004D6178696D756D20416363656C65726174696F6E20286D6D2F7332293A00E5
:2002A000204500205A0020590020204D3230332058004D6178696D756D20666565647261E7
:2002C00074657320286D6D2F73293A00204500205A0020590020204D3932205800537465B7
:2002E00070732070657220756E69743A0053657474696E67732053746F7265640065636888
:200300006F3A004572726F723A005072696E7465722073746F707065642064756520746F8C
:20032000206572726F72732E2046697820746865206572726F7220616E6420757365204DB3
:2003400039393920746F20726573746172742E202854656D706572617475726520697320AA
:2003600072657365742E205365742069742061667465722072657374617274696E67290025
:200380005072696E7465722068616C7465642E206B696C6C28292063616C6C656421006F87
:2003A0006B00526573656E643A20002200556E6B6E6F776E20636F6D6D616E643A2022008A
:2003C0005072696E74657220706F776572696E67206F66662E2E2E005072696E7420656EC9
:2003E000646564005072696E742073746172746564003A20005A204F6666736574007A5F98
:200400006D61783A200020007A5F6D696E3A200020005A204F66667365740046696C616DBB
:20042000656E742064696120286D65617375726564206D6D293A0046696C616D656E7420DC
:2004400064696120286E6F6D696E616C206D6D293A007A5F6D696E3A2000795F6D61783A0C
:200460002000785F6D61783A2000205A3A0020593A0020436F756E7420583A200020453AE4
:2004800000205A3A0020593A00583A004649524D574152455F4E414D453A4D61726C696EE9
:2004A0002056313B20537072696E7465722F6772626C206D617368757020666F722067650C
:2004C0006E36204649524D574152455F55524C3A68747470733A2F2F6769746875622E6390
:2004E0006F6D2F4572696B5A616C6D2F4D61726C696E2F2050524F544F434F4C5F56455233
:2005000053494F4E3A312E30204D414348494E455F545950453A536F6C69646F6F646C65DB
:200520005F50726573732045585452554445525F434F554E543A3120555549443A30303048
:2005400030303030302D303030302D303030302D303030302D303030303030303030307067
:20056000384A9420F63A28606F7A52743A607277BA80BBC5BA80F7BACEE0D2C0BEC0ACC08C
:20058000FEC0E86FC1FAF0E05560272FF8E0463A0F206FE0FFEBEE543E206569EF6D796E3F
:2005A0002E202569607375633F20743A200020623F200045796E20637F6577667D637D6574
:2005C0007F747B3A20613E2001487F6D75205C2F5D207265776F7A65215A78C87F6D7520EA
:2005E0005D6F5D607665776F7A65205A302119FF78C05B43336059C3C4E0C9C36380ACC0EB
:20060000AA40B6603420A43F32206B6319206A633220190024201A001620130019204D00E5
:2006200059206B6319206E6324206E631F203B7A3B2053207B3A390039787B2035626564F8
:20064000137077696E7465723B73776F747065643B64776533746F206572776F77737E2047
:200660006E697A20776867206572776F7720636E6520777365206D393B3932746F2077655F
:2006800077746572762E32287E656D7067726574777267206F733372657367743E20776544
:2006A00076206D7432616674677232726F73766177746D6E6729286F6F204E6F746C6D6E2C
:2006C00065204E756D62677232776D746C60676867636F73756D3C204C617374354C6D6E2B
:2006E000673A35004E6F35436D65676B73756D2077697668326C6D6E6F206E756D626F727D
:20070000EEA0DD61F7F469CCFBEE6FFAE9E077686F636F73F56D34EDED736D617463686CE3
:20072000FACC7DF3F5605C696E653A20524C6D6E6F605E75FDE27F72F2E97360EE6F75E0F1
:20074000DEE17774F2CC6D6EFFA05EF5EDE277F2FFB1FDE0DFE17774F2CC6D6EF7BA72A098
:20076000DDB17DF0CCD35750F5B07FE0DBC45BF1F4B2ECD3D7D075F0FDA0DFC4DDB17EB0DC
:20078000B1A079D0FFE17EEEEFF253F5F7E677F2D2F975E5F7BA79A0A9C6FFE5F7A05FE5E7
:2007A000FFEFF3F9FAA0E3B0BFBA7FB0FAB17FE0F9A05EEFF7A0FFB3ACB2BBB1BC80CBEF91
:2007C000FFF07BECF7E47AE0A6D2DFC4B3A0FCA0D1F5FDE8FFF27AE0E3CEFF76E8B1BBA074
:2007E000BAB0FFB4B9B2ACCEFFF6B8B2BBB1BDB0BBBABAB0BEB1BA80A8CCF7F3F5A0D5F07F
:2008000065E17E65743A2000372E3F2E3C004F617A6C796E7F20536F77747F61FA65205259
:2008200075737574002057617C63F8647F6760527D737D74002042727F77FF207F757C60A2
:2008400052657B657C0020457F74F5727F61FEE052657B657C00506F7F657A557FE07F7431
:20086000EFF27C60E280ED6E79757D697F672022002200657F717D65796E7F2022007D6321
:20088000786F3E2020747F6F206C7F6E7F207D787E727D73796F7F2078727D767D6E7C6574
:2008A0007C0020637F6C7C207D787E727F73796F7F207872FDF67D6E7C657C0045303F205B
:2008C0001EDA3FE0E3D97F601CD83F2038CD53312F4D537221507DEE7BEA70E4FC64FB60F9
:2008E0003FE40F5C3F983CC4395F1E650F7139F43DF970FBE5B338C87CA770C173691CD86E
:20090000177524436F6525FE333A92E413313273372A326927653264132032E4333C12C871
:20092000193913EF133793F8933493E4133392713330326113702471932E3263372D3636D3
:20094000256B246B332B99208D0B9B959909322C2529122325482DFB362824F3126825EB82
:20096000324724E426465ADE364624D8254624D2266632CC132513C79B2593C2992592FD7B
:20098000244424F949444AF5254425F1244425ED254469E95A444AE54B434AE2694329DF17
:2009A0004A4449DB4B436BD829432DD5694229D34A834AD04AC354CD4B426ACB4A4369C80A
:2009C00052A252C6558252C44A0352C169422D7F4A42697D6D425A7B2D426A794A425277CA
:2009E0004A415276528252746B42527252415471528255EF52A254ED54814A6C5A42526A11
:200A00004B41A9E9AAA2AAE7AAA1ABE6AAA1A0E5AAA1AAE4AAA2AAE2AAA1A0E1AAA194E0F3
:200A2000A5A1A5FFAAA2A1FDAAA1A5FCAAA1A0FBAAA184FAAAA1A0F9AAA1AAF8AAA1A0F794
:200A4000AAA1AAF6AAA1AAF5AAA1A0F4AAA1AAF3AAA0B5F328A1A0F2AAA1AAF1AAA1AAF0E2
:200A6000AAA1AAEFAAA1AAEEAAA0AAEEAAA1AAEDAAA1AAECAAA1AAEBAAA0AAEBAA01AAEA0C
:200A8000AAA1AAE9AAA1AAE8AAA0AAE8AAA1AAE7AA01AAE6AAA0AAE6AAA1AAE5AAA0A9E51C
:200AA000AAA1AAE4AA01AAE3AAA0AAE3AAA1A1E2A8A0AAE2AAA1AAE1A940AAE1AB01AAE02C
:200AC000ABA1ABBFAAA0AABFAAA1A9BEAA40ABBEAAA1AABDAAA0AABDAAA1AA7C95A0A9BC3A
:200AE000AA80A9BCA941A9BBA500AABBAAA1AABAAAA0AABAAA01AAB9A540A5B9A541AAB819
:200B00000F00D9F85B4093F85B41D3F7594092775B41D376524092F6524092F6524196F590
:200B2000524096F556409675944196F45240D2F4564092F4534192F3A540B4B3964096B3A0
:200B4000944196B2524092F25B409BF25241D3715B4096F1524093F1524192705B409370F8
:200B6000494059F0DB41926F5B40926F5340D26F5B40926F5B41DBEE5B60D36E5B4092EEFE
:200B8000524194AD5340926D5340926D49405BED5B41D9EC4940D9EC5B40926C5B40DBECE2
:200BA0004941936B5940C96B5B40926B5940D3EB5B41D96A6340DB6A6760D96A5940D3EACA
:200BC0005941D9E9596093E95940D9694940D9695940D969DB61D9685940D9685960DB68B0
:200BE0005B40D9E85940D9685941CC674C40C9E74C60C9675940D9674840C86746616366DA
:200C00007FE01CA6380031263300312663007326380118257320312531003125330031252F
:200C200023003125210063252321332423206724230031246620662433003124662163230C
:200C400031001823630031233300382363002323310031233120332331213122662066225B
:200C6000330023226600632238003822310071226621662166206621230023216720302161
:200C8000318030A1670033213380312163210FE01C0038A038801C2018001CA030001C2077
:200CA000180018A03800302030801CA03801383F1800183F6720667F3100333F6720631F39
:200CC0000E00181F1C003C1F1E81389E3800381E1C801CDE0F001C1E0EC01CE4F5F47B50F4
:200CE000E7AE2CE2AA4077A2BB7035127AB16FA17EF93AA877E16BE75D6667615743673ED4
:200D00004BDD05E14DA7041ADD9184E93F9807F13DB183C03FFB1E653B911EF4FED40E80DD
:200D2000AF9D82E32EEE1DF52AE519B02BA039102FA11D8F2D64712B2DCB87E02E341DACB5
:200D4000A79F838DE7CD8180FFFC0F849FED1C971FFF0FB81EF238E63FE61EA01FBC38644E
:200D60001EB21FB21DA83C0A9FA00FEA1C991FF197B10FC0178B1EB597840FB117FE1EB37D
:200D800095791CFA157330E715EF1ED8156A38EE17E6388817631E25D35E0FE7125B07ECF0
:200DA000F257FF15F2D4FFE1F151FF70F1CFFF61D3CB83F613491C8D93C783C613C40F02B8
:200DC000D1C281E00F400F808FBE07C20FBC07E6CFBB07EB8FF80F938FF783DC0F350F276F
:200DE0008FB487F31F320FE18FB10F900FB007E0CFAE07F28FAD80E5CFEC07F98FAB01AEB5
:200E00000C6980C5EFA987DC8FA780B58FA7838E8FA68FE88BA49FE48BA4BFE08BA3BFFD55
:200E20009BA39FDA8BA18FB98BE1CF988BA09FF8BA9F9FF99A9EB8FBBA9EBCDDBA9DB8C056
:200E40009A9D3CE39A9C87C78A9B87AC8A9B80918A9A83F7899ABFFD899980E49999BFEB4B
:200E600099998FD28997BCFB9998BEE3B9979FCC8996BFB689968FA099968F8A999578F5B6
:200E8000BB95FCE0B9943CECB994BCF8B9949FE499948FD088939FFD889280EB889380D8A5
:200EA000889281C6889280B4889180A38891879299918F819991F8F09F908FE0BF909FF04D
:200EC0009F90BEE08F909FF08F8F87E19F9080D1878E9FC3878F8FF48F8F80E5878E81D791
:200EE000878E80C98F8E9FBB878D8FAE878E87A0878D8193878D8086878D83F99F8C9FED07
:200F0000164D63E08F0CF0F4FF6C9FE88F8C83FCFFAC81F0878C81E4878B80D987EC87CD5A
:200F2000878B80C287AB80F787EB81EC878B80E187EAFCF7FF8B80CC87EA80C2878A80B82C
:200F4000878A80AE678A83E4878A809ABFEA81F087A987E7FF8A80FD85899FF4858981EBF6
:200F6000658983E2858980F9858980F0FD8980E7858980FE8DE980F5858880ED85A880E5A9
:200F8000858983DC858881D485E881CC85E880C4858880FC858880F4858880EC858780E523
:200FA000858880FDBDE780D6FD888FCE858781C785E780C0858880B8BD878FF1858781EA4B
:200FC000858781E38DE781FC8DA683B685A787EFBDE78FE8FDE683E29DE787FB84A681F599
:200FE00084E781EE84E683E884E680E284A78FFB848680F5E4E680EF848687E984E68FE3B3
:20100000462626FD172633F71F2619F1372519EC1F2619E68F06CCE0C52599FB8F0613F58A
:20102000376511F0172626EA376513E51F2513E03726197A8F6513751F6588701705CC6BC0
:201040001F258C66C585CE6185058C7C8F258C77372519723725336D1F2519686F651963A0
:201060002765227E6764323A376533751F05C6308F04C6ACC585C627172419231F25125E48
:201080004F84645A6E443236276532516744324D374432491F2599241764322037248CFCC5
:2010A0001B2413F81B6432F41B2422F01B2432EC1B2419E81B2499E4136464E0332413DC96
:2010C000336432D81B24C6D41B2419D08B0488CC8F0413C8132332C5336312656368EFFA2F
:2010E00033607B7A2660793A3360787AD2E56FE47774EFF0FFA0EBE97F3ABC20777276EF80
:2011000077BA92F4EFED716573E17775736579686761776567606365656077776F746368D9
:201120006564386F66663E607D617874776D7C6077726F6767657665676039E1657A396587
:201140007A7476756565762077776B7463686564386F66663E607D697E74776D7C60777263
:201160006F6767657665676079C07B60777877727764E572387377E977636F65E5206F667A
:20118000666E396D73F87F657D707BF4776967676772676439616D746EE5766D636CB8722E
:2011A000776E637763793C2077797774676D3973776F7470676439207E65677467727F6970
:2011C00077FA79C0FBED79E9EE76636C6F6439657F747675676573206E756D626772396115
:2011E00049F06DAC49D06D6749F04BE24DC06D9DD3F06D5869506F53D3F0674E4960336973
:2012000053D0A3A4ABC097FF92A097FADAE05BF5DAA053F0DBD04BEB9BA04EE6DBF0DEE1FF
:201220009BE0CFDCDAE0DFD79BC05FD2DBE04ECDDBD04EC8DAA04FC3DBB0DCBE92F04CB9BD
:2012400092C0DDB492B04FAFCBB04FAACBD0DDA59B80DEA092F0DF9BDBC0D9B6DAF05BB145
:2012600092A0DEACD2C0DFA7D2B05F82DAB059FDDAD05BF8DBA0DEF39BE07BEEC9B07BE94D
:201280009BF07FE4DAE07FFFDAB0FDFADAE0FF759B907E70C9A0F16B92907366CBE0F3E121
:2012A000DBB0B7BC92B0F77792F0F8B292A0796DDAB07BA8CBA07B639AE0FCDE9290FDD9FA
:2012C00092B0FD5492B0FECFDAF07ECADBC0FEC592A0BF4092F0EFE4F9E17774EFF4F76E69
:2012E000E7E0E669EEE9F368E7E479E0FCF5F7E0F7E8E760EDE1F374B9EB706CBBEB6F606A
:2013000075EEEEA0EFE4B4E3EFEEF3F4EDEEF6F3B2E6F3EFEDA0EDE2EFF6E7A0EDEEF6EFE8
:20132000BBE3EFEEE6E9E7F5F3E1F7E9EFEEFE6892F0EDE4B2E1F7F4EFF4F7EEEFA0EEE199
:20134000EFECE7E4B3A0F7E9EDE56FF5F780F2E0BB80EF6BF3F4FBC0EFEBFBE2BB80F9E92A
:20136000E6A0E5F5F7EF76F5EEE57BE6E7E9ECE5E7A1F2F4EFEDF1E5F3E1F7F5F3E5F2F449
:20138000EFEFB2E8EFE7EEC0B2EBE7BAB2A0B2EBEFBAF280B2EBF3BAB2A0F2E3ECE1F3F3E5
:2013A000EFE3F2F0EDE4B280B2F4F7FAB3A0F2EBF7BAF280B2EDEDF8BBA0D2A0EDE9EEBABD
:2013C000B2A0F2E4BBA0D2A0EFE9E5F3FBA0DAAA94A0D28A92A07B7AB2A0B2F9BBA0DAA0C0
:2013E000F8BAF2A0A5A997A996A99DA999A9B2A9E5A9A5A9A5ACA7ACA1A683A6AEA69DA672
:20140000942675266A66D5666A6CD56C5563576356635D635A6334636863D2634B602B60E0
:2014200056605D605A6075606960CA603A6C346C4B6F2B6F2E6F2D6F5A6F756F6D6FD26F1A
:201440007EFE7EFD7EFBFEF77EEF7FDF7EFF7E7F2A412A40D6545B40534055D65E632A039C
:201460002A40D93426212B292EDD3E584B432D44F7345E430B494E4F5F4C4A41D3422BC0C7
:201480007641CB763B412A424B404260DA36CB244A41434243415D426B40534155C07749F9
:2014A000464055415742554057645550554576414A4146642B4607644E4055472FC22B4892
:2014C00055605D444B40574A554055475743576055405745D6426A405544574956582B748F
:2014E0004A6542652A6E2A7352794A6442754269556E556F404054565775557355625560D5
:201500007053A4E549724B695261526C4A205A2C4B315232523356740B3552A05A696E6697
:201520006D6E6D747B6E6B6EDDCCDD7D5FD7777C5FF7DB3877CC7F72DFD5E6645FF16F4A5D
:20154000554075615540DD6255601D6675FCFE6CDF5B5E7AFEC5DD747EC75ED35B641FFEC1
:20156000DFEFD9E2DEFFDDFF3BE0F2E0F5E0E6EDF1E34BE02FFF2BC057D05DD2FE77F54775
:20158000DBF75BFE5CE0FEE7F3E02BC05DD2FC79F547E5F73FE1CCE5DFE12EC033D7FE21DD
:2015A0004ED4F7D8DC75D947DDF75ED47DD05DD4EDD85DD45540F4E0F6E0E3EEFBE02DD463
:2015C000F7D8ED417B416B5573455BF0FB41DBC3D0C3F9D0CF2DD9E02ED4F6D8CD6BDDF7C8
:2015E000FFE2FF3633F4FBD0EE24E3D42FC03FE2F3565DF4FBD0EE24DE4155705A60DC41D8
:20160000FFE175E16BE07AE05E946F0DAD6B55F59E415E7F5F6FCD416AE277E167E079E043
:201620004E946F4D9D6B5BF49E414D7F5F6FB354B7445BF0F7415B8355A3E2FC4EC073E0A2
:2016400099E092E85EC072E099E090E86FEF2CC1CC416FE277E167E079E04E946F4D9D6BEF
:201660006DF4B754B5447DF473E099E09AEC6FE7F7C03396F741D983C983F6CF9D649B64C7
:2016800069E079E06DE073E0EF6DEB73EF70B2F5F7E0EF2A8E6D99E09C417C707470E3FE56
:2016A0004EC0736B79F52C94955CBB5C7FC0736B5BF06D9495489948DB41CF415BE09D4F8E
:2016C0009B5FBF5FBB9F5BB5DBF76C4F7B5F6F5F7B5F6E4F7F1F6E5F775F6E4F795D695D22
:2016E000735D6D797DE97B477DE967477DE173476CF09EE0EC6A4EC0EE7F77F4EBFC79C0AA
:20170000DCE0E96AF9B0CACFE7335BF0E7B1ADF57DB17D725BF4E2E1EE6A57C07F725BF0FF
:2017200095E099E057C07DB197E09AE0E36FE673EF705AF0CC5BDB4B5CC075E076E0FDE040
:2017400072787F477CF4CD419D4F9B5F9D4FBB5F7D4F795F374F775F7E4FBB5DED91E273B7
:20176000EF706DF3E6FE2BC0749575957F6F974E9B5ECE6CDD64E5FED7C0B554B5A475F040
:2017800075B7F741DBA3CAA3CF41BB415EB45FB57B419D41F3E0CF62DD6477E0C756DB4456
:2017A00075F45FFB59955FF959957F416C41CC41B74175E076E069E079E04E946F949D638E
:2017C0005DF46FC09FFE6DC07DE3EB6E77E1F76E999495B49B089B94CAE2DAE055E05AE02C
:2017E0005BC0BEE5ED6E9FE1FB6EF6CFF74177B177916F917EB1D641B7415E94EF977B4148
:20180000FE61AE5ABDCAAE96FD86ADF7FFF5EFF59FFFBFEFA7B0B585BDF0DCEFDFEFED2E59
:20182000F9BEF3EFC781FEA1FCA1CFA1CEADCC8FCFADCC9FCFBFF9F0C6A1F721B2E03AE0BC
:20184000E5E07AE02ED47FD4DDA33BF4D7E2DAE0DAD3DFACCBF3DEACFE2DDF2DCAAF752F1E
:20186000B7AFBBAFECAFFEAFFBA1EFA1CDF7DEF7EDE05ED4DBD8BFD27FD27FD26FD27FD214
:20188000DFD2DFD2FFD2FFD2DFD2DFD2EFD2FFD2AFD33FD3CFD3DFD3DD213F21EF21F535D0
:2018A0007DA53DF0FB21DBC3D2C3BAF7FDF0CE2192F7EBD7BCF032E0BAE065E07AE0F6C005
:2018C000F9A1F1D0CFA1CFADDAE04ED4F6D8DD2BF9F7FDE2FF16BBF4F9A1F5D0DFA17F24FA
:2018E000FBD4A7E0FBE2FF36BDF4F961F5D0CFA1FFA4B2D7BDF0C231DBA5E3F4F2E3FF56F3
:20190000FDF4FA41A6A1AA7755F0EA75FFF4F9A1FBA0DF5FDF4FF7E0FFAACAE1FAE027E0EF
:20192000BAB7BBF4CBE3FD96E9F437E0EDB0DBA5BBF1CDB0FBA5B6F4D7B0F9A5BBF5AEE05F
:20194000EFB0F985EFF0EAB1FB85F9F4D1ACF9ACEBACFAE0FBAEBCE0CBACF9ACEBACF2E422
:20196000FBAEB3E0DFE0DAE0FCECDF2EFCECDF6EFCECEF6EFCE0FF6E5FC0DDE0DAE0C32C75
:20198000FBACEBACEAE1FE2EAFE0DEA1E6A73FFDE5F5FEAFF5E0F5E0C9E0D9E8AED4FFF827
:2019A000CD81FBA1FE81FDA1B2E03AE0E4E0D4E0F5E0BEA1CEA4F7FCDAF4FDACF5EDF72EE5
:2019C000FA8CE9E0EBB5F5F4CFADCBF4CFB13DF4DBECF9AEA7E0CFADCBF6CFB1F9F5CDEAEC
:2019E000FAAEFA8CCFADD9E0CE97FDA797F57F3FEBF0D396FB86EE86F5C6BAF0EFC1BFC163
:201A0000A401D7412FD45FD8DF41EEC16B4DFBDD775DDDDD6970F5E07F47F5E0EF47F1E88A
:201A2000FF47D5F475E093C07FEFF981F3D0DFC1D7CFB3547B44C9F06663BBF053709DC0EB
:201A4000F14195C359C3DAE0FDFE9FC052509560F1419DC359C397E077FF9BC0F9FC97C0F3
:201A60007FEFBFEFEFEFFFE7A6C0B2E07AE0E5E07AE8D7E2DAE09AD3DF4CD4D3DE4C9FC0D2
:201A800079FE9EC07AD552D5BAD5BBD5FF6FEFEF7F6F9EC0FFFFBFC0D7E2D9E0D9D3DF8C3E
:201AA000D2D3DF4CBFEFBFEFEFEFFFE7F981DF81DFD1DFD15FD19FD1FF90EFD0DFD0DFD0B0
:201AC000FF90FFD0DFD0DFD07FD0FFD07FD07FD07FD09ED5FB81DD816570F960DEF0DFD146
:201AE000D7749DF0DF759EF4D45EF7D175749DF06F754EF4617ED75B7551F5F3DB4B9ED53A
:201B0000B81BFDEFFB4155D15563EBF0FF41FD415FD155575351E9F77DF4DFC14DD0D960CC
:201B20007FF0EDD16455F751DFF3FB817751EFCFD7E0D9E05BD79AD5FC41D3D1D757BBF0D8
:201B4000DE63DDF7DD67DAD57BD7FF415AD5FB81DD41DFD159D0D2595950DDF3DD4B4BF53D
:201B6000FB41FD415750FDC07AF0DFD15BD0D9595DF4DB60FBF7DE5BDD4BDAD5FEE0F0E0D4
:201B8000E6ECFDE09ED4FFD85FC95EC9DEE0DEC35EC3DBC3DFEFDFE7DEC3DFC3DE41EF5E9D
:201BA0007F6FDE4149D6FFC978CDFD415FD4EB4D7FC1BAC54A4F9F5FF8419DC27ED6EEE033
:201BC0005ED4DFD8FFE0F2E0E8EEFDE05ED4FBD87D41FB417F41FC8157C297C2D3C1D7FDA2
:201BE0005BE07FEFFFEFD6C1DFE0DF6E5E419AD47B5CFBDCF341EBC1F341EBFDD5D1BBFF94
:201C000081912F21BB234BF4BBE1A5727DF4EBFDA5B16BFFA7B16F41A5326BF4BDE0BB41A2
:201C20004FB4F74FEFEFBD6FFFA4EEE4BDE4FFE1FF95F9F0BFB2FDF0BD726AF4B472DDF000
:201C4000BF72BDF49EE0BDF27FF0BD73FFF4F5E0FFE05FE0F5AAAFE0F9AA6EE0B9E0F9AA95
:201C6000BFE0EAE1FEAABBE0F7FCBDE0ABEFAC53AB7074F4F6FE97E0BDBCBD6C5564BD4E3A
:201C800055E0EABCE96C9DA4EA4EF5E2FFAA9EE0BE72BDF4F6FCFFE1F6E4F5EA97E0BDB647
:201CA0005DF4F9E8F5AA92E0BD765BF4F381EBFDB5B1B3FF99B1BF81BDE39BF0B8EFADEFF3
:201CC000AF54AF709DF0ADD2AF70FAF4F7E0F9E0B64EBF5EDFE3FDA39FE0B7F6BBF0BBB74D
:201CE0007BF0BBB59FF0FEE0BAE0F581ADA1ABA3E7E0F9E0B68EB7BEE5C193E0BDE097E06A
:201D0000FD01E380F5A0F7FC4FE07FEFFFEF92E07B6D74E0F2E056E0AD2EBD7EEF614FB430
:201D2000EF6FAE215FE7F5E255E0F541E9A0FDA0F7FC93E0FFEFFFEF92E07FEDF4E0F6E0FE
:201D4000FDE0B64EBFDEEF414FB4BF4FAE4154E8F56AF7FE9FE0DEE0A4E2BDE0BB81CFB426
:201D6000FF4FEBB4AEADBDE09A375D47BCF39FE0F7C1F7FCAFB1F7FEA9B17F41B4E0BB81F1
:201D80004FB4FF4FE990EBB49350D44093959D85F9F7EBE0BEB695F0BD76FDF5F7FE9AE051
:201DA000F5C16BA17BA152A157A1A5E0BDE09AE0F541A6A1B5A1BF4175677FFDF4B5FF6F7C
:201DC000A6E0B9E0BCCEBB5EBFE6F9E2FFFF9BE075B552B57BB569B57FEF7F4F7FEFE9E84E
:201DE000FE6AEA61BB81B3C16AE0BAE09FB49350FD6EFB58F6E0BFF76BF4DFED5FFEBFE0F5
:201E0000F7E0BFE0BFAD7D7FFFB677F0BDF769F4BDB54BF0ADC05FC0B9F77BF0BD774BF0F4
:201E2000AEC05FE07EE07AE0CFC05C615FFD5F607BE17AE0CDC05FFDDFE072E17BE05FFF6C
:201E40005CC0F54174A175A1AFA1BBA155E059E0CEC0F541A4A1BDA1BCA1A4E0BDE057E0CF
:201E600059E0AE4EBFDEAB614EB45B50DDEED758AFE7F96EF362F6FE1FC05EEFF562D954E7
:201E8000FAF4F4FE17C0F3FC4FE0DFEEF8E24AC05D6D53C07DEDF4FE1FC0FE01EDCDF37D7B
:201EA000A4A1A4737DF49BEEF9625AC05F5FF3FE4DC05BC0AFEDA7784BF05F5F5FEDF3FC91
:201EC0003EC0F2FE0FC03E1559F09D6CCFC0BD6CBE4C995A5E6D17C08AE29AE0B3415EB45D
:201EE000D7CF7F5FDED5D4F34FC05E55DDF4E55A49C0EE24CFFF1FC0A9E3BDE0B3415EB41B
:201F0000F58F8EFF9FE087FD8FE0C9E7D3E0BFE0DBE5D6E04BC0A46FA7F8BDF0C9FF4EC086
:201F2000BBE249C0A4E2F7FC8DE2B9E0BBA14FB4D7EF4FC0A6E3BDE0BBE14FB4D7CFBBB46C
:201F4000DDF4D4F3DBB4F341ED4DF35DA9A1B9E0B3415EB4D74FDD60ADF757C0A4E2B9E076
:201F6000BBE14FB4D7EFEBB4EEE0D5F757CEF34177A177A1DFC17FB6E3E15EB4DFB8FC41BB
:201F80004DB0755074C04950DDF7A9F5BDB5AE6FBFFF4AB5FC41755074C049B04970DDF738
:201FA0008BB5B9B5AEEFBF5F4AB54FB37FB3DFB3DF93AE41EBC1AFA1A9FF5FC0A7FF5FC00A
:201FC000AFA17F81AEA1BDA1FCF77F4777F4E8A1F9A159B3F9A3E8A3CFC0EAA5F9A5A96FB6
:201FE0004BB5AF6B7BF48EA1BFA15BB6BFA38EA34AC04FEF1FEFCD41DF91CF915FB15FB1D1
:20200000CEB5FE01AA27683051F1E03181F1F9947F93FF7F7FDF7F4F9FCF9F4FAF4FBDE0D0
:20202000BFF0BDE03EF07FEFFC9F89FF9EFFA1FDF9EFFD9F8AFF91FDA3FDFAEFF99D8FFD14
:20204000917DA3FDE3F009F4F994BF912AE0279F71247F79FF5DFF93FFF6FFC1F895C7EFE2
:20206000C7F0C05DC193BFE00FF0F9F7FFEF4F2F4FF04EDDCAB31FF049DD3DFD4FD2C19373
:20208000FEF0ABF7FAEFBDE0AF9597959F957F95FF95BE95FBF70F97F9E5FD0588959F0156
:2020A000AFC10AEEE794D795C7953F95E795BE95F9F77ACFFFFF84FF95DFA3FDF895FF93E5
:2020C000FF93FF92FFB7FFB7FD217B83AC81B98112962F913E919397BFE1FFDFFFCF47E01A
:2020E000D3E0FD0189950F90FF91FF9108950F93FF93FF93FF93FFB7FFB77F97EFB6FC94A6
:20210000DFBF0FBECFBF809107C190910701A09106E1B79103018F879F8BA98BBE8BFE8124
:202120003F96C4E6D1E08181FD99FFEFFFBAD2BDC1BD80BD0FB6FD94FE9AFD9AFFBECFDFF6
:202140005F4F4836510571F0FF96FFEFFEEBFDE09F81FD99FFEF9FBAD2BDC1BD80BDFFB657
:20216000FD94FE9AFD9AFFBECFDFDFCFC877D1E511F0FF96FFCFFFEAFDE09E81FD99FFEFC4
:20218000FFBAD2BD41BD80BD1FB6FC94FE9AFD9A0FBE4F5F5F4F48F851E573F03396FFCF8F
:2021A000FFECFDE08081FD99FFEF1FBA52BD47BD8FBDFFB6FD94FE9AFD9AFFBECFDFDF4F8C
:2021C000C839510511F0FF96FFEFF0EEFDE08F81FD99FEEFDFBAD2BDC1BD80BDFFB6FC94AE
:2021E000FE9AFD9AFFBECFDFDFCFCF39D1E5F1F03196FFEFF4EEFDE08381FD99FFEF1FBA23
:20220000FEBD41BD80BD1FB6FCB4FEBAFDBA0FBE4F5F5F4F403A510511F037B6FFEFFFED13
:20222000FDE0F8A1FDF9FFEF1FFA52FD41BDFFBD0FB6FCB4FEFAFDFA0FFE4F5F5F4F443AD7
:20224000510511F03FB6FFEFF4EFFDE0F0A1FDF9FFEF7FFA56FD4FFDE0FD7FF6FFF4FEFABA
:20226000FFFA3FFE4F5F5F4F483A510511F03FB6FFEFF9EAFDE0F0A1FDF9FFEF1FFA52FD73
:2022800043FDFEBD0FF6FDF4FEFAFDFA0FFE4F5F5F4F4F3A530511F03DF6FFEFF9EEFDE02E
:2022A000F0A1FDF9FFEF3FFA52FD47FDFEBD0FF6FFF4FEFAFDFA0FFE4F5F5F4F403B510501
:2022C00011F03FF6FFEFFFEEFDE0E0A1FDF9FFEF1FFA52FD47BDF0BD0FF6FDF4FEFAFDFAAD
:2022E0000FFE4F5F5F4F443B510511F03FF6FFEFF0EFFDE0E0A1FDF9FFEF1FFA52FD43BDF3
:20230000B3BD1FB6FC94FEBAFDBA0FBE4F5F5F4F483B510511F037B6FFEFF4E9FBE0FF8163
:20232000FDB9FFEF1FFA52BD41BDFFBD7FB6FCF4FEFAFDFA0FBE4F5F5F4F443C510511F003
:202340003F96FFEFFCEBF0E0FEA3B9A3FFE4F0E0BEA3FBA32FEF3FE03FE32FE3FFEFF0E025
:20236000FEE7FFE3BCE6F0E0FEA7B9873EA72BA7FF0137B6BF81FDB9FFEF1FFA52BD41BD91
:20238000FFBD0FF6FCF4FEFAFDBA0FBE4F5F5F4F473C51057DF7FF013F969E81FDF9FFEF8F
:2023A0001FFA52BD41BDFFBD0FF6FCB4FE9AFDBA0FFE4F5F5F4F483C510511F03FF6FFEFD0
:2023C000FF0135968081FDB9FFEF1FBA52BD41BDFFBD0FB6FCB4FEFAFDFA0FFE4F5F5F4F1E
:2023E0004A3C510511F03FF6FFEFFF013796BF81FDF9FFEF1FBA52BD41BDBFBD0FF6FCB4D5
:20240000FBFAFFBA0FBE4F5F5F4F4F3C510511F03F96FFEFFF013F968081FD99FFEF7FBAAD
:2024200052BD41BD80BD0FB6FC94FE9AFD9A0FBE4F5F5F4F4F3C510511F03F96FFEFFF0100
:202440003F968081FD99FFEF1FBA52BD41BD80BD0FB6FC94FE9AFD9A0FBE4F5F5F4F403DD5
:20246000510511F03F96FFEFFFEAFBE08081FD99FFEF1FBA52BD41BD80BD0FB6FC94FE9AE9
:20248000FD9A0FBE4F5F5F4F443D510511F03F96FFEFFFECFAE08F81FD99FFEF7FBA52BD40
:2024A00041BD80BD0FB6FC94FE9AFD9A0FBE4F5F5F4F483D510511F03F96FFEFF2EDFAE0DC
:2024C0008381FD99FFEF3FBA52BD41BD80BD0FB6FC94FE9AFD9A0FBE4F5F5F4F4F3D5105A2
:2024E00011F03F96FFEFF7EDFAE09E81FD99FEEF3FBA52BD41BD80BD0FB6FC94FE9AFD9AF1
:202500003FBE4FDF5F4F433E516577F03796FFCF80E290E09F878D87FF013F968081FD9931
:20252000FFEF1FBA52BD41BD80BD0FB6FC94FE9AFD9A0FBE413E510521F0379641EE50E027
:20254000FFEF8091040190910521A0910601B791E7218B8B9F8BAF8BBF8BFF017F9684E665
:2025600090E02081FD99FFEF1FBA92BD81BD20BD0FB6FC94FE9AFD9A0FBE873691051BF0D4
:2025800001963796FFEFF3EEF8E07C918F0108C08AE89EE00F945F100F5F1F4FFC016C91F3
:2025A0006F23BFF7FFEEFAE07C918F0108C08AE89EE00F945F100F5F1F4FFC016C917F232D
:2025C000BFF78AE89EE07AE00F945F106F960FB6FC94FFBF0FBEFFBFFF91FF911F910F91D6
:2025E00008950F931F93FF93FF93CFB7FFB7F0970FB6FC94FFBF0FBEFFBFFF011196F9E1E4
:20260000F7E0FCE101F04DF2FF50F1F7FFE1D1F6F1E0FBE0C0E1FFF00DF2FFD0F1F7FFE126
:20262000F1F6F1EFFEE0C0E1F9F0FDF2C150F1F7C9E1FEE1EBE1FEE1C0F3FEE5F0F3FFE5F2
:20264000E0F3FFE5FEF3FFE5F9E9FEE9EBE9FEE9E0F3EFE5F0F3EFE5E0F3EFE5FFF3EFE59F
:20266000E9E1DEE1EBE1FEE1C0F3EFE5F0F3EFE5E0F3EFE5FEF3EFE5EFE1FFE1EFE1FCE51B
:20268000C0F3E0E5F0F3E1E5E0F3E2E5FFF3E3E5EFE9FFE9EFC9FCEDE0F3FCE5F0F3FFE5E9
:2026A000E0F3FEE5FFF3FFE5CFE1DFE1EFE1FCE5C3F3F1E5F0F3F1E5E0F3F2E5FEF3F3E5B5
:2026C000E9E5DEE5EBE5FEC5E0F3E4E5F0F3E5E5E0F3E7E5FFF3E7E5C9EDDEEDEBEDFEEDEC
:2026E000C0F3FCE5F0F3FDE5E3F3FFE5FCF3FFE5E9E5DEE5EBE5FEE5C0F3F4E5F0F3F5E567
:20270000B993F705F0B3F7E5BDA5FFE5EFE5FCE9F893F8E5F0F3E9E5E0F3EAE5FFF3EBE576
:20272000FFEDFFEDEFEDFCE1FFF3FCE5F0F3FDE5E0F3FEE5FFF3FFE5FFE5FFE5EFE5FCE963
:20274000F0F3FFE5F0F3FFE5E0F3FEE5FFF3FFE5FFF4F7C5FFE0F0E8EBE3FDE4C0F3F0E5C2
:20276000F0F3F1E5E0F3F2E5FFF3F3E5C0F3F445F0F3F5E5E0F3F7E5FFF3F7E560E0FFE0E7
:20278000C0E0D0E060F3FEE57FF3FFE540F3FFE550F3FFE5C0E2DFE4E3E0FCE0C0F3E8E59B
:2027A000B0F3E9E5E0F3EAE5FFF3EBE5E0F3FCE57FF3FDE5C0F3FFE550F3FFE5F0E0F0E0DE
:2027C000E3EAF9E4CFF3F8E5F0F3F9E5E0F3FAE5FFF3FBE5FFECDEECEFECFFE3C0F3FFE562
:2027E000F0F3FFE5E3F3FFE5FCF3FFE5C0E0F0E0E0EAFCE4C0F3F9E5F0F3F9E5E0F3FAE567
:20280000F6F3FF8539F3BDC3F1B3BDC3DCF3BF63D7F3BFE3EFB3B883F0B399234EB3BA63C4
:20282000D1B39B63EEF3B4C370B3B563DEB39623D3B397639DEC9FECAFE4B6E483B3AF0390
:20284000B3B3B223A1B3B1E3B0B3B22387E091E0A0E5B7E48FB3CF6291B3CF22A1B3D02237
:20286000B0B3D162E3E37FE383E39FE30F94A4756C93D2027F93D3028093F402B3F3D502B6
:2028800060E07FE088E792E40F94B2756093D7027F93D7028FB3D9E2B3B3DB021F947D744F
:2028A00083E090E0A0E8BFE38093DE02B3B3DF02A093DF62B0B3DF22FFEEF8E06C918F01B7
:2028C000FBC08AE89FE00F945F100F5F1F4FFC0164916623B7F7F9EEF8E064919F0119C008
:2028E0008AE89FE01F945F103F5F1F4FFF216491E6E3B7F78AE89FE06AE00F945F10FF964B
:20290000AFF6FFF4DFBF9FBECDBFCFB1DF917FB1CFB1CFF5CFB3DF93DB617D9071E0F9F7B6
:2029200033B7A67BB7EBFDE1F881FD8172A0FFA1FEADADE1CBB5DF91CF917BB5EFB37FB3D6
:20294000CF93DF93FBEE11E0FC616491F8213FC09AE89FE08EB4DF702796FF0164B1662372
:20296000BFF7FFEDFAE064B1FF2137C09AE89FE07FB45F106396FF0164916E23BDF78AE867
:202980009EE07AE00FB45F70FC2164B1C3EED0E03FC08AE89FE03F945F3027B6FF01649116
:2029A000E6E3BFF74091BE255091BF056091BF05FF91BF0585ED92E01F945BE34FB1C0E5BC
:2029C000D7B1C1E5E0B1C2C57EB1C3258EED92E07F9448E3CFB1C4E5D1B1CD65E0F1C625D6
:2029E000FFB1C7658FEC92E01FB458234791C825D1B1C9256091CA25FF91CB258CEC92E041
:202A00009EB47EE38FE89CE06BE07FE07E948A348AE89FE06AE01F945FF0FF216491FFEE57
:202A2000F0E007E08AE89FE03F945F102396FF6164916623BFF7F2EBFAE07C91FF0107E0B4
:202A4000BAE8BFE00FB45F106796FF0164916623BFF7BAE8FFE07AE00F945F10FCE1649113
:202A6000FFEEF0E00FC08AE8BFE00F945F702796FF01649166E3BFF74091AF255091AD253E
:202A80006091AF057F91AF0589EA92E01F9448234791B2255191B1056091B2257F91B325D3
:202AA00086EA92E00F9448234F91B4055091B5056091B705FF91B70583EA92E01F944823FC
:202AC000CF91BF255391BF256091BE057F91BF2587EA92E00F9448238AE8BFE068E07FE099
:202AE0000F948A348AE8BFE06AE00F945F10FC016491FFEEF0E007E08AE89FE00F945F106F
:202B0000B7B6FF6165916663BFF7FEE8FEE06491FFE177C08AE89FE0FF945F706D96FF212D
:202B200065916623BFF78AE89FE06AE00F945F10FC616491FBEEF0E07FC08AE8BFE00F9415
:202B40005F102796FF01649166E3BFF74191DC25D391FD05E091DF25FF91FF2589E792E011
:202B60006E94797AF3B1D665FC91D7256091F2257691F30586E7B2E07F94191A4391F425BF
:202B8000D191F505E091F605FF91F72583E792E00F94193A4E91F9255391D925E091FA2580
:202BA0007E91FB0583E792E01F94393A8AE89FE068E07FE00F948A148AE89FE07AE00F943D
:202BC0005F10FC01E491FFEEF0E007E08AE8BFE07F945F10E796FF016C916623BFF7FBE346
:202BE000FAE07C91FF0107E08AE89FE00F945F10E796FF0164916623BFF7BAE8BFE06AE0C8
:202C00002EF47F30FC0164B1C3EED0E007C08AE8BFE03EF45F303DF6FF0165F16623BFF70F
:202C200047B1FE2557F1FF0560B1FE057FB1FF058EE392E04F9449235EB1FC0553B1FD059D
:202C400060B1FE057EB1FF05BFE292E03EB45923BAE89FE068E0FFE00F948A148AE89FE032
:202C60006AE00F945F10FC016491CBEED0E007C08AE89FE00F945F102FB6FF0164B1662350
:202C8000BFF7FFE7F9E0FC91FF0107C08AE89FE00F945F102396FFC164916723BFF78AE848
:202CA0009FE06AE04F945F10FC0164B1C3EED0E007C08AE89FE0FF945F102196FF016C9118
:202CC0006623BFF741B1DF055091DF056091DFC57FB1DF0587E791E00F9448234791FC852B
:202CE0005091FD056091FF457F91FF058FE791E00FB47F235CB1A8055191A9056091AA0572
:202D0000F2F1EB65FDE6B7E03EF4595A73F1E90557F1F90560F1FA0570F1FB05BAE6B7E0A1
:202D20000EB45B235CF1EC2557B1FD0560F1FF057EB1FF059FE691E00FB448234EB1FF053C
:202D400053B1FB0560B1FA057FB1FB058DE6B3E01FB45B23BAE89FE068E07FE00FB48A14AF
:202D60009AE89FE06AE0EF945F10FC016491C3EED0E00FC08AE89FE00FB45F102FF6FF01AC
:202D80006C916E23BFF7FAE5F9E07C91FFE1C7C08AE89FE0EF94DF502F96FF0164B16623BD
:202DA000BFF78AE89FE0EAE00F945F10FC0164B1C3EED0E007C08AE89FE00F945F5023B63A
:202DC000FF016CB16623BFF747B1950357B1956361B1B66374B1970389E491E00F944B232E
:202DE0004EF1982351B1990360919A037F919B039EE491E04FB449234FB19F0357F1BF03F1
:202E0000E9919E0370B1FF43B3E4F3E04FF4D8A3FAE8FFE0E8E0FFE0FFF4FAF4FAE8FFE002
:202E20006AE0FFF45FF0FCE1E4F1EFEEF0E0FFE0FAE8DEE0FFF4DFF021F6FFE1FCF1EFE3B0
:202E4000FFF7F5E3F9E0FCF1FFE1F7E0FAE8DFE0FFF4DFF0E1F6FFE1ECF1E6E3FFF7CAE8BF
:202E6000DEE0EAE0FFF4DFF0FCE1ECF1E3EEF0E0FFE0CAE8DEE0FFF4DFF0E1F6FFE1ECF108
:202E80007FE3FFF7C0F1EFE2D0F1EFE2FFF1F0E27FF1F1E2FBE2D1E0FFF4C8E3FFF1F2E2D1
:202EA000FFF1F3E2DF91FCC2F0F1F5C20EF4EBF5EBE1FEE1F8E2D1E0CFF4C8E3EFF1F7E248
:202EC000FFF1F782C0F1FFE2F0F1FFE2FFF4FDF5EBE1FEE1C5E2D1E08FF4C8E3FAE8DEE07F
:202EE000F8E0FDE08FF4FAF4FAE8DEE0FAE08FF4DFF0FFD1EFD19FD1CFD1C8F5FFF3FFD3BF
:202F0000DF93FFF3FDF7FFF766F7FFF6FCF4FFFFFFFEEFFFDFF1F441F0F1E541F3F1E6E181
:202F2000F0B1E7E1FBEBFFEBEDEBFFEBFFE1FFF665E6F0E0FDF9FFEFF2FDF9FDFCFADFF513
:202F4000CFE3FFDFFFCFF8F6F1E5F1F0FFD6FAEFEFE1C3D6FFE1FFDFFFCFC3E0D0E0FFF475
:202F6000F70DF0F749F0D7E1FFEBFDE0FDD9FFEFF2FDFFFDFCDAC7F5C1E3FFDFFFCFF8F72E
:202F80005105F3F071F6FAEFFFEAFDE0FDD9FFEFF2FDFFFDFCFAFFF5FFE3FFDF1FCFD8F8CB
:202FA000F1E5F1F0FFD6FAEFFFECFDE0FDD9FFEFF2FDF9FDFCDAFFF5DFE3FFDFFFCFF8F902
:202FC0007165F1F0FFD6FAEFFFF4F7C5F0EEFDE0FFD9FFEFD2FD81FDFDDAC0F5C3E3FFDFEF
:202FE000FFCFFDF9F10557F0FFF6FAEFF4EEFDE0FFD9FFEFD2FD81FDFDDAC0F5C0E3CFDF43
:203000005F6F257A396539F033F6F2CFECEDFFE0FFB9FFCF3FFD33FDFFFAF3F5F3E36F7F43
:203020009FEFCFBADD85DDF0B1F6F6CFEDEFF7E0FFB9FFCF7EFD63FDFFBAB9F5F3E36F7F9F
:20304000DFEFCEBADD855DF0F1F6FECFEBEAFFE0FDB9FFCF36FD47FDFFBAF1F5F3E3CFFFC5
:203060009FEF9CBA9D855DF0F1F6F6CFF9EEFDE0FFB9FFCF16FD33FDFFFAF1F5F3E3CF7FC1
:203080009FEFCCBBDD25DDF0F1D6F3CFECEEF7E0FBF9FFCF9FFD97FDF8FAB0F5F1E36F7FC7
:2030A0009FEF67BBDD85DDF0F1F6FECFE8EFFFE0FDB9FFCFDFFDC5FDFFFAE2F5E6E3CFFF3E
:2030C0009FEFCE3BDD85DDF0B3F6FECFECE9FFE0FDB9FFCF7FFD67FDFFFAB1F5F3E34FFFD9
:2030E000DFEFC73C9D85DDF0F1F6FECFFF6171F6FFF9FFCF36BD33FDFFBAB1F5B8E3CFFFE4
:203100003FEF567C7965D9F7FF2137F6FFF9FFCFDFFD93FDFFFAE2F5F3E3CFFFDFEF4CBC38
:203120003D259DF0B3D6F6CFFF81F7F6FFF9FFCFDFFDC9FDFFFAE6F5E6C39FFFDFEFCFFCC9
:203140001D259DF0F1F6F6CFFFC1F7F6FFF9FFCF9FFD93FDFAFAE2F5E6E39FFFDFEF6CBC2D
:2031600039653DF0F3F6F3CFFF81B9F6FFF9FFCFDFFDCDFDFFFAF2F5F3E3CFFFDFEF4EBCE2
:203180009D259DF0F3F6F6CFFF81BBF6FBF9FFCFDFFDCDFDFFFAE3F5F1E36F7FDFEF4CBD2F
:2031A0009D259DF0F1F6FECFEFEAFFE0FFF9FFCF7EFDD9FDFFFAE3F5E2E3DFFFDFEF4F3D6F
:2031C0001D259DF0F1F6F6CFEFECFEE0FFF9FFCF7FFD67FDFFFAE3F5E6C39FFFDFEFCEBDA4
:2031E0009D259DF0F1F6F6CFE2EDFEE0FFF9FFCFDFFD89FDFFFAF3F5F1E36FFFDF6F6C7DA5
:2032000055A5BBF0F3B6F7CFE6EDF6E0FF99FFCF9BBDCDBDFF9A99B599A3CF7FDFEF647E88
:20322000DDC5DDF0F196FECFFFC17D96FF99FFCF7FBD65BDFF9A99B599A3457EDDC579F043
:20324000719645EEDCE0FECF6E947574EFEEFFE064918F614EC09EE89CE0CE94FFD0CF7F90
:203260009FEFFF6165916663B1F7FFE0FFE064918FE16EC08FE89DE03E945F706F7F7F4F57
:20328000FDC165916663B1F78AE89DE06AE03E947FD063C06E94FF72CE949F74E6966FB603
:2032A000FF94DFBF7FBEDDBFDF91DF917F913F916E95CF93DF936FB6FF9499919BCC9C91F7
:2032C0009F6CAC919FCCB1918D6C7FBE8C93FD239793FA63AE93FB63B093FC63FFE9FFE0F5
:2032E0006591EF6167C08EE89DE03E945F706D96FFE16591E663BFF78AE89FE0EAE07E9428
:20330000FFB0DFB1CF91CCB5EF92FF92CF93DF93CFB3DF93ECC1E190B9C3F490B9C349B11F
:20332000BBC37C91BBC3EF81FB819F819B81BB6197616E94EF949E63FFF4EF82FF826F83EB
:20334000DB83E890ADC3F4B0BFC3CC91BEC3DC91BFC36C81FF819E819F81AB619FE13E942A
:203360006B949F636DF4FC82FF827E83DF83E890BBC3FC90BBC34DB1BEC35C91BBC36B85AF
:203380007F858E859B85AF6197616E94EB949F63FFF4FF86FF866F87DB87E890F362F690C3
:2033A000F7C24C91F7C2DC91F6626B81FB819E819B81BB6197C17E947F967976FFF4EF8268
:2033C000FF826F83DB83E89077C2FF907AC26491FB425C91FB626C817FA19E819F81AB61CC
:2033E00097C14E94FB967956FFF4EC82FF824E83DF83E890FBC2FE907F624491FF627C9137
:20340000FE426CC579C5CFC5DBE5FE21DF219EF4FBF69936B7F4EFE6FBE69FE79BE7DFF1FF
:20342000CFF19FF1EFB1FF90FFB0EBB5B1F1DBC3CEF5EFB2FFB2CFF3DFB3CFB3DFB3ECC154
:20344000FF81BF81FFC1E5F18FC0BEE8BDE0CEF4FFD0F9F6FF6165F1E6E3BFF7FEE8FCE00D
:20346000BFC1AF81F9E0CEF4E3F0DFB1CFB1DFB1CFF1FFB0FFB0EFF5CFB3DFB3EEB4B5F52C
:20348000B8B1DBC3BBE3CFF0F5C0B1E0B8F3DBC3B1B1DFE3B6B1FCC3AEB1E9C3B0B1FEE3A2
:2034A000B1F3E383FCF3E5C3FCF3E583B0F3E6C3E7E0FFE0E5B1EF61C7C0BAE8BFE06EB452
:2034C000DFD0F9F6FF61E5F1E6A3BBF7FAE0FFE0E5F1FFE167C09AE89FE07F945F302FB6BF
:2034E000FF61E4B1E663BFF79AE8BDE06AE06EB4DFD0DFB1CFB16BF5CFB3DFF3FFF4CEF425
:20350000DF7577FA99D2FC8376FA99D2FD83F7FA9DF2FE03F3FAE3E0FFE0E7F1EFC1CFC07A
:20352000EFE8BDE0EEF4FFD0FDF6FFC1E5B1E6E3FBF7E8E8FFE0E5F1EFC19FC0EFE8FDE01A
:203540008EB4FF90F9F6FFC1E5F1E6A3F9F7EFE8FCE0EAE0CEB4DF70FFCFEFB2FF92BFB2DD
:20356000BFB2AFB2BFB2CFB2DFF2FFB2FFB2EFF3DFB3FDEEE3F1FFC3F0F1FE83E2F1F7C370
:20358000BEF1FF83F9F1FFC3B6D1FE83F9F1FFE3FEF1FF83CEF4E6F6BBC1FC81C9D089D080
:2035A00099D08DF7DEF78FFFDFEFE2F1EF82F0F1EA82EEA7F7FDB1F5B8AF8EF4CDF5FCF195
:2035C000FC22B1F1B782F3F1FF82FCF1FF82CEF4FBF7B9E0F3E0F9E7DEE41EF4F2F4F9E08C
:2035E000F1E0DFECD6E4EEF4F2B4FBC1ECC1FFC1E3E2F1E2B3E2FFE2FFA2F3F1F3C3F7E3A1
:20360000C6E89FE06DEF77E059EF77E03CE019E032E0FF2E3E947F608C91FF039691FF03DE
:20362000BC91FF03B09133248493872396938703BE938603B09387038691190497910F0419
:20364000AE911B04B1911F2486938F0396938F03AE938A03B1938B038391170496910E0419
:20366000AE910F04B0910E04A393AC0397938D03BE93AE03B1938F0383911F0496910F04BD
:20368000AE910F04B0910C04839397039793B703AF93B603B093B3031FB6FCB4A391A20C98
:2036A000F391F30CFF91F50CF0B1A50C1FBEA193FF039793FA03AF93FF03B093FC03FDB730
:2036C000FFB706B60FB6FC94BFBF0FBEFDBF1FF10FF1FFF0FFB0FFB0FFF0BF90AF90FFF053
:2036E000AF907FF06FF009954FF25FF26FF27FF2FFF2FFF2EFF2BFF2FFF2FFF2FFF2FFF283
:20370000AF933F93DF93CF9364D036D0DDB7FFB78DEFB7E01E9487193FB6FC948691872C89
:203720009691870CBC91870CB091850C3FBE8393FF239793FE23BC93FF03B093FC038391F6
:20374000FF239691FF03AF91FF03B09119048B839AA3AB83BF836191850374918723869183
:203760008603969187232B813A815BA15FA10E946BF4F9230BF0BFE05C900D047E901B04AB
:2037800063901B0474900F2463918B0374918B0386918A0397918B03BF0196011E946BB449
:2037A0008B230BF0A6E00CD0FDB6FFB61F94F91CDF1CFC901704FE901624199137241E91B0
:2037C0001E246391970270919702A3919622979197222CE030E05CE752E40F947EB44B01FD
:2037E0005F2183EBB3E0F7018D93BF9369817F81AB81BF81AF019601FFE0FF2EFCE0FF2E2C
:20380000AED4DE6BAFD09FD0EDD1FD43D9D1FF43F3D1FF63F3F14A84CDF3E743F9D3DF4355
:20382000F9F3E643F2D3E7C3E4D149C4FCF16744F9F14BC4F1F14F84E4D3ECC3FCD3EF4395
:20384000F9F3EF43F3F3EF83CDD16F44FCF16644F9D1D7C4F3F1CCC4E4D3CDC3FCD3ED43EB
:20386000F9F3EEC3F3F3EF43EDD16D44FCF12F64FCF12F64F1F12C64E2F3FC43FCF3FD436F
:20388000F9F3FF83F3F3FF43DFF04FF04FF06FF0CFF1DFF17FF14FF1FFB0EFF0DFF0CFF08A
:2038A000FFB0AFF0BFF0FFF07FB06FF07FB07FF04EF549D0CDF6DFF66EF4CD7CDD5C72F0B6
:2038C000C984FCF0CB846CF04B4470F066C4E1F0CF84F4F0CEC449D1CFC459D14C8464D175
:2038E000EF8271F1EFC2EEA777FDE2F5F96F6EF4CDF579F1B66231F1B72279F1FFA2F9F166
:20390000B7825ED4EFD7B2E0F6E065E77BE46ED4F3D4B2E0F2E07EEC7FE43EF472F47F61B1
:20392000FCC1E7EBFFE0F641FDE3E4C3FFCFCFF3DFF3EFE8FCE02EF4F7F1E3EAFFE065F13A
:20394000EF6167C0EFE8FCE03EF47F3079F6FF2165F16663F9F772D1DF437CD1E14366F191
:20396000E3C373F1E3437F7F7F6F6F6F7F6FFFE8BDE01EF4C6F0EFE8BDE06AE01EF47F3094
:203980006EF47979DFB1CFF12EF57FB27FB26FF27FF2BFB2BFB2AFB2FFB2CFB2DFB2EFB285
:2039A000FFB21FF37FF371F0FC627CF0FD4266F0FF8271F0FF626F6EF4E0AF2EFEE0BF2E76
:2039C000FFEFCF2EFFE4DF2EFF2DAEF2B642F1F2FDC2C4F2FF62D6F2B76266F3E74371F3C7
:2039E000E7C3E2F3E6C3FCF3E76339F3EEC372F3EF4373F3EFC37CF3FF63E1F2EC63F4F201
:203A0000DFA395B3AE83D9B3BF83DAD0E3EBFFE0BDB7BFB7DF96FF93EE93DD97FEE9CF6E7C
:203A2000FFE0DF6EEFEEFFE58F6EFFE59FEEFFE0AFEEFFE4BF6EFF6DCE94966B6F907F90C2
:203A40006E94766DCC929662F6929762E192966274929762DF916F91FF90FF90DF90CF90E4
:203A6000BF90BF909F908F907F906F90DF905F90CE95FF92FF927F93DF93E3919CC3709111
:203A80009DC399B19EC39C919FC378E071E058E757E46E949693FF619CC163E074E08CEA74
:203AA00096E46CE071E05EE357E43E94C7FCE8908C63FE908DE3C4918E637E918F6363E0EF
:203AC0007EE083E093E06CE0F1E05EE357E46E94C5FCFC908CC3FF908DE362918EE3DDB18A
:203AE0009FC366E0F4E08CE096E06CE071E05BE057E47E94C5DCE1908CC3FE908DE36291F1
:203B0000DEA3D9B1AF83ECE0F1E092EA9CE4F9E0B3E0F3E0FFE4CE94C7DCDF91CF91FF9049
:203B2000EF90EE95EF927F929F929F92BF92BF92CF92DF92FF92FF926F937F93E3919C6372
:203B4000F0919D4399919E439C918F63F8E071E0D8E757E46E9496937FE18C6163E07EE09E
:203B600086EA96E4FCE071E059EF77E4EE94C77CE1908C63F6909D43C9919E63DC919F6336
:203B800063E074E08CE097E06CE031E058EF57E46E94C77CE8909C43FE908D63CC919E4374
:203BA000DC919F63E3E0F0E08CE096E06CE070E05FEB56E4EE94C57C63919F83F0919F63A5
:203BC00099919E439E919F63F9E071E058EA7CE46E949F93BBC1FC6163918E63F0918B637C
:203BE0008C918F6396918F63F9E071E0D8E0FEE06E949693DBC16C6161918C63F4918D63F3
:203C0000D2D1CE23DCD1CF8339E033E0F9E0D6E03EF4DFD37B21CC21CF21F321EE21FF21B6
:203C20003ED4CF3C1FF13FF1FFF0EFF0DFF0CFF0FFF0EFF0FFF0EFF07FF0EFF08EF5BFF2AD
:203C4000BFF2DFF2DFF2EFF2FFF2FFF2FFF2EFF2FFF2CFF2DFF2EFF2FFF2CFF39FF3DFF301
:203C6000CFF3CDF7DFF7ECF70FF6FFF4DFFFCFFECDFFFFEFFBEFE330F7051EF08FC2FFC190
:203C8000EB71FFEFF4F0FFC1EE8CB39CEE8CF3DCF701BC57BFEF3EE33DE3F3E0F6E0EEE0B3
:203CA000F0E0FD81E6E3F7E3EEE3F3E363F1E78374F1E703F1F1F683F6F1F783BCF1EB8388
:203CC00033F1EF03F9F1EF2376F1EF03E1F0EC83FEF0FD2312F1EE831CF1EF03F1E9CBEE25
:203CE000F3E0DBEECEF4F8C5FF01E071FFCFEDF0FFF08FF19DF1EBADFF27E7FDF4D5EE2730
:203D000077FDC9D5D92F3ED42DD56FC37BE3EFE3FCE3FD213B70BD6F38E73FE3CB21F7819A
:203D200039E031E0D9ECDFE38EF45BF7BFE1BBE17FE15DE18EF4DBF7EFE1FFE5EDF3FFF34A
:203D4000EDF3FDF39FF7FF81E75AFFCFFFE7EBE763E171E1E3E1F7E1E3F3FE22F0F3F78232
:203D6000E2F3FF02F6F3F7828CD0CDF6DFF68EF4C75CDF1CF9F0FFC3D6F0FF83E3F0FFE3CF
:203D8000F4F0112438F1990433F11304D9F18B8476F19F24BBE7BFE75DE7DFE7E8F09F84B9
:203DA000FEF01E2419F19F843CF11E2438E0B1E0DCE7D7E4CEF4F2F4DF01DC01FBEBFFE0E6
:203DC000D7C1FDF3FEF3C3C1F281ABE5BFE5DDE5DFE5E9E0CAEEEDE0DAAE8EF4F66B9FF071
:203DE0000FF08EF4FEEDECE0B1E0DCE0D7E0EDE1FFE1ADF3FFF3DDF3DFF39FF763F1F58343
:203E0000F5B18F0389918E03BCB1A7C339B1AF4331B1EBC373B1FAE376B1ABC3FEB0FCC379
:203E2000FFB0FDE34CB1FEC31EB1FFE3FBE9FFEEFBE0FFEEEEF4F3E5F961FCF0FF6FFDB0D0
:203E4000F5F0E5F0FCF0FFE1F2419C78EBE1BFE1FBE1FEE1BFF4FBD7FFC1FCE5E0E3FFE3A3
:203E6000FAE3F3E3E3F0EFF6FFF6FBF4EF5CFBFCEEF1FFE3F0F1FFE3F9F1FF8370F1E2C4BA
:203E80006FE7FFEBFBEBFAEBF8F1E3C4F6F1F2E4FFF1F3C4F0F1F5E4FBEBFFEBFFCBFFEBE5
:203EA000F1F0F5E4F8F0F6E4E3F1F7E4F7F1EBE4E1F1F7C27CF1F7E2F8F1F6E2F3F1F3E2D5
:203EC000EEE0F0E07FE7D2E4FFF4FEF4FB61FFE1F7EBFBE0F761FDD3FED3EFC57DE9FBE953
:203EE000FAE9ABE9FFE9FDE9DFC9F9E0EFAEF4E0FFEEBFD4D76BBFF07FF0BFF47E6DE341E9
:203F0000BB21B301BF414EB4BFB37FA13BA1FBE17DE1EEF4FBF7FFE1FFE5EDF3FFF3FDF30D
:203F2000FFF3F7B7EFA5FEE5E0E1FFA1FAA1F3E1ECE0F0E0FEE0FFE37FF4FBF760F3F34251
:203F4000FFF3F3E2F8F3F2E2F3F3F3E2E2D0EDF6FFF6FBF4FFFCFFFCF8F0FFA3F3F0FFA3A2
:203F6000E0F0FFA3FFF0F1E46EF1F1E4F0F1E3E4FCF1F3E4F3F1F5C4EFEBFFEFF9EFFAEF35
:203F8000F3F0E5E4F8D0FEE461F1BFE4F3F1FBE4E7E0F0E0FFE7F2E4FFF4FED47B61FFE13F
:203FA000F3EBFBE0F7E1FDD3FED3E7E1F261EFE97FEDF9EDFEEDFFE0EBAEF4E0FFEEBFF4B3
:203FC000D7EBBFF07FD08FD4FAEDF981F8DFFDCFFDD1FDF1DDF1F4F1F961FFF6FEEFE3E04C
:203FE000F1E0EEE0F3C0FFE1D561BFF4D2F3FF81CDE1EBA1FFE1FFC1FFC1CFE3D1E3FEE380
:20400000BBA3F341ED7EF9EFEFD1F7D1D7D1DED1F2EADFAEF3E0DB6ECB4CDB5CF641DF21D2
:20402000DED4DBD3DEA1EDD3FDD3CDD3DCD35BD7F3A1E5FEF96F6FD1F7D1CFD1DED1E7E78C
:20404000F3E07E4E7FBEF641DF415ED4DBD3D941EDD37DD3CDD3DCD39BD7D741DB41EFC17E
:20406000F8C5CAC3D9C3F3C3F7C372E074E065E079E036D3D94274D3D98269D3DB4279D33B
:20408000DBA2AED4DEEC6FCDFCCD66F57CEFCBE0DB81CDD3EDD65FF6F8D4DEFF5FFEDDFFEB
:2040A000CFD1DFD15FD15FD1FFD0EFD0DFD0DFD0FFD0FFD0DFD0DFD07FD06FD07FD06FD04C
:2040C0007FD07FD05DD56DD17A4479D13B2432E634E0F94166DFD941EFDF744D7EDF740D39
:2040E000BB24ECAFF7A76FFD73D5DDA1D6FEDB6F5ED4DCADDC41D9D35F44CAD35E44D2E040
:20410000EF6BADF0D5E00DD55FF6F9D474D1D34C79D1D32C6AD1D64C7AD1D7ACAFFEECAFCF
:2041200076E0BEC0AFF6F8D4D5D1D74CDAD1D70CF5D1D64CF5D1D74C5FFED75BDBABF6AB5C
:20414000F74BDD7EDB60F660F560BDF4FB214ED4E6CBEE6379F74DD5DFD3DFD36DDB6BC082
:20416000D7E0D9E09ED4D660EFE7F7E06ED1EFA1AFC0DFE8DCE02ED4FF5063B6FEA16ED171
:20418000EEA3FBF7DFE8DCE0EFE05ED4FF50FEC0CFE0D9E05ED4CEA0E7E7F7E06ED1EF210F
:2041A00057C0CFE8DCE04ED4FF5077D6FE41EED1EEA3F9F7DFE8DCE06FE01ED47F10FCD811
:2041C0007BC0D5D1FDA3DD63DDF5ECE6F7E06ED1EFA187C0DFE8DCE05ED4FFB0B5D6FE811F
:2041E000EED1FE23FBF7CFE8DDE06FE05ED47FB0D5E0D2D3DDA3B5E0E7E6F7E06ED1EF4147
:2042000037E0DFE8DDE0AED47F90B5D6FEA1EED1EEA3B9F7AFE8BCE0EFE09ED4FFB0BAD299
:20422000DDA3AFC0EFB9B6CFEEF9DFCFEEB9AEC0CAD1DDA3ADA3ABF7DFB1DFB1ADD5BFB298
:20424000BFB2EFB27FB2EFB2FFB2AFB2BFB2BFB2BFB2CFB2DFB2EFB2FFB29FB3BFB3DFB35B
:20426000CFB3CDB7DEB7EEB7AFB6F8B4DEBF9FBECDBFEDA3FEA3BFA3BBA7BDA7BBA7EFE7D6
:20428000FCA7AEB477EDEBF1AEA3F6B1AFA3AAD1AEA3FAD1D743B5F1ADA3B5F1ADA3E9D138
:2042A000AFA3FAD1AFA3AEF4D7BCEDA1FEA1AFA1BAC5BFE9BBE9E6EFF9E4BEB4BBD3FBA1C4
:2042C000EDA1EDA5FBA5AFA5BCA5B6E6B6E6EEEAF9E49EB4BBB3BBA1FDA1E5F0ADA3F2B0FB
:2042E000ADA3A1D1EEA3BAD1AFA3D6A1F7A1AEB4DFBCAFE9BBE09EB4BFA3E9B1E9A2F4D1B1
:204300007A62D6D1F3A2DAD1F682EAD3BAA2F4D3DBA2CAD3DBA2DAD3BBA2A9D0DFF6DEF6BF
:204320009CD4D5BCDBBCE5D0C683F2D0AFA3A9D1D783BAD1CFA3E8D0CD83FAD0EDA3EAD0E6
:20434000AFA3F2B0AFA3B4E0B4E0E5E7FBE49EB4F3D4EFA1FDA1E7EBF3E0DEA1EDB3FCB38A
:20436000DCA1B7A1B7A1FBA15FAEF1E0EFAEF1E0FFAEF8E49FAFF3ECBFAFF3ADB2E9CFAE4C
:20438000B3E0DBAEAEB4BEEBAFB0AFB0AEB4F7EDABE0AEB4FBEDEFA1FCA1EAB1AEA3F2B161
:2043A000AFA3CAD1CEA3DAD1EFA3B5D1ADA3B5D1CDA3EAD1CFA3FAD1AFA3EFA1F6A1AED4A3
:2043C000E4E5B6E0B6E0F9A1A7B1BFB1B7B1B6B1ADC3BBA3BFA3BCA3DFA1B6A13DE1BBE197
:2043E000EFE1FCA1AED4BBD3EDA7FEA7AFA7BAABAAD0DDB6DEB69DB4DBBCD9BCE5F0AEA308
:20440000FAB0CFA32DB1CF2339D1CFA365D0DD437AD0DD437AD0DF4375D0DF436AD1DA424B
:2044200074D1DB42D5D1DB42DAD1DB2275E034E065E77BE44ED477D46F417D41E7EBF3E01B
:20444000FE41EDD3FCD3DC41F741F341DB41EDC4FEC42FC57D89F4E9FF6EF7E0FF6E5E94FC
:20446000DF6B2FD05FD05ED4776D6AD1714275D16B42D2D16B42DAD16E4275E075E06AE02E
:204480007FE34ED46FD77B416D416AD3DA4274D3DB42D5D3DB42DAD3DB4255D07DF67EF690
:2044A0004DD4755C755C6AD0D6437AD0D7436AD0D64375D0D743D5D1DD03DAD1CD43F5D1C9
:2044C000DF23F5D1DF43DDCBDBCBFFCBFCCB6DC17BC1CFC1DCC175E075E06AE07AEC5ED4F0
:2044E0006FD7DB41FD416DC57EC5CFC5DAC95ED4DBD37B41DD41D641F74174E075E065E772
:2045000056E4AED477D45F217D21EBEBF3E0DB41EDD3FCD3D741F7417DC97BC96FC97CC9CB
:20452000E9E9DE6EE7E0DE6E5ED4DE6B5FD05FD05ED4776DD7E05ED47B6D7B41DD416AD373
:20454000DD4375D3DD43D5D3DE43DAD3DF436AD1D64374D1D743D4D1D723DAD1D74374D1DF
:20456000DD2379D1DD436AD1DF437AD1DF435ED4E865F2D0DD43E5D0DD43D9D0DE43D5D062
:20458000DF43EDE3F6E06ED1DF415DE0DFE8DCE02ED47F502F7F3F6FF8416ED16E63F5F7D2
:2045A000ECE3F6E06ED1DF214DC0DFE8DCE05ED47F505F7F5F6FF8416ED16E63F5F7CFE8EE
:2045C000DCE06DC17EC16FC179C577E02ED4DFD0E7E3F6E06ED1DF415DE0DFE8DCE02ED47B
:2045E0007F505F7F5F6FF8416ED16E63F5F7DFE8DCE06DC57BC56FC57CC577E02ED4DFD099
:20460000FEE2F6E06EB1AF410DC0AFE8BCE05EB47F505F7FDF6FF8416EB16E63B7F79FE86A
:204620009CE07F6D7EADED6DFF6DBF41BF4173E04EB4CFB0ECE2F6E067B19F414DC09FE81D
:204640009CE02E947F504F7F5F6FFA416EB16E63B7F73F6D7E6D6D6D7CEDB941CFC16E9670
:204660005FB6FA94DEBF2FBECDBFCF91DF917F914F91FF90EF90DF90CF90BF90BF909F9018
:204680009F907F906F907F906F907F907F906CB5EF92FF926F937F93CF93DF93EC417B41AD
:2046A0009FC1FD616EB14FC09FE89CE02E947F707396FE616E916E63B9F79FE89CE0B84176
:2046C000B7C173E06E94CF90DF91CF917F912F91FF90EF906C9592B17EC499B15F4469B66E
:2046E000E9E073E06FE07CE06E947B4C4C9594B15E4499B15FC44BB669E072E04E94DB2A72
:20470000CBD55FB31FB3CFB3DFB3AD01AAB1B743A5B3DE43A6E54EB4EBA0AD63DDF47EC04E
:204720009EB477635EB4DF9469B3DE43EEE36DF46DC0EDEFF3E06E91EF4157C09FE89CE034
:204740006E947F7073B6FE616E916E63B9F76D7659C5D9F04E765B457CF42C76794579F0F9
:204760006F76394579F52DC04FBD59459BF02D7D59C5D9F47EC09FE89CE06FE071E03BC0D5
:204780009FE89CE064E271E04EC09FE89CE067E371E06DC09FE89CE06EE471E04EC09FE86B
:2047A0009CE067E671E02E949F546591DE437DE066E071E09FE89CE072E02E946D909FE884
:2047C0009CE06FE06E947F5093E065C092E0DF91CF917F916FB16CB5BF92BF92CF92DF929E
:2047E000EFB2FF923F933F93CF93DF93B7E8EF2EB3E0FF2ECDEFDFE064E039E0FA41EF7D14
:20480000FECFCAC15ED477A0DDA3BBF1AED4F7A3FB81ED81F981EBF8FCEFD5C1DDA3BBF0BC
:20482000F1E0ABE0EAD1AFA4F5E0DDA7F7FDCAD5DA2F9ED4ADD5F781B5C1B5C1EBC17BC1D9
:20484000AED4EFD7DBA1FDA1D6A1F7A1AED4DBD3EDC3F9C3DFC3DBC35DC0F741D4C1DBC185
:20486000F7C1F7C1DDC3DBC3FFC3FBC3AFFF5F6FD6E0DAE0ECAEF9BEB6D656B0BBA5ADF03E
:20488000FDCFCEE4DED4EBA0DDA3E5F05ED477237B41DDA1EAD35EA472D35F44DAD31AA4F0
:2048A000DAD3BBA4B5E0B5E0EAE07AE00ED479D6BAB6EEF4E5D2DA42F5D2DBA2A9D3DBA20B
:2048C000BAD3DBA2DFD1DFD11FD15FD1FFD0EFD0DFD0DFD0FFD0FFD05DD55ED4EC63DDE450
:2048E000DED46BA0DDA3FBF05ED477636AD3F343F6D3F3A3D5D3F3A3DAD3F643ADC0D5E06C
:20490000B6E0F0E0FAE0D2B3F503D9B3F7A3F4D3F343FDD3F683DFE4AED4EBA0DDA3FBF033
:20492000AED4F7A3EAD3F7A3F6D3F643D5D3F703DAD3F9831CD5D5E0DAE0F5E0F5E0D5D385
:20494000F7A3DAD3F603F5D3F7A3F5D3F9A3ACD5FFD2DFD2FFD2EFD2FFD25FD35FD3DFD3D5
:20496000DFD35AE6E5AEF3ACEDE4F6E0D6D0EFEBF6E0DED0FBA4F7D4F7C13D30F7F03FB300
:20498000B5F4D0D1DBA5DDA3EBF0D5D1DCA5DAD1DD45DFB5DB85AEF4D7C1E5D1DC85F2D1F6
:2049A000DDA5B5D7BBF49AD2DBA5BAE2F5D1DEA5F5D1DFA5FEDDD4A1FFDD5AADFEDD5AAD0A
:2049C000BBA4E98FF3BFEEFEFBEF5AC2D5D1DBA5DDA38DF0F4E1BAD2DBA5F5F6FBEF5DD254
:2049E000ECA1D6FEDBEFDE41EEE472E05ED4DCADDDA1AAD7ADF4DBC0DAD3BFA4D5D3BEA439
:204A00002F5FBFEF7E5BBDABB04FBBBFDD01C7FEDFEFEAE0F4E0EFE0FAE0AED4BBACFAD332
:204A2000F6A5F4F3B7A5CAD3F6A5BAD3F7A5B5D1DFA3B5D1E5A3EAD1E5A3FAD1E7A3BFFFCB
:204A4000BFEFEFEFFFEFEBB7F7A7AEA7FFA7ADF4B7C1AAD1DEA5BAD1BFA5BCA1BEBDCA8178
:204A6000BFBDB9ADBEBDB9ADBBA4AEFEBBEFEAE6F7E09ED4ABADADABADF0AEC1E7E0F3E04F
:204A8000EEB1EFA1AFC0AFE8BCE0AEB4FFB0B5B6FEA1EEB1EEA3B9F7EDE2F7E0EEB1EF8195
:204AA000A7C0AFE8BCE0DEB4FF90B5F6FEA1EEB1EEA3B9F7FFC09EA7EFFFFD81E6AFF19D7E
:204AC000E6FEFBEFE2A1EFB2B7F7F4B3BFA4B5B3BEA4DDA1ABB6EAE0F2E09EB4DB8A9EB4DE
:204AE000DBB4B5AFB5E0B697B7879DF4EDC0E7E0F3E0EEB1EFA1A7C0AFE8BCE09EB4FF9021
:204B00006DD6FE81F6D1F6A3FBF7EEE0F7E0EEB1EFA1AFC0AFE8BDE08ED4FF90B5B6FEA10F
:204B2000EED1EEA3B9F7BDC0E7E0F3E0EEF1EFA1AFC0AFE8BCE09EB4FFB0B5F6FEA1EEB163
:204B4000EEA3F9F7E6EEF6E0EED1EF8197C0AFE8BCE09EB4FFB0B5B6FEA1EEB1EEA3B9F786
:204B6000E9B1DF83F9B1E5A3E9B1E5A3F6B1E783AFE8BCE09EB4CAF0AFE8BCE0EFE09EB441
:204B8000FFB0AEB4BFBCEFC0A8D1B6A5BAF1B7A5B5D1B6A5B4B1B7A5A9B3DF83BAB3E4A3AB
:204BA000B4B3E583B4B3E7A3BBC0CE81EFE2F2E0BEB4BC8DA1B7BBF1E7E0F3E0EEB1EF8160
:204BC00087C0AFE8BCE0DEB4FFB0B3B6FE81EEF1EEA3B9F7EFEBF6E0EEB1EFA1AFC0AFE82D
:204BE000BCE09EB4FFB0B5B6FEA1EEB1EEA3B9F7E5B1DF83F9B1E4A3E9B1E583F2B1E783F6
:204C0000BAE8DDE05ED4D5D0DFE8DDE0EFE0AED47F105AD2DDA5BAD2DC25DAC0D2D1DEA5FF
:204C2000DAD1DFA5CEDDD2A1DFDDBA2DDEDD9AADBB24ECA1D6FEDBEFDE216FE4F2E08ED4F2
:204C4000DCADDCA1A0D7ADF4BBC0D9D3BFA4DAD3BE24BFFFBFEFBDBBBDAB352FB5BFDDA17B
:204C6000DE7EDBEFE9E0F2E0BED4DB8A9ED4DBD4EEB0F185B2F5D2D1DBA3DD23F7F4EDADFA
:204C8000D7EBDEE0A7C0CFE8DCE0AED4FF90B5D6FE81EED1EEA3F9F7ADC0ECADD3E4DEE0E4
:204CA00097C0CFE8DCE04ED4FF90B5D6FE81EED1EEA3F9F7CFE8DCE0EFE09ED4FF90D0D14B
:204CC000DEA5D9D1DF85DCC1BEDDD2A1BFDDD9ADBEDDD92D9BA4CEFEDBEFEDE7F3E05ED427
:204CE000F7ADA8D7BBF49ED4FCBACAD1DEA5D9D1DF8595D6EEE073E09ED4BCD8D9D3DFC5AC
:204D0000B1B3BE458AD1EF83DAD1ED43A1D6DAD3ED03D5D3E7A3BAD2DDA5BAD2DCA5B6C0AD
:204D2000BFB3BBF4F4D2DBA5D0D1DB05DD23E5F4B5D1DC25B5D1DDA5D5D1DEA5DAD1DFA5CB
:204D4000DEDDF3A1CFDDF28DDEDDF1ADBBA4E78FF3BFE6FEFBEFCAD1DBA5D5C3BFFFBFEF0C
:204D6000B5D3DDA5B5D3DCA5DFE8DCE0DED4CFD19AB6BBA6FCF5C9D1E783D9D1ECA3A6D7EF
:204D8000BDF5CFE8DCE0DED4D6D1BCAFD2D3DBA5DF30ADF0F3CD95CEDAD1DE85DBD1DF8518
:204DA000CEDDE4A1DFDDD9ADDEDDD9ADBBA4DEA1D6FEDBEFEFE2F2E09ED4DCADDCA180D752
:204DC000ADF4F7CE9AE0E5E0CEA1F7CEDFD1DFD19FD19FD1FFF0EFD0DFD0DFD0FFD09DD56D
:204DE000EFD2FFD29FD39FD3C9D1E783D9D1ECA397D7BEF49ED4FCA4BFF6F8D4CAD1CBAC3B
:204E0000D4B1AB4CB5B1964CB5B1974C5FBEE4B0ED43F190EE236A91EF233991F143349142
:204E2000ED233691EF236591EF637991ED639B3B9B2BB72BB72BEE36FF263F273B6739F409
:204E4000E354F1246925392539F01E947D3AE5B09D42F190AD4250B19E6239919F62E334C1
:204E6000F524292539256DF12FB6FE948B91932C9991932CB2919E2CB2918F2C2FBE3A9111
:204E8000ED633691EF636491EF237D91EC639B5B9B4BB62BB72BEC36FB262F273B279AF41D
:204EA0009D91EC2A8991ED2A99377DF4779A1992BC23769A3D92BD23679A3992BE23679A34
:204EC0002E947E653F912F91FF90EF903C953F923F927F927F926F927F928F929F92BF9245
:204EE000BF92CF92DF92EF92FF921F931F93DF93DF93DDB7DFB7D371DD601FB6FF94DFBF84
:204F00009FBECDBF97E42E946B609D234DF43EC72E9477232E94DB946E7073254DF46FC027
:204F20006F7073257FF46730716571F167307125BCF57723ECF41C94F53D6F3571252DF423
:204F4000B6C66F3571657FF46C3171252DF48EC06D31732539F01C94F53D37C36F357125D1
:204F60002DF4BFC66C35712539F01C94F53DBEC68991DB038C6339F03C94F53D2E94EC23E2
:204F80002E94773B3C943F3E8991DB038E6319F02C94F53D2E946D2489E02DC08991DB23AB
:204FA0008C6339F02D94F53D2E946D2489E01E94BD3A1C943F7E89E52E9467208E233BF47D
:204FC000BF24BB646F4126C03E9477232E94DF947B216C218BE51E9467208E2365F01E940E
:204FE000772339E033E07FE77FE41E947F972E94DFB47B016C211E94736D3FB6FE94E9906A
:20500000B28CF2D0D34C4AD1D62C58D1D74C5FFEEF4CFB5C5E5D5D5D5FF6F9D4D5D1D34CBD
:20502000DA91D36CF5D1D6ACB8D1D74C5FFED5D3ED43DAD3EF43F5D3EF43F5D3ED4316E0D6
:205040004ED4EF795ED4F2664FF6F9D4D5D1D74CDAD1D74CF5D1D64CF5D1D70C5FFEDEB512
:20506000DF45F447FD477AF32DD4F37DD7E9DBE02ED4FFC3D5D1DA42DAD1DB42F5D1DB4203
:20508000F5D1DB42D5D3BB04DAD3BB44F4D31E44F5D35F44D4D17D42DAD17F42DAD3D743EF
:2050A000CAB3CB23D6E6DAE0DAD37F42D2D37D425FF6F9D4D5D1D74CDAD1D74CF5D1D64C9C
:2050C000F5D1D74C5FFED5D3ED23DAD3EF43F5D3EF23F4D3ED03D5E05ED4DB6CD5D1D64375
:2050E000DAD1D743F5D1D643F5D1D743D5D3FDA3DAD3FEA3F5D3FFA3F5D35524D4D1DD4326
:2051000096B1ABC3AAB1ABA3BAD18FA3CAF329A4D9B32AA4F4934B24FAD325A4A9B1CE23B9
:20512000BDD1CF23F0B1CE23FAD1CF23CAB32D24D9F35724F5D35744F5D35C24C291DA4370
:20514000DAD1D9A3F4B1DB23F9D1DB23C2B34D2499D35F64F4D34B44F5D35E24CAE0DAE0A4
:20516000F5E0F5E0D5D3DA42DAD3DB22F5B3DB22B8D3DB62AAE56ED47760DDA3D9F4DDE5F3
:205180005ED47360DDA37DF4DFE55ED47360DD6379F0DDE5AED46B60DD6373F0DDE5AED4B1
:2051A0007320DD637BF0DFE55ED47320CD2359F0D5E055E0CAE0D0D3DE42DD637DF4DDE525
:2051C0005ED46B60DD6335F0D5E0DAE02ED45F5ED291DE42CC237DF4DDE55ED47360DD6355
:2051E00075F0D5E0DAE0AED45F5EDDE55ED46B60DD23DBF0AED46F236B557505D545DB05CA
:20520000A7F09FD47763E9D1DE43BAD1DF83E1D1DE83FAD1DF83AED4DBD3F5D3D643F5D3C9
:20522000C783C5D3CE839AD3D7A3DDE5AED4EBA0CDA3DBF0AEF4EFA3EBB5F5A5CB05DBA58C
:20524000F5F0AEB4F7A3B5D1BAA3B8D1BBA3E9D1DFA355D1DBA3AED4DBD3EAD3ADA3F5D3BE
:20526000CDA3C5D3DFA3BAD3AFA3AAD1FEA2ADA3B5F4AFE5AEB4EBA0ADA3ADF4ABC1AAD158
:20528000FDA3ADA3B5F0AAD1BDA3ADA3B5F5EDEFF3E0EEB1AFA1ADC0AFE8BCE0AEB4FFB055
:2052A000AFFFBFEFF8A1EEF1EEA3B5F7EFEDF7E0EEB1AFA19AC0AFE8BCE09EB4FFB0AFFFFF
:2052C000BFEFF8A1EEB1EEA3B5F7AFE8BCE0EFE0AED4FFB0DFC0E9F1EEA3F5D1CFA388D1DD
:2052E000AEA3BAD1AFA3B5D1ADA3B5D1ADA3EAD1AFA3FAB1CF03EAD0DE43F2B0EDA3AAD1C2
:20530000BF43D4D1DF43FAE9DFAEF7E0DBAEAED4EAE5AED4BBBDC1E0DAE0B6E0B7E4AAD3A0
:20532000FDA3BAD3FEA3F5D3FFA3F5D3A584C5E0FAE0B7EDB7E4AAD3ABA4DAD3ABA4F5D3F6
:20534000ABA4B5F326A4D5D1CD83DAD1DFA3B5D1AEA3F5D1CFA3C5D3AF84DAD3AFA4F5D3C7
:205360005F44FAD35A44D2E0D9E0FFEFFFE4D5D3BAA2BAD3BBA2B5D3BBA2F5D3DBA2AAE041
:20538000BBE0B4E0B4E0A9D3ADA3DAD3CDA3F5D3AEA3B5B3AFA3FAD1AEA3F4D1C7A3AAD1C8
:2053A000CEA3FAD1EFA3B5D18D83BAD1CDA3EAD1DFA3FAD1CFA3AFAEF2E0EFAEF2E0FFAEC9
:2053C000F1E0DFAFF1E0DFAFF1AD9EB4E4E5A0D0EAD1FDA3F2D1FEA3EAD1FFA3BAD1AAA4F1
:2053E000B0D1ABA4B9D1AB84E9D1ABA4FAD1AEA4E5D0AFA4F2B0AEA4AAD1AFA4BAD1ADA458
:205400009EB0B582BDF0D922F2B0DBA2F0D0DB42EBEBF3E0FDF7FEF73BD6FCD3EED35BD7FE
:20542000FDE0DF6EF6E0DB6E5ED4DE6B5FD05FD05ED4776DD5D1FD43DAD1FE43F4D1FF237B
:20544000F5D15544D5D3D643D9D3CF43F4D3D643F5D3D743D4D15544DAD15304F5D157440B
:20546000FDD15644D4D3DD43DAD3DD43F5D3DF43F5D3DF43D7E0DAE04ED45F5E5ED4DB5DA2
:20548000DFE55ED46B60DD63DBF05ED46F636B557545D545DB45F5F04ED4776375D1DC4342
:2054A00075D1DD436AD1DE437AD1DF435ED4DBD36AD3DD4376D3DD43D5D3DE43DAD3DF437F
:2054C000D5D1DE42DD637DF4CFE52ED46B60CD63D9F069D1DD4376D1DD43D5D1DE43DAD1A8
:2054E000DF4375D1FF2375D1F5436AD1F5437AD1F7435ED4DBD36AD3DD4376D3DD43CAD369
:205500009F83B5B3CF6375D1CE2375D1D763D4D1CF23D9D1D74374D1DC2378D1DD436AD1D5
:20552000DF237AD1DF43E9D0DD03F2D0DD4352D1DE4318D1DF43F2E9DF6EF3E0DF6E5ED4B8
:20554000E965D4E05ED4DB6CD5D15B44DAD15B44F2D15E44F4D15F44D5D3DA42DAD3DB42E6
:20556000F5D3DB42F5D3DB42D5D1D743DAD1D743DAD36F42D5D36D425FF6F8D4D5D1D74C3D
:20558000DAD1D74CF5D1D64CF5D1D74C5FFEDAD3ED03DAD3EF23F2D3EF43F5D3ED435ED492
:2055A000DE6C5DD4F37DD5D1FD43DD6375F0D5D1FD43DD637DF5EDEFF3E06ED1DF415DC0B2
:2055C000DFE8DCE02ED47F505F7F5F6FF8216ED16E63F5F7EDECF7E06ED1DF414DC0DFE8D3
:2055E000DCE05ED47F302F7F5F6FF9416ED16E63F5F7DFE8DCE06FE04ED47F502DD4F33D68
:20560000CFD4776DAFE9BBE05EB4BFA3CE415DB6DEB4DC66EDA57E859FA5BAA96AB3A60364
:2056200072B3974395B3A643999397437DA97BA96FA97CA974B39D43F5B3AD4369B39F4310
:20564000F9B3AF43ED88FE885F895AADE2B2AD43F1929D43D5B39E435AB3BF43E4E9CE6E5A
:20566000E3E0DE6E6E94E26595B199429AB1B942B4B19B42B4B19B4295B35B4499B35B4415
:20568000B2B35E44B4B35F4494B16D4299B16F4299B3B74395B39743A6E699E099B36F42A0
:2056A00095B36D425FB6FA949291974CB9B1974CB5B1B64CB691974CDFBE96B3ED4399B309
:2056C000EF43B2B3EF43B4B3ED4395E06EB49B6C92B16D4299916F42B2916F42B6B16E42F4
:2056E00094B3994299939942B2B39B42B6939B425E94795DCF7FDE6F5A82CD70D9609BE3E6
:205700006BAEBBAC73E375E0CFFFDE6F79A37DA3CD70DB6096E99AE0C77FDE6F9B839CA3A6
:20572000CF70D960CDFFDE6F5BA25AA2CB70D9607DC0CB7FDE6F9BA1CDF0D9609B6399F4DA
:20574000B3E0C77FDE6FBC83CD70D96096E97C6E756CEEECFFEFC77FDF6FFF83EE83CF7096
:20576000D96039C0C77FDE6F5AA2CD70D9606BE372EE756C73E374E0C77FDE6F79837C832B
:20578000CD70D960CD7FDE6F9C81BBA1CB70D9609C4F9B5F9C4FBB5FBFE4B6E0BC4FBD5FC3
:2057A000BC4FB95FCFFFDE6FB983BC83CF70D960B3E77F6E7D6C6C4E7DDE6C4E7B5ECD7F54
:2057C000DE6FEC81FB81C770D9E0C77FDE6FFB83EC83CE70D9E0CD7FDE6F3B823982C770E4
:2057E000D960C77FDF6F8E819B81CF70D960BF679FFDB395BB6FC47FDE6F9C839983BF83F8
:20580000BFA3EBD1FBE0E3FFFE6FFDC1FBC1EE70DBE0FF2BBDF4EE64FF6455E75BE45AC088
:205820006AD1DEA375D1DF23D2D1DE43DAD1DF4375E075E06AE07AE42ED4DBD37B41DD41F7
:20584000F521DDA777FDD2D5DA2F5ED42FD57B416DA1D5FFDE6F6CC179C1DFC1DBC1D57180
:20586000DB605ED4AFD57B416D41D641F741F641DF415ED45F61DF7FDE6FECC1F9C1D770DC
:20588000DB606BD373D3D5D3DBD3DF7FDE6FF9C3ECC3D770DB60DB416DD27DD2DDD2DDD253
:2058A0005BD7F341F6E2F7E2D6E2DFE27DE475E06B4E7B5ED4E0DBE0F2E8FFE3F321D5C339
:2058C000DBC3F7C3F7C3D77FDE6F3DC17BC1DE70D9607F7F7F6FD3FFDE6F7BC33DC3DE70BB
:2058E000D960DD7FDE6FCDC1DBC1D770DB6055D6DD7FDE6FDBC3DDC3D770D960FDEBFFEFB2
:20590000CA4EFFBE97F76DF0D77FDE6FEDC1F9C1DDF0FBE0BEAE7F5E76EFED7FDE6F7DC16F
:20592000BBC1D770D9607D7F3F6FDD7FDE6F3BC37DC3D770DB60D77FDE6FDDC1DDC1DF702A
:20594000DBE0D7D7D77FDE6FDBC3DDC3DF70DB607D3075450DF0EDCED5E05ED4DB6CD5D180
:205960005B44DAD15B44F5D15E44F5D15F44D5D3DAA2DAD3DBA2F5D3DB42F5D3DB42D4D1B0
:20598000D7A3DAD1D3A3DAD36F42CAD36D425FF6F8D4D5D1D72CDAD1D70CF5D1D64CF5D1BC
:2059A000D72C5FFED2D3ED43DAD3EF43F5D3EF23F5D3ED43DDE0DAE06BE072E0FEA1EDF869
:2059C0007F6FDE01757B7F6F5ED4EB6B6D41EBEBF7E06ED1DF415DE0DFE8DDE05ED47F5018
:2059E0002FFF5F6FF9016ED17EA3F5F7DE416DD17DD16DD17CD1DFE8DCE037E04ED4DFD0C4
:205A0000FFEAF7E076D1DF811CC0DFE8BDE0AED4FFB0AFFFBFEFF9A1F6D1EEA3B5F7DEA135
:205A2000BEB6EDB1FDF1EDB1FCB1BFD7AFE8BCE0B7E09EB4DFB0EDEAF7E0EEB1AF819DC000
:205A4000AFE8BCE09EB4FF90AFFF9FEFF8A1EEB1EEA3B5F7DEA1BAB6EDB1FDB1EDB1FCB1FB
:205A6000BBB7AFE8BCE0B7E09EB4CFB0AFE8BCE0EFE0DEB4FFB0BDE1BFAEB5ACBDAEBD9EA4
:205A8000F6A1E9C1FBA1EBA1F3A1F2F8AEA19FA1B6A1B7A1B4F8CF81AFAEF1E0CFAEF1E069
:205AA000DFAEF1E8EFAEFFE3FFAEF3ADAEB4B7A2CFA1EBE8F3E09EB4BBA6FFEDBFAEB7AC74
:205AC000FD4EFDBEED41DDCCDBACEFCCFCCCAFCD5ECDBFCD3AE1EDE1FBA1EFA1FDA1DEB467
:205AE000B6A5B7E9B3E0F781A6E2D3B0ADB2A5F0E7F7CE81A7B69EB4DCE6EDA1FEA1BFA176
:205B0000BEE5F5D3D743F5D3D543D4D3C703DAD3AFA3BDA5BBA5EFA5FCA5B5D3ADA3B5B379
:205B2000ADA3EAD3AFA3FAB3AFA3E5B0BFA3F2B0B5A3AAD1B5A3BAD1B7A3E5B2ADA3F2B2D3
:205B4000ADA3AAF3AEA3BAB3AFA3E5E9CEAEE7E0DEAEAEB4E4E5CEA12EB4BBAAAEB4BBBDF0
:205B6000AEB4F3EDABE09EB4E5ED9EB4ADB5B2B1CEA5B4B1CFA5E5B1CEA5F9B1CFA59EB458
:205B8000F3B4FB81ADA1EAD1AEA3F2B1AFA3AAB1AEA3BAB1AFA3BFE9B9E9E6EFF9E4DEB49C
:205BA000B9B3EDA3FBA3AFA3BCA3E9B1ADA3F2B1ADA3A8B1AFA3BAB1AFA3B6E6B6E6EEEA45
:205BC000FBE49EB4BBB3EDA3FEA3AFA3BBA7A5D1ADA3BAB1ADA3B2B1AEA3B4B1AFA3ADA701
:205BE000BBA7BFA7BCA7BDB7BEB7BFF2B5E09FB6FAB4BEBF9FBEFDBFEDB7FEB7B7B6BF81AC
:205C0000DDE9FBE0D6E2FBA1AFD0FDA1DBA18DD2DDA1D5F0D5F7DE41ABD6DFE3CEE3DE4156
:205C2000D7D6DFE3CEE3DE419DD6DBE7CAE75ED47BC3EDC57BC5CFC5DCC5FCA1DF415ED4B9
:205C4000D9D3B5D1DD4374D1CD8365D1CE4379D1DF435ED4DBD37B41CD81DF41DB41D0D3E1
:205C6000DD83D9D3DD43F2D3CEA3F4D3DF43EDF7FFF7FBD64FF6FAD4FEFF6FFEEDFF64D190
:205C8000CE8372D1CF83DAD1CEA3D9D1CF4374D1CC83F4D1CD436DD1CF83FAD1CF43F6E991
:205CA000CF6EF7E0DB6E6ED4E6654DD4F57D79D24D445DD4F17DC9E0C9D3DDC45DD4F17D67
:205CC000CFE45ED46B60CC635BF45ED4736DFEE8CF6EFBE0DB6EF6E96F6EF3E07F6EFF645E
:205CE000FBA4F741EF7DFD6FC9C15ED46760CC63EFF1F7E0FF366FF44ED47723DF216DD3F8
:205D0000FFB3CFD3DDD3BBD7D5E9DBE09ED4D7E5BDC0AED4F7A3F341B5C1B5C1EBC17BC1A5
:205D20009ED4DBD3DE416DD37DD3CDD3DCD35BD7E9D1D6A372D1D743DAD1CE83D9D1CF43CB
:205D400072D1CD8374D1DD43EDD1DF837AD1CF43E5D0CD83F1D0DD43AAD1DE835AD1DF43BF
:205D6000E4E9DEAEE7E0DE6E5ED4E5E55DD4F35CF5BCE6E0F1E0CE4EDFDE6E4E7F7EF6E08B
:205D8000FF56F3C45DF0FDCF5DD4F17DCDE44ED46BA0DCA35BF44DD47DBDDED477635ED47A
:205DA000DBD46D77734559F45DD45EF86F7773455DF0CDC06FF677A5BBF45DD4ED7C6E769E
:205DC0007345F6F56F757345DDF45BC76B757345DCF46F7171454DF47FC1647273457EF412
:205DE0006D7173C55DF473C16FB173455BF04DD4F17D9AC76F727345DDF4DEC16D75734552
:205E000095F02E94F33DEFC66F3573252DF47BC76E3573257EF46F3573252DF4F6C6673555
:205E2000732519F01C94F53DF7C66C3571251DF467C76736732519F01D94F53D1D94DE3CC0
:205E40006D3671252DF46CC36E367105EFF46F3671051DF43BC26F3671057CF466367105F6
:205E600019F41C94173D6E36712519F01C94F53DDFC16E3671251DF47FE6EBF6710519F03C
:205E80001C94FF3D99C66777712519F41C9416376E3771057CF4663771251DF4EFC167371C
:205EA000732519F01C94F57D1C947F37673771451DF4ECB419386F7771055FF01C945D3873
:205EC0006737712519F04C94F53D1C941E373BE06E3272471DF44C941F3B73E06F727347C1
:205EE0001CF06CC06C3C710519F44C9436396D3C7125FFF46F3C71051DF41C9489386F7C30
:205F0000FB057EF46C3871252DF4B6C16E3B73253BF01D94F53DEFC46F3C712519F41D943C
:205F2000F7386F3C710519F01C94FD3D1C9419396C3D710519F41C94DF396D3D71256FF485
:205F40006D3C710539F41C947E396E3C732539F01D94F53D2D94B779673E71051DF44C9443
:205F60001C3A8BE06D32780719F42D94673A6D3D710559F01C94F53D1C94E9399DE0673999
:205F80007B0719F41C94DE7BB9E06B397B073FF5B1E065397B071DF41C947C3BFDE0E57912
:205FA0007F076CF4FFE0EFF27F471DF40C94197B667971601DF0CCB4FF3D1C94793B33E040
:205FC000673973071DF44C948E3B6679716019F01D94F53D1C94DF7BB7E0E67F7F471DF474
:205FE0004C94FFFBB9E0E7FF7B076CF4F1E06E3F7B2739F43D94FA3B657F71601DF01C94A1
:20600000FB7D4EB4FB3BF7E06BB57F4735F45ED4957CB3E0773E772739F45ED45F3D6F7FD8
:2060200075E039F05ED4F33D5ED44B3C77D876D86FD86BD85ED4F37D5FF6F9D46AD1D74C7E
:2060400074D1D7ACD5D1CD6CB5B1AFAC2FFE6AD3FF2375D3FAA3CAB3FB43DAD3DB4374D19C
:20606000DB4379D1FE436AD1FF437AD1DE43635B772BD6ABDF2B7DEE7BE06AE07AE0AED4B7
:206080006FD8F36EE76EDEAED76EDDF7DEF7ADD7AFF6F9D4DEFF5FFEDDFF5FF71EF70F7F84
:2060A0001F6FDE41D5D6FDF7FEF7BBD6DDD3AED359D7DFE9DFE0F8A1DBC3D7C36B6FF7AFD5
:2060C000D6AFDF6F7DE375E06AE07AE05ED46FD8DAA13FD67CD37ED35ED76F6D7E2DDD6DE5
:2060E000DC6D7DE375E0EAE07AE0AED4EFD8F8A177C3EEC35ED4FE4DEDEFF3E0EED1DF41A6
:206100002FB77EB76A5FBFEF9FF6F9D4BEFF4FBEBFBF9AE0CFE8BDE0AEB4FF30AFFF3FEF08
:20612000F861F6B1F7A3F5F7DFE8DDE0FE217F7C7F6F5ED4DF54DFE8DDE06FE02ED47FB0E4
:20614000D2D1BDA6CDA339F4AED4F33D38D2BDA6CAD1F7A39A6FB9E0A94F959F9B5BBE4F77
:20616000FAA1FFD17CD1DD2777FDD5D5DC6F5ED4AFD532B1FD427AB1FEA26591FF427AD1D5
:20618000E242AED4FBD6BD96BEF02EB4F37DF941B982B9C2AED4F37DC3E55ED47720DDA362
:2061A000B9F44ED4F33D2ED477635ED4FBD47B41CE81FF21CAE55ED47360CC237DF0F7FCD5
:2061C0005FE0FFEFEF36F344ADF076F45ED477634ED4DBD47B2153E0EE64EF94FE6CEFE273
:2061E000F3E0D581DBC1DE55DF4559F40ED4F37D3BD677E0ED75F347F5F778E1EB56F34423
:2062000029F4F1D2FF43D5D2F64395C0F7FEABC05ED4F5BDCE6DAED4FBCAEEADF2E0AEAC9A
:206220001ED4EFCACEADF6A15ED4EDCD5ED4F3BDDDE6DAE0AED4C1A3CD63B9F0AED4F3BD65
:20624000EBE5AEB4EBA0ADA3F9F0AEB4F7A3B5D1DEA3A7AFB9E0AB8F195FA5FB1E6FAED4F5
:20626000DBD4DAA1EDD3FCF3AED4BEF5ADD4F3BDAED4FCBAAED4F3BDABE5AED4EBA0CDA368
:20628000BBF4AFD4F3BDAED477A3AED4DBD4F6B3FBABEAD3FBABAED4F3BDADE6DAE0AED49C
:2062A000C923ADA3BBF0ADB4F3BDE6E9F7E0EED1CFA1ACC0CFE8BCE02ED4FFB0AFFFBFEF45
:2062C000F9A1EED1EEA3B5F7E4F1DEA3F2E0EE8FFFBFEEAFFFBFEFFAF6EFEAC1FBC1EBC189
:2062E000F7C1CFE8BCE0B5E0AE94DFB0E5E9F7E0EEB1AFA1ADC0CFE8BCE0AED45F50AFFFFA
:206300003F4FFAC176D1F763FBF7EAD1DEA3F2E0EE8FFFBFE5FBF6EFFAC1F5C18D67F7FD3A
:20632000AAD5DCAFAED49FD5FFA1FCA1DFE8BDE0B5E0AED4DFD0EDE8F7E0EEF1AFA1ADC0AE
:20634000CFE8BCE0AEB4FFB0AFFFBFEFF9A1EED1F6A3F5F7E9D1FBABFAD1FDABF1D1FDAB62
:20636000F5D1FEAB8FE8BCE0B5E0AED4DFB0EFE8F7E0EED1AFA1ADC0CFE8BCE0AED4FFB047
:20638000AFFFBFEFF9A1EED1F623F5F76AD1FBABF5D1FBABCDA7F7FDAAD5BAAFAED4AFD5A0
:2063A000BFA1BCA1CFE8FDE035E0AED4DFF0E7E8F7E0EED1AFA1ACC0DFE8BDE0AED4FFB070
:2063C000AFFFBFEFF9A1EED1EEA3B5F7AFE8BCE0E8E0FAE0EAE0F6E0AED4D4D0E7E8F7E08A
:2063E00076D1DFA1ADC0AFE8BDE0AEB4FFB0AFFFBFEFF8A1EEF1EEA3B5F7E8D1FFABFAB105
:20640000578BF6B1D72B74B17DABEAE8DDE075E04ED4DFD0E7E8F7E06ED1DF415DE0DFE8E6
:20642000DCE05ED47F505F7F5F6FF94176D16E63F5F76AD16F4B75D17A2BDC2777FDD5D5B4
:20644000DA6F5ED45FD5FF41FC41DFE8DCE071E04ED4DFD0EEE7F7E076D1DF415CE0DFE855
:20646000DDE05ED47F505F7F5F6FF9416ED16E63F5F7D2D1DE43DAE04ED4DD74FD416E6778
:206480007FFD6AD5766FDFE8DCE05ED4D5D0EDE7F7E06ED1DF012DC0DFE8DCE02ED47F50F7
:2064A0005F7F5F6FF8416ED16E63F5F7DFEFDFEF4ED4DF74FD416E677FFD6AD5766FDFE870
:2064C000DCE05ED4D5D0DFE8DCE06DE873E02ED4DF54DFE8DCE06FE05ED47F505DD47F7EC8
:2064E000DDE6DAE04ED4D163DD635BF05DD4F37D35B2BDA6CBE54EB4F7A0CCA3DDF05ED49C
:206500007FA3A9B1FE232EAFB5E024AF353F695B35CF2ED4FBD4D8A17DD37CD3D7E0D4D316
:20652000CF225FE0D7E55ED46B60DD23DDF05ED4776332D1DE43576F19E0542F595F2D5BF3
:206540003E6F0ED4DBD4F94175C36AC358D2DF42D7E55ED46B60DD637BF05ED477636AD366
:20656000FD4275D3FE42D2D3FF42DAD3D562D3E45ED46B20DD637BF05ED477636AD3FB42E5
:2065800074D3FB42D5D3FB42DAD3BD22D7E45ED46B60DD236DF05ED477636AD3E16275D31D
:2065A000E322D2D3D742DAD3D642D1E0D5D35E465ED4DE755FF6F9D4D2D0D74CDAD0D34C21
:2065C000F5D0D62CF5D0D74C4FFE74D1DE232B6F5AE07AD2DC232A4F5B1FF941EB7BF66F62
:2065E0006AC175C1DD6777FDD5D5DC2F5ED45FD5554F5B5F5F7A5E6FDA417DD17DD16DD16E
:20660000DED14EB479B65DB6BDF4ABE0A0B3DC435AB2B643CD64CFB4DC6C7641E6E7F7E07D
:20662000FEB0E7E7F7E06EB0EEE6F7E076905EC16F6D56E75FE05DC0BFE89CE05E947F50C0
:20664000DF7F5F6FFA416EB16E63B7F7E2B1DE43F1E0EE4FFF5FEE4FFF5FEF7AF66F6581C6
:2066600079816F8173819FE8BCE03BE06EB4CFB06E6D4BE75FE04DC09FE89CE06E947F7010
:206680004F7F7F6FFA416E916E63B3F764B1DE4379E06E677FFD6DB5766F9FE89CE04EB49D
:2066A000CAB06F6DDEE67FE06CC09FE89CE02E947F504F7F5F6FFA616EB16E63B7F7F7FC19
:2066C00073C04FB6FA9472B1974C75B1974C69B1964C79B1974C4FBEC741B6416C777C6E03
:2066E0009F6F9F6F6F5B734BA64BBF4B7CEE77E065E079E04E946F989FE89CE0BB41BD41B6
:2067000067E0AEB471B04FC0AFE8BCE06EE873E08EB4AF54AFE89CE06FE04EB47F505FB637
:20672000F8B4A0B0AB4CBAB0B74CB4B0A64CB5B0B74C5FBE5EB4E7795EB4F166FFEFCF5630
:20674000FFEFDF46FFEFEF46FFEFFF465DF07BC0AAB1DD43E5B1DE43ADA375F1F2E0AF419E
:2067600050AF5B5F944F5B5F5F7A5E6FEE4FFF7FE37BF66F69A173819D6777FD92B59A6FD9
:206780005EB44D9572E036E065E87FE36E9499B39B41BC41DB416D917D919D919C912E9482
:2067A000799697FF79C06BC0F1E09F41D54F595F544F5B5F5F7A5E6FEE4FFF3FE37BF66F02
:2067C00069A173819C6777FD92959A6F5EB44D9574E076E064E87FE32E949B939B41BC41FF
:2067E000FA61648171A197A19B812EB46F947A56BEF57CC0F7FC3BC0E291DE43F1E09F411C
:20680000C38F757F496F555F4B5A95EFEEAFFFBFEB7BF6EF60C1F5C1CC6777FDD5D5DDAF43
:206820009ED4AFD5DB41FE81DAA1EDD1FDD1DDD1DCD18ED4DBD3AED4DBD4DFFFAFC0DAD528
:20684000D5D5F5D5EBD5FFEFDFEFDF6FEEB0F5A5D585DBA57DF08FF6F8D4D5D0D7ACDAD058
:20686000D7ACE8D0D6ACF2D0D78CAFFED4D1F6A3DDA3BBF0AED4F6BDFFEFDFB6FFEFDB0699
:20688000FFEFEFA6FFEFFB46F5F0F7FE57C05DD4F6BD5FF6F8D4D5D1D7ACDAD1D7ACF5D133
:2068A000D68CF5D1D78C9FFEDEB9DDA9DDF8DBE1BAF0AED4F6BD8FF6F9D4D5D1D7ACDAD1FD
:2068C000D7ACF4D1D60CF5D1D7ACAFFEDD99DBA9FF89FBA9DDFEDBE0F5E0F5E0ADF0FCCECB
:2068E000BDCFD7E59ED4EBA0DDA3EBF05ED4F7A3AED4DBD4F5D3FBABF2D3FBABD3E0D5D3C7
:206900009B823FE0CAE59ED47760DCA3FBF0AED47723AED4DBD4F5B37B4BF5B3F94B99D2C7
:20692000CF02AFF6F9D4EAD0CB0CF0B0C34C94F1CE4C99D1D70CBFFEB9D2F6A3BAD2DDA3FB
