:2000000035C04DC04CC04BC04AC049C0F0C147C046C045C044C043C042C041C040C03FC0E8
:200020003EC03DC03CC0003A370031003B38003200393600300404010104040404040202C1
:2000400002020202020201010202010408102040010204081020408004000000000000000E
:2000600002000000010304000000000011241FBECFEDCDBF10E0A0E6B0E0EEE6F7E002C0A9
:2000800005900D92A236B107D9F710E0A2E6B0E001C01D92AA37B107E1F751D366C3B0CF17
:2000A00082E061E0DDD2089582E060E0D9D2089583E061E0D5D2089583E060E0D1D208959C
:2000C0006AE070E080E090E0DBD188E060E0C8D2089588E061E0C4D208956EEF7FEF33D37E
:2000E000BC0161507F4F8BE043D2089587E060E07BD284E060E078D285E061E075D285E073
:2001000060E0AED286E061E06FD286E060E0A8D289E061E069D289E060E0A2D282E061E072
:2001200063D283E061E060D28BE061E05DD28CE061E05AD286E061E057D288E060E090D226
:200140008CE060E08DD2B4DFABDF80E090E0C5DF089581E090E090936A008093690084E622
:2001600090E0BBDFA9DFA0DFB4DF0895CF93DF93C0E0D0E080E090E0B0DF68EC70E080E0B7
:2001800090E07ED184E690E0A8DF68EC70E080E090E076D12196C330D10561F7DF91CF91DC
:2001A000089510926A0010926900E0DF81DF78DF87DF80E090E091DF08956AE070E080E0D8
:2001C00090E05ED1809164008093650084E082D210926400892B19F081E08093640080912F
:2001E00062008093630087E075D210926200892B19F081E0809362008091660080936700F1
:2002000086E068D210926600892B19F081E0809366008091690090916A00892BD1F0809114
:20022000640090916500882349F0992391F482E090E090936A00809369000BC0992349F014
:2002400081E090E090936A008093690084E690E044DF80916200882309F447C08091630031
:20026000882341F410926C0010926B0081E0809368003BC0809168008823B9F180916B0062
:2002800090916C00019690936C0080936B00873991055CF1109268002091690030916A003B
:2002A0002115310511F455DF20C0C9010197029710F477DF1AC023303105B9F489E061E0AA
:2002C000CFD186E060E0CCD164E670E080E090E0D7D089E060E0C4D184E690E0FEDE81E0D5
:2002E00090E090936A0080936900809162008823B1F580916300882391F180916B00909183
:200300006C00863991055CF5109268008091690090916A00009719F18130910561F485E01A
:2003200061E09ED164E670E080E090E0A9D085E060E096D114C08230910531F486E061E036
:200340008FD183E090E007C0039749F486E060E087D182E090E090936A00809369008091E2
:20036000690090916A0083309105F1F480916D0090916E0044971CF480E090E002C084E667
:2003800090E0ABDE80916D0090916E008832910529F410926E0010926D0008950196909374
:2003A0006E0080936D000895029701F580916F009091700092DE209160003091610080915E
:2003C0006F0090917000820F931F9093700080936F008436910511F0892B41F4882799271C
:2003E000821B930B909361008093600008951F920F920FB60F9211242F933F938F939F9359
:20040000AF93BF938091750090917600A0917700B091780030917900232F2A5F2D3728F039
:200420002D570396A11DB11D03C00296A11DB11D209379008093750090937600A093770035
:20044000B09378008091710090917200A0917300B09174000196A11DB11D809371009093A9
:200460007200A0937300B0937400BF91AF919F918F913F912F910F900FBE0F901F901895D6
:200480009B01AC017FB7F8948091710090917200A0917300B091740062B708B601FE05C048
:2004A0006F3F19F00196A11DB11D7FBFBA2FA92F982F8827860F911DA11DB11D63E0880F44
:2004C000991FAA1FBB1F6A95D1F7BC012EC0FFB7F8948091710090917200A0917300B09113
:2004E0007400E2B708B601FE05C0EF3F19F00196A11DB11DFFBFBA2FA92F982F88278E0F81
:20050000911DA11DB11DE3E0880F991FAA1FBB1FEA95D1F7861B970B885E9340C0F2215086
:2005200030404040504068517C4F211531054105510569F60895789480B7836080BF83B714
:20054000877F83BF83B7887F826083BF89B7826089BF8EB5887F8EBD8FB58C7F81608FBD73
:200560008EB5877E8EBD8EB5887F82608EBD08951F93CF93DF93182FEB0161E035D01C16A3
:200580001D0644F5CF3FD10544F51B3031F480B78F73806880BFC6BF23C0173031F480B707
:2005A0008F7C806280BFCCBF1BC01C3039F48FB58F7380688FBDDBBDCABD12C01D3039F44B
:2005C0008FB58F7C80628FBDD9BDC8BD09C0C038D1051CF4812F60E002C0812F61E040D029
:2005E000DF91CF911F910895282F30E0C901895B9F4FFC0144912B5C3F4FF901849188233A
:2006000071F1282F30E0F901EA5DFF4FE491AE2FB0E0255D3F4FF9018491E82FF0E0662311
:2006200051F42FB7F8948C91942F909589238C93808189230BC0623061F42FB7F8948C9145
:20064000942F909589238C938081842B80832FBF08959FB7F8948C91842B8C939FBF0895E1
:20066000282F482F50E0CA01895B9F4FFC0134914B5C5F4FFA019491992359F12B3019F43A
:2006800080B78F7304C0273021F480B78F7C80BF0AC02C3019F48FB58F7304C02D3019F4C9
:2006A0008FB58F7C8FBDE92FF0E0E55DFF4FE491F0E0662341F49FB7F894808130958323D6
:2006C00080839FBF08959FB7F8948081832B80839FBF0895282F482F50E0CA01895B9F4FF2
:2006E000FC0194914B5C5F4FFA013491332319F420E030E022C02B3019F480B78F7304C009
:20070000273021F480B78F7C80BF0AC02C3019F48FB58F7304C02D3019F48FB58F7C8FBDAA
:20072000E32FF0E0E05DFF4FE491F0E0808120E030E0892311F021E030E0C9010895FBDEF8
:20074000D5DC3BDDFECF5527002480FF02C0060E571F660F771F6115710521F09695879549
:10076000009799F7952F802D0895F894FFCF0100F9
:00000001FF
