:100000000C94D00A0C94FB0A0C94FB0A0C94FB0A87
:100010000C94FB0A0C94FB0A0C94FB0A0C94FB0A4C
:100020000C94FB0A0C94FB0A0C941E8F0C94988D74
:100030000C94FB0A0C94FB0A0C94FB0A0C94FB0A2C
:100040000C94FB0A0C94DC6C0C94FB0A0C94FB0AD9
:100050000C94FB0A0C94FB0A0C94B8750C94618CFC
:100060000C94FB0A0C94FB0A0C94FB0A0C94FB0AFC
:100070000C94FB0A0C94FB0A0C94FB0A0C94FB0AEC
:100080000C94FB0A0C94FB0A0C94FB0A0C94FB0ADC
:100090000C9450870C94FB0A084AD73B3BCE016E68
:1000A00084BCBFFDC12F3D6C74319ABD56833DDACF
:1000B0003D00C77F11BED9E4BB4C3E916BAAAABEDE
:1000C000000000803F05A84CCDB2D44EB93836A907
:1000D000020C50B9918688083CA6AAAA2ABE000044
:1000E00000803F6563686F3A0048617264636F64C3
:1000F00065642044656661756C7420536574746929
:100100006E6773204C6F616465640053746F726531
:10011000642073657474696E6773207265747269A4
:1001200065766564002044002049002020204D337E
:1001300030312050005049442073657474696E67F3
:10014000733A00205A0020590020204D32303620CA
:100150005800486F6D65206F666673657420286D62
:100160006D293A00204500205A0020580020420006
:1001700020540020204D32303520530041647661F8
:100180006E636564207661726961626C65733A20A2
:10019000533D4D696E206665656472617465202803
:1001A0006D6D2F73292C20543D4D696E2074726142
:1001B00076656C20666565647261746520286D6D76
:1001C0002F73292C20423D6D696E696D756D20730A
:1001D00065676D656E742074696D6520286D73297F
:1001E0002C20583D6D6178696D756D205859206AD5
:1001F00065726B20286D6D2F73292C20205A3D6D60
:100200006178696D756D205A206A65726B20286D62
:100210006D2F73292C2020453D6D6178696D756DBA
:100220002045206A65726B20286D6D2F7329002090
:10023000540020204D323034205300416363656CFC
:1002400065726174696F6E3A20533D616363656CDA
:1002500065726174696F6E2C20543D7265747261B1
:10026000637420616363656C65726174696F6E00AD
:10027000204500205A0020590020204D32303120E6
:1002800058004D6178696D756D20416363656C65DB
:10029000726174696F6E20286D6D2F7332293A0078
:1002A000204500205A0020590020204D32303320B4
:1002B00058004D6178696D756D2066656564726181
:1002C00074657320286D6D2F73293A002045002036
:1002D0005A0020590020204D3932205800537465AF
:1002E00070732070657220756E69743A005365747E
:1002F00074696E67732053746F7265640065636818
:100300006F3A004572726F723A005072696E74658E
:10031000722073746F707065642064756520746FEB
:10032000206572726F72732E20466978207468653A
:10033000206572726F7220616E6420757365204D46
:1003400039393920746F20726573746172742E208C
:100350002854656D706572617475726520697320CB
:1003600072657365742E205365742069742061660C
:100370007465722072657374617274696E672900A6
:100380005072696E7465722068616C7465642E20A9
:100390006B696C6C28292063616C6C656421006F4B
:1003A0006B00526573656E643A20002200556E6BD7
:1003B0006E6F776E20636F6D6D616E643A20220000
:1003C0005072696E74657220706F776572696E67BE
:1003D000206F66662E2E2E005072696E7420656E38
:1003E000646564005072696E742073746172746520
:1003F00064003A20005A204F6666736574007A5F85
:100400006D61783A200020007A5F6D696E3A2000B5
:1004100020005A204F66667365740046696C616DF2
:10042000656E742064696120286D656173757265FD
:1004300064206D6D293A0046696C616D656E7420AB
:1004400064696120286E6F6D696E616C206D6D2925
:100450003A007A5F6D696E3A2000795F6D61783A93
:100460002000785F6D61783A2000205A3A002059C8
:100470003A0020436F756E7420583A200020453AA8
:1004800000205A3A0020593A00583A004649524D45
:10049000574152455F4E414D453A4D61726C696E10
:1004A0002056313B20537072696E7465722F6772EB
:1004B000626C206D6173687570204D414348494EF0
:1004C000455F545950453A536F6C69646F6F646C63
:1004D000655F5072657373204558545255444552B8
:1004E0005F434F554E543A31204649524D57415281
:1004F000455F56455253494F4E3A4D617220313255
:10050000203230313531343A31363A3337204649AA
:10051000524D574152455F55524C3A687474703A87
:100520002F2F737570706F72742E736F6C69646F98
:100530006F646C652E636F6D2F68632F656E2D750C
:10054000732F61727469636C65732F323032363782
:10055000383238302D536F6C69646F6F646C652D61
:100560004D6F74686572626F6172642D4765726267
:100570006572732D616E642D4669726D7761726567
:100580002D536F757263652D46696C65730A002083
:10059000423A0020453A00543A0020573A0020459C
:1005A0003A00543A002042403A0020403A00202FBE
:1005B000003A00205400202F0020423A00202F0053
:1005C0006F6B20543A002569206D696E2C202569D7
:1005D000207365630020643A200020623A200045C1
:1005E000716E20636F656666696369656E74733AE0
:1005F00020613A2000486F6D6520582F59206265B0
:10060000666F7265205A00486F6D6520582F59201B
:100610006265666F7265205A000101FF00004B435E
:1006200000004843000048430000A0400000A040F4
:100630000000803F00004B430000484300000000E2
:1006400000000000000000000000000000004B431C
:1006500000004843000048430A00207A3A20002066
:10066000793A200020783A2000426564005072698F
:100670006E7465722073746F707065642064756544
:1006800020746F206572726F72732E204669782015
:10069000746865206572726F7220616E6420757374
:1006A00065204D39393920746F2072657374617219
:1006B000742E202854656D706572617475726520A2
:1006C00069732072657365742E2053657420697494
:1006D0002061667465722072657374617274696EEC
:1006E0006729006F6B004E6F204C696E65204E7558
:1006F0006D626572207769746820636865636B73E7
:10070000756D2C204C617374204C696E653A200025
:100710004E6F20436865636B73756D2077697468ED
:10072000206C696E65206E756D6265722C204C615F
:100730007374204C696E653A2000636865636B735F
:10074000756D206D69736D617463682C204C6173E5
:1007500074204C696E653A20004C696E65204E75B8
:100760006D626572206973206E6F74204C617374C2
:10077000204C696E65204E756D6265722B312C20A0
:100780004C617374204C696E653A20004D313130F4
:100790000053445031303300534450313032005311
:1007A000445031303100534450313030002020501B
:1007B0006C616E6E657242756666657242797465CB
:1007C000733A20002046726565204D656D6F727921
:1007D0003A200031343A31363A33370020004D6147
:1007E00072203132203230313500436F6D70696CC8
:1007F00065643A20004D6163477976657258202D13
:10080000204D4F44444544204D41585F50494420B9
:100810002D2042414E475F4D415800207C204175BC
:1008200074686F723A20004D61722031322032308C
:10083000313531343A31363A333700204C617374F4
:1008400020557064617465643A2000312E302E307A
:10085000004D61726C696E0020536F66747761722F
:100860006520526573657400205761746368646F16
:1008700067205265736574002042726F776E206F37
:100880007574205265736574002045787465726EC6
:10089000616C20526573657400506F776572557096
:1008A000007374617274002200656E717565696E03
:1008B000672022002200656E717565696E672022CF
:1008C000006563686F3A0020746F6F206C6F6E670D
:1008D00020657874727573696F6E207072657665C5
:1008E0006E7465640020636F6C6420657874727543
:1008F00073696F6E2070726576656E74656400450D
:10090000303A20005A3A2000593A2000583A200044
:100910004D53312C4D53322050696E730A0024F42C
:1009200004D9201BC40C5C0E9804C4095F0265073F
:100930007101F405F900FB04B30048048700C1030A
:1009400069005803550003034500BE023A008402C3
:10095000310053022A002902250004022000E4018C
:100960001C00C8011900AF01170098011400840190
:100970001300710110006101100051010E004301CC
:100980000D0036010B002B010B0020010B0015019F
:1009900009000C01090003010800FB000800F30036
:1009A0000800EB000700E4000600DE000600D800A7
:1009B0000600D2000600CC000500C7000500C200FA
:1009C0000500BD000400B9000400B5000400B1003A
:1009D0000400AD000400A9000400A5000300A2006B
:1009E00003009F0004009B00030098000300950093
:1009F000020093000300900003008D0002008B00B2
:100A000003008800020086000200840003008100C9
:100A100002007F0002007D0002007B0002007900DE
:100A200002007700010076000200740002007200EC
:100A30000100710002006F0002006D0001006C00F7
:100A400002006A0001006900020067000100660000
:100A50000100650001006400020062000100610005
:100A60000100600001005F0002005D0001005C0009
:100A700001005B0001005A0001005900010058000C
:100A8000010057000100560001005500010054000C
:100A9000010053000000530001005200010051000A
:100AA0000100500001004F0001004E0000004E0008
:100AB00001004D0001004C0001004B0000004B0004
:100AC00001004A0001004900010048000000480000
:100AD00001004700010046000000460001004500FB
:100AE00000004500010044000100430000004300F5
:100AF00001004200000042000100410000004100EE
:100B00000100400001003F0000003F0001003E00E6
:100B100000003E0001003D0000003D0001003C00DF
:100B200000003C0000003C0001003B0000003B00D6
:100B300001003A0000003A000100390000003900CD
:100B400001003800000038000000380001003700C4
:100B500000003700010036000000360000003600BB
:100B600001003500000035000000350001003400B0
:100B700000003400000034000100330000003300A6
:100B8000000033000100320000003200000032009B
:100B90000100310000003100000031000100300090
:100BA000000030000000300001002F0000002F0086
:100BB00000002F0000002F0001002E0000002E007A
:100BC00000002E0001002D0000002D0000002D006F
:100BD00000002D0001002C0000002C0000002C0063
:100BE00000002C0001002B0000002B0000002B0057
:100BF00000002B0001002A0000002A0000002A004B
:100C000000002A000100290000002900000029003E
:100C10000000290000002900010028000000280031
:100C20000000280000002800000028000100270024
:100C30000000270000002700000027000000270018
:100C4000010026000000260000002600000026000B
:100C500000002600010025000000250000002500FE
:100C600000002500000025000000250001002400F0
:100C700000002400000024000000240000002400E4
:100C800001002300000023000000230000002300D7
:100C900000002300000023000000230001002200C8
:100CA00000002200000022000000220000002200BC
:100CB00000002200010021000000210000002100AE
:100CC00000002100000021000000210000002100A0
:100CD0000100200000002000000020000000200093
:100CE0000000200000002000000020000000200084
:100CF00001001F0000001F0000001F0000001F0077
:100D000000001F0000001F0000001F0001001E0067
:100D100000001E0000001E0000001E00000024F461
:100D2000D43050C38E20C2A24017828B7011127A29
:100D3000910D816CD90AA861E108C7586607615115
:100D400043061E4B5D05C145A7041A411104093D28
:100D50009803713931034036DB0265339102D43098
:100D60005402802E1D02632CEE01752AC501B028A5
:100D7000A001102781018F2564012B244B01E02263
:100D80003401AC211F018D200D01801FFC00841E49
:100D9000ED00971DDF00B81CD200E61BC600201B2B
:100DA000BC00641AB200B219A8000A19A0006A189F
:100DB0009900D117910040178B00B51684003116A9
:100DC0007E00B31579003A157300C7146F005814EC
:100DD0006A00EE1366008813630025135E00C712D5
:100DE0005B006C12570015125400C11151007011B4
:100DF0004F0021114B00D61049008D1047004610BE
:100E0000440002104200C00F4000800F3E00420F1D
:100E10003C00060F3B00CB0E3800930E37005C0EF3
:100E20003500270E3400F30D3200C10D3100900D56
:100E30003000600D2E00320D2D00050D2C00D90C58
:100E40002B00AE0C2900850C29005C0C2700350C0A
:100E500027000E0C2600E80B2400C40B2400A00B76
:100E600023007D0B23005A0B2100390B2100180BA6
:100E70002000F80A1F00D90A1E00BB0A1E009D0AA6
:100E80001D00800A1D00630A1C00470A1B002C0A73
:100E90001B00110A1A00F7091A00DD091900C4091C
:100EA0001900AB091900920917007B0918006309A2
:100EB00017004C09160036091600200916000A0909
:100EC0001500F5081500E0081400CC081400B80857
:100ED0001400A4081400900813007D0812006B0889
:100EE00013005808120046081200340811002308A5
:100EF00011001208110001081100F0071000E007AE
:100F00001000D0071000C0071000B0070F00A107A5
:100F1000100091070E0083070F0074070F0065078C
:100F20000E0057070E0049070E003B070D002E0765
:100F30000E0020070D0013070D0006070D00F9062F
:100F40000C00ED060D00E0060C00D4060C00C806EF
:100F50000C00BC060C00B0060C00A4060B009906A1
:100F60000C008D060B0082060B0077060B006C064A
:100F70000B0061060A0057060B004C060A004206E9
:100F80000A0038060A002E060A0024060A001A067D
:100F90000A001006090007060A00FD050900F4050D
:100FA0000900EB050900E2050900D9050900D00593
:100FB0000900C7050900BE050900B5050800AD0513
:100FC0000800A50509009C050800940508008C058B
:100FD0000800840508007C050800740508006C05FD
:100FE0000700650508005D050700560508004E0569
:100FF00007004705070040050800380507003105D0
:1010000007002A050700230507001C050600160532
:1010100007000F0507000805060002050700FB048E
:101020000600F5040700EE040600E8040600E204EA
:101030000700DB040600D5040600CF040600C9043F
:101040000600C3040600BD040600B7040600B10490
:101050000500AC040600A6040600A00405009B04DD
:10106000060095040500900406008A040500850426
:101070000500800406007A0405007504050070046C
:1010800005006B04050066040500610405005C04AE
:10109000050057040500520405004D0405004804EE
:1010A0000500430405003E0404003A04050035042D
:1010B0000500300404002C04050027040400230468
:1010C00005001E0404001A0404001604050011049F
:1010D00004000D04040009040500040404000004D5
:1010E0000400FC030400F8030400F4030400F0030C
:1010F0000400EC030400E8030400E4030400E0033C
:101100000400DC030400D8030400D4030400D0036B
:101110000400CC030400C8030300C5030300656397
:10112000686F3A00205A3A0020593A0020583A0095
:10113000656E6473746F7073206869743A2000453B
:1011400072726F723A0054656D7065726174757277
:1011500065206865617465642062656420737769E1
:101160007463686564206F66662E204D415854454F
:101170004D50207472696767657265642021210093
:101180003A20457874727564657220737769746368
:10119000686564206F66662E204D494E54454D505B
:1011A000207472696767657265642021003A204582
:1011B00078747275646572207377697463686564A6
:1011C000206F66662E204D415854454D5020747254
:1011D00069676765726564202100546865726D6196
:1011E0006C2052756E617761792C20737973746508
:1011F0006D2073746F70706564212048656174653B
:10120000725F49443A2000202D20496E76616C6956
:1012100064206578747275646572206E756D6265A0
:101220007220210070012C0190012701B0012201E0
:10123000C0011D01F00118011002130130020E015E
:101240006002090190020401C002FF000003FA00DD
:101250004003F5008003F000D003EB002004E6001B
:101260007004E100E004DC004005D700C005D200B6
:101270004006CD00D006C8008007C3003008BE007D
:10128000F008B900C009B400B00AAF00B00BAA0062
:10129000D00CA500000EA000500F9B00C0109600BF
:1012A0005012910000148C00C0158700B017820006
:1012B000B0197D00D01B7800001E730040206E0026
:1012C00090226900F024640040275F0090295A00B2
:1012D000E02B5500102E500020304B0010324600FD
:1012E000E033410090353C00103737007038320051
:1012F000A0392D00B03A2800A03B2300603C1E001E
:10130000103D1900903D1400103E0F00703E0A0081
:10131000C03E0500003F0000504944204175746FF5
:1013200074756E652066696E697368656421205006
:10133000757420746865206C617374204B702C2068
:101340004B6920616E64204B6420636F6E7374611F
:101350006E74732066726F6D2061626F76652069AE
:101360006E746F20436F6E66696775726174696F22
:101370006E2E6800504944204175746F74756E6517
:10138000206661696C6564212074696D656F757490
:101390000020403A006F6B20543A006F6B20423AB5
:1013A00000504944204175746F74756E6520666104
:1013B000696C6564212054656D7065726174757225
:1013C0006520746F6F206869676800204B643A205D
:1013D00000204B693A2000204B703A200020436CDB
:1013E00061737369632050494420002054753A208A
:1013F00000204B753A2000206D61783A2000206D66
:10140000696E3A200020643A200020626961733AD4
:1014100020000A0020000A00207A3A200020793AB1
:10142000200020783A2000012902290429082910E7
:1014300029202940298029012C022C01260226047A
:101440002608261026202640268026402C802C01A7
:101450002302230423082310232023402380230175
:10146000200220042008201020202040208020106E
:101470002C202C012F022F042F082F102F202F405B
:101480002F802F7EFE7EFD7EFB7EF77EEF7EDF7E51
:10149000BF7E7F00010000C7141200020000D914B3
:1014A00043000300001C1504010309042015180261
:1014B0000309043A15160303090452150C0001C16F
:1014C000020180360181361201000202000020C0B4
:1014D0001683040001010203010902430002010016
:1014E000C0320904000001020201000524001001BD
:1014F0000524010001042402060524060001070555
:10150000820308004009040100020A0000000705E8
:1015100003024000000705840240000004030904A0
:1015200018035400650065006E00730079006400C4
:10153000750069006E006F0000001603550053002F
:1015400042002000530065007200690061006C00D9
:1015500000000C033100320033003400350000007D
:10156000494E46494E4954594E414ECDCCCC3D0A88
:10157000D7233C17B7D13877CC2B329595E6241F6B
:10158000B14F0A000020410000C84200401C462024
:10159000BCBE4CCA1B0E5AAEC59D7400C1866F926C
:1015A00011241FBECFEFD0E2DEBFCDBF13E0A0E01D
:1015B000B1E0E0E7F0E301E00BBF02C007900D925D
:1015C000AE37B107D9F71BBE1CE0AEE7B3E001C0F0
:1015D0001D92A839B107E1F715E1C0EAD5E104C0D1
:1015E0002297FE010E94F097CC39D107C9F70E94DB
:1015F0009C8F0C9436980C940000A0E0B0E0E3E0DF
:10160000FBE00C940598EC015B016115710519F084
:10161000FB0191838083F9908F2D90E00E94F497D5
:10162000892BC9F7FDE2FF1621F4F990EE24E3942B
:1016300005C02BE2F21609F4F990EE248E01015058
:101640001040C80160E675E143E050E062D2892BAA
:10165000F9F48E010E5F1F4FC80163E675E145E0A6
:1016600050E057D2892B19F48E01095F1F4FA11446
:10167000B10419F0F50111830083E0FC04C070E0AF
:1016800090E080E813C070E090E080E86FEF07C161
:10169000C80168E675E143E050E03BD2892B69F46C
:1016A000A114B10429F470E090E080EC6FE7F7C07A
:1016B0002296F501D183C083F6CF8824992440E097
:1016C00050E060E070E0EF2DE053EA30A0F5F2E08A
:1016D000EF2A8E2D90E09C0128703070E2FE06C04B
:1016E000232B79F50894811C911C2BC0232B19F016
:1016F000089481089108DB01CA0112E0880F991F44
:10170000AA1FBB1F1A95D1F7480F591F6A1F7B1FCD
:10171000440F551F661F771F4E0F511D611D711D10
:10172000483929E9520729E9620729E1720748F097
:1017300084E0E82A06C0EE3F31F4E3FC39C098E0CB
:10174000E92AF990C0CFE53311F0E53189F5299107
:101750002D3219F4E0E1EE2A05C02B3219F081E0B8
:1017600090E003C0299182E090E0E22FE053EA305C
:1017700018F0C81BD90B1CC020E030E0FCE020387A
:101780003F075CF4C901880F991F880F991F280F24
:10179000391F220F331F2E0F311DE991E053EA301C
:1017A00068F3E4FE03C0309521953F4F820E931EEF
:1017B000CE2CDD24E1FE07C0A114B10421F0219755
:1017C000F501D183C083CB01BA010E9459947B01FA
:1017D0008C01F3E0CF22DD2423E0C216D10421F4F2
:1017E00017FB109517F9109557016801C801B7014B
:1017F00020E030E040E050E00E94B993882309F4F3
:101800004AC097FE0DC02FE7E22E25E1F22E9094FC
:10181000819491089394C0E2D0E000E010E012C0FF
:1018200097E9E92E95E1F92EF6CFF701259135914B
:1018300045915491C601B5010E9499965B016C01D6
:101840008C1A9D0A8C169D0684F7D595C7950F5F57
:101850001F4F0630110529F08CEF9FEFE80EF91E9F
:10186000F1CFC501D6017C018D018C2D880F8D2D06
:10187000881F8F3F51F0C601B50120E030E040E005
:1018800050E00E94B993882331F482E290E0909373
:10189000970C8093960C7E2D9F2D802F612F272FE4
:1018A000392F482F562FB901CA01CDB7DEB7ECE06A
:1018B0000C9421982F923F925F926F927F928F9219
:1018C0009F92AF92BF92CF92DF92EF92FF920F93CF
:1018D0001F93CF93DF938C011B01EA016115710502
:1018E00019F0FB0191838083209749F0CE01029784
:1018F000839728F020E030E040E050E0F6C0F801A7
:10190000A1908F018A2D90E00E94F497892BB9F75E
:10191000FDE2AF1631F4F801A1908F0155245394E4
:1019200007C0FBE2AF1619F4F801A1908F0155240E
:10193000209719F0C031D105C1F4F0E3AF1679F466
:10194000F8018081883711F0883549F4F801A180C9
:101950000E5F1F4FF2E05F2AC0E1D0E006C0209783
:1019600021F480E3A816E9F427C0C830D10531F18D
:10197000C930D10524F4C230D10531F50CC0CA30CC
:10198000D10589F0C031D105F9F4C12CD12CE12C5D
:10199000B8E0FB2E28C0C12CD12CE12CA0E4FA2EFB
:1019A00022C0CAE0D0E0FCECCF2EFCECDF2EFCEC39
:1019B000EF2EFCE0FF2E17C0C8E0D0E0C12CD12CE8
:1019C000E12CE0E1FE2E0FC09E01442737FD40953B
:1019D000542F60E070E080E090E80E94B197C90168
:1019E000DA016C017D0120E030E040E050E060E091
:1019F0003E01882477FC8094982C70EDB72EBA0CA9
:101A0000E9E0EB1570F48A2D81548A3118F499ECD1
:101A1000B92E06C08A2D81568A3150F589EAB82E32
:101A2000BA0C8B2D90E08C179D0714F56F3FE1F0F9
:101A3000C216D306E406F506B0F0CA01B901A40146
:101A400093010E946B979B01AC012B0D311D411D31
:101A5000511D2130F0E03F07F0E04F07F0E85F074D
:101A600010F461E001C06FEFF801A1908F01C5CFC4
:101A70002114310481F0662331F001501040F1014E
:101A80001183008308C051FE1AC002501040F101BA
:101A90001183008314C067FF12C050FC05C02FEFF4
:101AA0003FEF4FEF5FE704C020E030E040E050E858
:101AB00082E290E09093970C8093960C16C050FEB3
:101AC00008C050954095309521953F4F4F4F5F4F3F
:101AD0000CC057FF0AC082E290E09093970C80936D
:101AE000960C2FEF3FEF4FEF5FE7B901CA01DF918F
:101AF000CF911F910F91FF90EF90DF90CF90BF900B
:101B0000AF909F908F907F906F905F903F902F90BD
:101B10000895FB01DC014150504088F08D918134E3
:101B20001CF08B350CF4805E659161341CF06B35D4
:101B30000CF4605E861B611171F3990B0895881B8C
:101B4000FCCFFB0155915523A9F0BF01DC014D915C
:101B500045174111E1F759F4CD010590002049F0F6
:101B60004D9140154111C9F3FB014111EFCF81E0C7
:101B700090E001970895FC018191861721F0882358
:101B8000D9F7992708953197CF010895FB01DC011A
:101B90008D91019080190110D9F3990B0895FB01E3
:101BA000DC014150504030F08D910190801919F4C2
:101BB0000020B9F7881B990B0895AEE0B0E0E3EE82
:101BC000FDE00C940D980D891E898EE08C831A839C
:101BD00009838FEF9FE79E838D839E01275E3F4F92
:101BE000CE0101966F89788DA9010AD02F813885A1
:101BF000020F131FF80110822E96E4E00C9429982E
:101C0000ABE0B0E0E6E0FEE00C94FF973C012B0176
:101C10005A01FC0117821682838181FD03C06FEF98
:101C20007FEFB9C19AE0892E1E010894211C311C56
:101C3000F3012381F20123FD859123FF81912F017F
:101C4000882309F4A5C1853239F423FD859123FF4A
:101C500081912F01853221F490E0B301B7D1E8CF13
:101C6000982FFF24EE249924FFE1FF15D0F09B323A
:101C700069F09C3228F4903259F0933291F40EC0FE
:101C80009D3249F0903369F441E024C052E0F52AD6
:101C900084E0F82A28C098E0F92A25C0E0E1FE2A6D
:101CA00022C0F7FC29C0892F80538A3070F4F6FED9
:101CB00005C0989C902C1124980E15C0E89CE02C2F
:101CC0001124E80EF0E2FF2A0EC09E3229F4F6FC41
:101CD0005FC140E4F42A07C09C3619F450E8F52AA5
:101CE00002C0983649F4F20123FD959123FF9191AA
:101CF0002F01992309F0B8CF892F8554833018F02C
:101D00008052833038F444E050E0A40EB51E5FE307
:101D100059830FC0933631F0933779F0933509F03A
:101D200052C01FC0F5018081898342E050E0A40EBB
:101D3000B51E610101E010E011C0F501C080D18045
:101D4000F6FC03C06FEF7FEF02C0692D70E042E048
:101D500050E0A40EB51EC6012ED18C015FE7F5221E
:101D600013C0F501C080D180F6FC03C06FEF7FEF98
:101D700002C0692D70E042E050E0A40EB51EC6011D
:101D80000FD18C0150E8F52AF3FE06C018C080E29E
:101D900090E0B3011BD1EA948E2D90E0081719074B
:101DA000B0F30DC0F601F7FC8591F7FE81916F014C
:101DB00090E0B3010BD1E110EA94015010400115FD
:101DC000110581F7E2C0943611F0993661F5F7FEFE
:101DD00008C0F501208131814281538184E090E087
:101DE0000AC0F501808191819C01442737FD40950F
:101DF000542F82E090E0A80EB91E9FE6F92257FF0B
:101E000009C050954095309521953F4F4F4F5F4FFA
:101E1000E0E8FE2ACA01B901A1012AE030E002D1BE
:101E2000D82ED2183FC0953729F41F2D1F7E2AE0E7
:101E300030E01DC01F2D197F9F3661F0903720F4D0
:101E4000983509F0A5C00FC0903739F0983709F0E0
:101E50009FC004C028E030E00AC0106114FD146087
:101E600020E130E004C014FD166020E132E017FFED
:101E700008C0F501608171818281938144E050E066
:101E800008C0F50180819181BC0180E090E042E0D2
:101E900050E0A40EB51EA101C5D0D82ED2188FE7F0
:101EA000F82EF122F6FE0BC05EEFF522D91438F4BD
:101EB000F4FE07C0F2FC05C08FEEF82202C01D2D13
:101EC00001C0192DF4FE0DC0FE01ED0DF11D808144
:101ED000803319F499EEF92208C01F5FF2FE05C0A5
:101EE00003C08F2D867809F01F5F0F2DF3FC13C000
:101EF000F0FE0EC01E1510F09D2C0AC09D2C9E0CED
:101F0000911A1E2D05C080E290E0B3015FD01F5FE3
:101F10001E15C8F304C01E1510F4E11A01C0EE240A
:101F200004FF0EC080E390E0B30150D002FF1BC05D
:101F300001FD03C088E790E00EC088E590E00BC08B
:101F4000802F867881F001FF02C08BE201C080E221
:101F5000F7FC8DE290E0B30139D005C080E390E05A
:101F6000B30134D09A94D914C8F3DA94F101ED0D89
:101F7000F11D808190E0B30129D0DD20B1F705C0CB
:101F800080E290E0B30122D0EA94EE20C9F750CE6F
:101F9000F30166817781CB012B96E2E10C941B98CB
:101FA000FC010590615070400110D8F78095909524
:101FB0008E0F9F1F0895FC01615070400190011029
:101FC000D8F7809590958E0F9F1F08950F931F93BC
:101FD000CF93DF938C01EB018B8181FF1BC082FFCC
:101FE0000DC02E813F818C819D812817390764F4B3
:101FF000E881F9810193F983E88306C0E885F985D2
:10200000802F0995892B31F48E819F8101969F83C2
:102010008E8302C00FEF1FEFC801DF91CF911F9198
:102020000F910895FA01AA27283051F1203181F14A
:10203000E8946F936E7F6E5F7F4F8F4F9F4FAF4FD0
:10204000B1E03ED0B4E03CD0670F781F891F9A1FE3
:10205000A11D680F791F8A1F911DA11D6A0F711D97
:10206000811D911DA11D20D009F468943F912AE0A3
:10207000269F11243019305D3193DEF6CF0108958B
:10208000462F4770405D4193B3E00FD0C9F7F6CFBC
:10209000462F4F70405D4A3318F0495D31FD405284
:1020A000419302D0A9F7EACFB4E0A695979587951A
:1020B00077956795BA95C9F70097610571050895F9
:1020C0009B01AC010A2E06945795479537952795A5
:1020D000BA95C9F7620F731F841F951FA01D08953D
:1020E000DF93CF930F92CDB7DEB7FC016983A08158
:1020F000B18112962D913C911397BE016F5F7F4F76
:1021000041E050E0F90109950F90CF91DF910895DA
:102110000F931F93DF93CF93CDB7DEB766970FB6BC
:10212000F894DEBF0FBECDBF8091000190910101F8
:10213000A0910201B09103018F87988BA98BBA8B74
:10214000FE013F9644E650E08081F999FECF1FBA28
:1021500052BD41BD80BD0FB6F894FA9AF99A0FBEF0
:102160004F5F5F4F4836510511F03196EDCFECEBE4
:10217000F5E08081F999FECF1FBA52BD41BD80BD07
:102180000FB6F894FA9AF99A0FBE4F5F5F4F48372F
:10219000510511F03196EDCFECEAF5E08081F99927
:1021A000FECF1FBA52BD41BD80BD0FB6F894FA9A5A
:1021B000F99A0FBE4F5F5F4F4838510511F03196C5
:1021C000EDCFECECF5E08081F999FECF1FBA52BD5E
:1021D00041BD80BD0FB6F894FA9AF99A0FBE4F5FD1
:1021E0005F4F4839510511F03196EDCFE0EEF5E043
:1021F0008081F999FECF1FBA52BD41BD80BD0FB697
:10220000F894FA9AF99A0FBE4F5F5F4F4C39510517
:1022100011F03196EDCFE4EEF5E08081F999FECF33
:102220001FBA52BD41BD80BD0FB6F894FA9AF99A13
:102230000FBE4F5F5F4F403A510511F03196EDCF21
:10224000ECEDF5E08081F999FECF1FBA52BD41BD9A
:1022500080BD0FB6F894FA9AF99A0FBE4F5F5F4FA0
:10226000443A510511F03196EDCFE4EFF5E080816D
:10227000F999FECF1FBA52BD41BD80BD0FB6F8948B
:10228000FA9AF99A0FBE4F5F5F4F483A510511F025
:102290003196EDCFE8EAF5E08081F999FECF1FBADB
:1022A00052BD41BD80BD0FB6F894FA9AF99A0FBE9F
:1022B0004F5F5F4F4C3A510511F03196EDCFE8EE8C
:1022C000F5E08081F999FECF1FBA52BD41BD80BDB6
:1022D0000FB6F894FA9AF99A0FBE4F5F5F4F403BE2
:1022E000510511F03196EDCFECEEF5E08081F999D2
:1022F000FECF1FBA52BD41BD80BD0FB6F894FA9A09
:10230000F99A0FBE4F5F5F4F443B510511F0319674
:10231000EDCFE0EFF5E08081F999FECF1FBA52BD15
:1023200041BD80BD0FB6F894FA9AF99A0FBE4F5F7F
:102330005F4F483B510511F03196EDCFE4E9F3E0F2
:102340008081F999FECF1FBA52BD41BD80BD0FB645
:10235000F894FA9AF99A0FBE4F5F5F4F443C5105CB
:1023600011F03196EDCF84EB90E09A83898386E477
:1023700090E09C838B832FEF30E03E832D8380EFB2
:1023800090E098878F8384E690E09A8789873C87DE
:102390002B87FE0131968081F999FECF1FBA52BD7D
:1023A00041BD80BD0FB6F894FA9AF99A0FBE4F5FFF
:1023B0005F4F463C510571F7FE0133968081F999D4
:1023C000FECF1FBA52BD41BD80BD0FB6F894FA9A38
:1023D000F99A0FBE4F5F5F4F483C510511F031969F
:1023E000EDCFFE0135968081F999FECF1FBA52BD1F
:1023F00041BD80BD0FB6F894FA9AF99A0FBE4F5FAF
:102400005F4F4A3C510511F03196EDCFFE013796F2
:102410008081F999FECF1FBA52BD41BD80BD0FB674
:10242000F894FA9AF99A0FBE4F5F5F4F4C3C5105F2
:1024300011F03196EDCFFE0139968081F999FECFEA
:102440001FBA52BD41BD80BD0FB6F894FA9AF99AF1
:102450000FBE4F5F5F4F4E3C510511F03196EDCFEF
:10246000FE013B968081F999FECF1FBA52BD41BD56
:1024700080BD0FB6F894FA9AF99A0FBE4F5F5F4F7E
:10248000403D510511F03196EDCFEFEAF3E0808148
:10249000F999FECF1FBA52BD41BD80BD0FB6F89469
:1024A000FA9AF99A0FBE4F5F5F4F443D510511F004
:1024B0003196EDCFEEECF2E08081F999FECF1FBAB4
:1024C00052BD41BD80BD0FB6F894FA9AF99A0FBE7D
:1024D0004F5F5F4F483D510511F03196EDCFE2ED72
:1024E000F2E08081F999FECF1FBA52BD41BD80BD97
:1024F0000FB6F894FA9AF99A0FBE4F5F5F4F4C3DB2
:10250000510511F03196EDCFE6EDF2E08081F999B9
:10251000FECF1FBA52BD41BD80BD0FB6F894FA9AE6
:10252000F99A0FBE4F5F5F4F403E510511F0319653
:10253000EDCF80E290E09E878D87FE013D96808101
:10254000F999FECF1FBA52BD41BD80BD0FB6F894B8
:10255000FA9AF99A0FBE413E510521F0319641EEAB
:1025600050E0EDCF8091040190910501A09106010A
:10257000B09107018B8B9C8BAD8BBE8BFE0173964C
:1025800084E690E02081F999FECF1FBA92BD81BD0B
:1025900020BD0FB6F894FA9AF99A0FBE87369105C6
:1025A00019F001963196EECFE3EEF0E064918F01E1
:1025B00007C08AE89CE094DD0F5F1F4FF80164912B
:1025C0006623B9F7EDEEF2E064918F0107C08AE867
:1025D0009CE086DD0F5F1F4FF80164916623B9F719
:1025E0008AE89CE06AE07CDD66960FB6F894DEBF70
:1025F0000FBECDBFCF91DF911F910F9108950F9323
:102600001F93DF93CF93CDB7DEB7E0970FB6F89463
:10261000DEBF0FBECDBFDE011196E1E1F3E080E148
:1026200001900D928150E1F7DE015196E1E0F3E077
:1026300080E101900D928150E1F7DE019196E1EF8A
:10264000F2E080E101900D928150E1F789819A8159
:10265000AB81BC818093BC059093BD05A093BE0562
:10266000B093BF0589899A89AB89BC898093AC05F1
:102670009093AD05A093AE05B093AF0589A19AA143
:10268000ABA1BCA18093CC059093CD05A093CE05C2
:10269000B093CF058D819E81AF81B8858093C005B1
:1026A0009093C105A093C205B093C3058D899E89FF
:1026B000AF89B88D8093B0059093B105A093B20512
:1026C000B093B3058DA19EA1AFA1B8A58093D0050D
:1026D0009093D105A093D205B093D30589859A85AF
:1026E000AB85BC858093C4059093C505A093C605B2
:1026F000B093C705898D9A8DAB8DBC8D8093B40541
:102700009093B505A093B605B093B70589A59AA592
:10271000ABA5BCA58093D4059093D505A093D60511
:10272000B093D7058D859E85AF85B8898093C80500
:102730009093C905A093CA05B093CB058D8D9E8D4E
:10274000AF8DB8A18093B8059093B905A093BA0551
:10275000B093BB058DA59EA5AFA5B8A98093D8055C
:102760009093D905A093DA05B093DB050E942D451F
:1027700080E090E8ABE3B5E48093E0059093E10559
:10278000A093E205B093E3058093E4059093E505FB
:10279000A093E605B093E70520E030E040E050E08C
:1027A0002093DC053093DD054093DE055093DF0573
:1027B00080E29EE4A0E0B0E08093A8059093A90594
:1027C000A093AA05B093AB052093F4053093F505CB
:1027D0004093F6055093F70580E090E0A0EAB1E45D
:1027E0008093E8059093E905A093EA05B093EB0583
:1027F0008DEC9CECACECBEE38093EC059093ED0586
:10280000A093EE05B093EF0580E090E0A0EAB0E47D
:102810008093F0059093F105A093F205B093F30532
:1028200020939C0330939D0340939E0350939F03FA
:10283000209398033093990340939A0350939B03FA
:1028400020939403309395034093960350939703FA
:102850008DEC9CECACE4B0E48093AF039093B003B8
:10286000A093B103B093B20380E090E0A0E5B1E49F
:102870008093CE029093CF02A093D002B093D10266
:1028800063E373E383E39FE30E94F5746093D202F2
:102890007093D3028093D4029093D50260E070E0ED
:1028A00088E792E40E9401756093D6027093D70284
:1028B0008093D8029093D9020E94C67380E090E082
:1028C000A0E8BFE38093DA029093DB02A093DC02DE
:1028D000B093DD02E3EEF0E064918F0107C08AE877
:1028E0009CE0FEDB0F5F1F4FF80164916623B9F790
:1028F000E9EEF0E064918F0107C08AE89CE0F0DB2C
:102900000F5F1F4FF80164916623B9F78AE89CE0D6
:102910006AE0E6DBE0960FB6F894DEBF0FBECDBFEF
:10292000CF91DF911F910F910895CF93DF93DB013A
:102930000D900020E9F71197A61BB70BEC01E88179
:10294000F9810280F381E02DAD010995DF91CF91EE
:1029500008950F931F93CF93DF9303EE10E0F801D8
:102960006491E80106C08AE89CE0BADB2196FE018A
:1029700064916623C1F7EDEDF2E06491EF0106C0CA
:102980008AE89CE0ADDB2196FE0164916623C1F7E5
:102990008AE89CE06AE0A4DBF8016491C3EED0E031
:1029A00006C08AE89CE09CDB2196FE0164916623C8
:1029B000C1F74091BC055091BD056091BE05709175
:1029C000BF0585ED92E00E9414234091C00550910F
:1029D000C1056091C2057091C30582ED92E00E942D
:1029E00014234091C4055091C5056091C6057091AE
:1029F000C7058FEC92E00E9414234091C8055091C6
:102A0000C9056091CA057091CB058CEC92E00E94DB
:102A100014238AE89CE068E071E087DF8AE89CE0A4
:102A20006AE05EDBF8016491C3EED0E006C08AE89C
:102A30009CE056DB2196FE0164916623C1F7E2EB30
:102A4000F2E06491EF0106C08AE89CE049DB219640
:102A5000FE0164916623C1F78AE89CE06AE040DBEE
:102A6000F8016491C3EED0E006C08AE89CE038DB50
:102A70002196FE0164916623C1F74091AC05509107
:102A8000AD056091AE057091AF0589EA92E00E94B4
:102A900014234091B0055091B1056091B205709139
:102AA000B30586EA92E00E9414234091B405509148
:102AB000B5056091B6057091B70583EA92E00E9472
:102AC00014234091B8055091B9056091BA057091F1
:102AD000BB0580EA92E00E9414238AE89CE068E04B
:102AE00071E023DF8AE89CE06AE0FADAF801649199
:102AF000C3EED0E006C08AE89CE0F2DA2196FE013F
:102B000064916623C1F7E2E8F2E06491EF0106C048
:102B10008AE89CE0E5DA2196FE0164916623C1F71C
:102B20008AE89CE06AE0DCDAF8016491C3EED0E068
:102B300006C08AE89CE0D4DA2196FE0164916623FF
:102B4000C1F74091CC055091CD056091CE057091B3
:102B5000CF0589E792E047D44091D0055091D10547
:102B60006091D2057091D30586E792E03CD4409104
:102B7000D4055091D5056091D6057091D70583E7AE
:102B800092E031D44091D8055091D9056091DA0591
:102B90007091DB0580E792E026D48AE89CE068E04B
:102BA00071E0C3DE8AE89CE06AE09ADAF801649199
:102BB000C3EED0E006C08AE89CE092DA2196FE01DE
:102BC00064916623C1F7EBE3F2E06491EF0106C084
:102BD0008AE89CE085DA2196FE0164916623C1F7BC
:102BE0008AE89CE06AE07CDAF8016491C3EED0E008
:102BF00006C08AE89CE074DA2196FE01649166239F
:102C0000C1F74091E0055091E1056091E2057091B6
:102C1000E30582E392E00E9414234091E405509181
:102C2000E5056091E6057091E7058FE292E00E946C
:102C300014238AE89CE068E071E077DE8AE89CE093
:102C40006AE04EDAF8016491C3EED0E006C08AE88B
:102C50009CE046DA2196FE0164916623C1F7ECE719
:102C6000F1E06491EF0106C08AE89CE039DA219630
:102C7000FE0164916623C1F78AE89CE06AE030DADD
:102C8000F8016491C3EED0E006C08AE89CE028DA3F
:102C90002196FE0164916623C1F74091DC055091B5
:102CA000DD056091DE057091DF0583E791E00E940C
:102CB00014234091F4055091F5056091F60570914B
:102CC000F70580E791E00E9414234091A8055091F8
:102CD000A9056091AA057091AB058DE691E083D3BB
:102CE0004091E8055091E9056091EA057091EB0586
:102CF0008AE691E00E9414234091EC055091ED0585
:102D00006091EE057091EF0587E691E00E94142333
:102D10004091F0055091F1056091F2057091F30535
:102D200084E691E00E9414238AE89CE068E071E068
:102D3000FCDD8AE89CE06AE0D3D9F8016491C3EE37
:102D4000D0E006C08AE89CE0CBD92196FE016491D0
:102D50006623C1F7E2E5F1E06491EF0106C08AE87D
:102D60009CE0BED92196FE0164916623C1F78AE8F2
:102D70009CE06AE0B5D9F8016491C3EED0E006C0EA
:102D80008AE89CE0ADD92196FE0164916623C1F7E3
:102D9000409194035091950360919603709197032D
:102DA00089E491E00E941423409198035091990383
:102DB00060919A0370919B0386E491E00E94142332
:102DC00040919C0350919D0360919E0370919F03DD
:102DD00083E491E00E9414238AE89CE068E071E0BB
:102DE000A4DD8AE89CE06AE07BD9F8016491C3EE37
:102DF000D0E006C08AE89CE073D92196FE01649178
:102E00006623C1F7E5E3F1E06491EF0106C08AE8CB
:102E10009CE066D92196FE0164916623C1F78AE899
:102E20009CE06AE05DD9F8016491C3EED0E006C091
:102E30008AE89CE055D92196FE0164916623C1F78A
:102E40004091CE025091CF026091D0027091D10298
:102E50008BE291E00E9414236091D2027091D30220
:102E60008091D4029091D5020E94FB74AB01BC0109
:102E700088E291E00E9414236091D6027091D702FB
:102E80008091D8029091D9020E940775AB01BC01D4
:102E900085E291E00E9414238AE89CE068E071E0FA
:102EA00044DD8AE89CE06AE01BD9DF91CF911F9155
:102EB0000F9108950F931F93DF93CF93CDB7DEB794
:102EC00066970FB6F894DEBF0FBECDBF80910401A8
:102ED00090910501A0910601B09107018B8B9C8B0D
:102EE000AD8BBE8BFE013F9604E610E0F999FECF54
:102EF00012BD01BDF89A80B580830F5F1F4F083661
:102F0000110511F03196F2CFCE014396BE01615FFB
:102F10007F4F43E050E00E94CF0D009709F096C12B
:102F2000ECEBF5E0F999FECF12BD01BDF89A80B542
:102F300080830F5F1F4F0837110511F03196F2CFD4
:102F4000ECEAF5E0F999FECF12BD01BDF89A80B523
:102F500080830F5F1F4F0838110511F03196F2CFB3
:102F6000ECECF5E0F999FECF12BD01BDF89A80B501
:102F700080830F5F1F4F0839110511F03196F2CF92
:102F80000E942D45E0EEF5E0F999FECF12BD01BD9E
:102F9000F89A80B580830F5F1F4F0C39110511F02F
:102FA0003196F2CFE4EEF5E0F999FECF12BD01BD06
:102FB000F89A80B580830F5F1F4F003A110511F01A
:102FC0003196F2CFECEDF5E0F999FECF12BD01BDDF
:102FD000F89A80B580830F5F1F4F043A110511F0F6
:102FE0003196F2CFE4EFF5E0F999FECF12BD01BDC5
:102FF000F89A80B580830F5F1F4F083A110511F0D2
:103000003196F2CFE8EAF5E0F999FECF12BD01BDA5
:10301000F89A80B580830F5F1F4F0C3A110511F0AD
:103020003196F2CFE8EEF5E0F999FECF12BD01BD81
:10303000F89A80B580830F5F1F4F003B110511F098
:103040003196F2CFECEEF5E0F999FECF12BD01BD5D
:10305000F89A80B580830F5F1F4F043B110511F074
:103060003196F2CFE0EFF5E0F999FECF12BD01BD48
:10307000F89A80B580830F5F1F4F083B110511F050
:103080003196F2CFE4E9F3E0F999FECF12BD01BD2C
:10309000F89A80B580830F5F1F4F043C110511F033
:1030A0003196F2CFFE013196F999FECF12BD01BDE6
:1030B000F89A80B580830F5F1F4F063C110599F782
:1030C000FE013396F999FECF12BD01BDF89A80B585
:1030D00080830F5F1F4F083C110511F03196F2CF2E
:1030E000FE013596F999FECF12BD01BDF89A80B563
:1030F00080830F5F1F4F0A3C110511F03196F2CF0C
:10310000FE013796F999FECF12BD01BDF89A80B540
:1031100080830F5F1F4F0C3C110511F03196F2CFE9
:10312000FE013996F999FECF12BD01BDF89A80B51E
:1031300080830F5F1F4F0E3C110511F03196F2CFC7
:10314000FE013B96F999FECF12BD01BDF89A80B5FC
:1031500080830F5F1F4F003D110511F03196F2CFB4
:10316000EFEAF3E0F999FECF12BD01BDF89A80B500
:1031700080830F5F1F4F043D110511F03196F2CF90
:10318000EEECF2E0F999FECF12BD01BDF89A80B5E0
:1031900080830F5F1F4F083D110511F03196F2CF6C
:1031A000E2EDF2E0F999FECF12BD01BDF89A80B5CB
:1031B00080830F5F1F4F0C3D110511F03196F2CF48
:1031C000E6EDF2E0F999FECF12BD01BDF89A80B5A7
:1031D00080830F5F1F4F003E110511F03196F2CF33
:1031E000FE013D96F999FECF12BD01BDF89A80B55A
:1031F0008083013E110521F0319601EE10E0F2CFFF
:103200000E94C673E3EEF0E064918F0108C08AE883
:103210009CE00E9470100F5F1F4FF80164916623BD
:10322000B1F7EBE0F1E064918F0108C08AE89CE01F
:103230000E9470100F5F1F4FF80164916623B1F771
:103240008AE89CE06AE00E94701001C0D8D981DB56
:1032500066960FB6F894DEBF0FBECDBFCF91DF915B
:103260001F910F910895CF93DF930FB6F89480913B
:10327000820C9091830CA091840CB091850C0FBEB0
:103280008093E9039093EA03A093EB03B093EC03DC
:10329000EFE9F3E06491EF0107C08AE89CE00E9447
:1032A00070102196FE0164916623B9F78AE89CE0CC
:1032B0006AE00E947010DF91CF910895EF92FF9223
:1032C0000F931F93CF93DF93EC01E090A003F09056
:1032D000A1030091A2031091A303688179818A81DF
:1032E0009B81A80197010E94B993882324F4E88266
:1032F000F9820A831B83E090A403F090A503009158
:10330000A6031091A7036C817D818E819F81A80106
:1033100097010E94B993882324F4EC82FD820E83E6
:103320001F83E090A803F090A9030091AA031091D5
:10333000AB03688579858A859B85A80197010E94E2
:10334000B993882324F4E886F9860A871B87E090DE
:103350007302F090740200917502109176026881F8
:1033600079818A819B81A80197010E94C7951816CF
:1033700024F4E882F9820A831B83E0907702F090BC
:1033800078020091790210917A026C817D818E81A0
:103390009F81A80197010E94C795181624F4EC821A
:1033A000FD820E831F83E0907B02F0907C020091EF
:1033B0007D0210917E02688579858A859B85A801AA
:1033C00097010E94C795181624F4E886F9860A87A3
:1033D0001B87DF91CF911F910F91FF90EF90089580
:1033E0008091DB030895EF92FF920F931F93CF9389
:1033F000DF93EC017A018B01FC01649107C08AE83C
:103400009CE00E9470102196FE0164916623B9F73A
:103410008AE89CE0B801A70120E00E94BE8FDF91FE
:10342000CF911F910F91FF90EF900895CF93DF936D
:103430000E94E6748091DB03882309F034C081E0A8
:103440008093DB038091DF039091E003A091E1037F
:10345000B091E2038093E3039093E403A093E50328
:10346000B093E603E3E0F3E06491EF0107C08AE87C
:103470009CE00E9470102196FE0164916623B9F7CA
:10348000EAE0F3E06491EF0107C08AE89CE00E9463
:1034900070102196FE0164916623B9F78AE89CE0DA
:1034A0006AE00E947010DF91CF910895CF93DF936F
:1034B000F8940E94E674779A1092AC03769A109270
:1034C000AD03479A1092AE03439AE3E0F3E06491B0
:1034D000EF0107C08AE89CE00E9470102196FE016F
:1034E00064916623B9F7E0E8F3E06491EF0107C067
:1034F0008AE89CE00E9470102196FE016491662388
:10350000B9F78AE89CE06AE00E947010FFCF6F92E2
:103510007F928F929F92AF92BF92CF92DF92EF9263
:10352000FF920F931F93F82E6091F1037091F203B5
:103530008091F3039091F4032091F5033091F60309
:103540004091F7035091F8030E94D4953B014C0140
:1035500000D000D000D00DB71EB70F5F1F4F609195
:10356000690270916A02882777FD8095982F0E94E2
:103570005B9420919002309191024091920250917F
:1035800093020E94999620E030E040E752E40E94C6
:10359000C09320E030E048EC52E40E94C0935B010D
:1035A0006C01F8016082718282829382F482809140
:1035B000B303858384E893E06DEF73E041EF53E05C
:1035C00020E001E032E0E32E0E94E23F8091FD0323
:1035D0009091FE03A091FF03B091000480938403B7
:1035E00090938503A0938603B09387038091010491
:1035F00090910204A0910304B09104048093880385
:1036000090938903A0938A03B0938B038091050460
:1036100090910604A0910704B091080480938C0354
:1036200090938D03A0938E03B0938F038091090430
:1036300090910A04A0910B04B0910C048093900324
:1036400090939103A0939203B09393030FB6F894D1
:103650008091820C9091830CA091840CB091850C88
:103660000FBE8093E9039093EA03A093EB03B0931A
:10367000EC038DB79EB706960FB6F8949EBF0FBEAB
:103680008DBF1F910F91FF90EF90DF90CF90BF9073
:10369000AF909F908F907F906F9008954F925F9220
:1036A0006F927F928F929F92AF92BF92CF92DF9252
:1036B000EF92FF920F931F93DF93CF9300D000D030
:1036C000CDB7DEB78DEF93E0F9DD0FB6F8948091BA
:1036D000820C9091830CA091840CB091850C0FBE4C
:1036E0008093E9039093EA03A093EB03B093EC0378
:1036F0008091FD039091FE03A091FF03B09100041F
:1037000089839A83AB83BC83609184037091850322
:10371000809186039091870329813A814B815C8156
:103720000E94B993882309F09DC0409001045090F5
:103730000204609003047090040460918803709107
:10374000890380918A0390918B03A30192010E94C7
:10375000B993882309F086C000D0CDB6DEB60894B0
:10376000C11CD11CE0900504F090060400910704F0
:1037700010910804609190027091910280919202E0
:103780009091930220E030E040E752E40E94C09321
:103790004B015C0183EB93E0D6018D939C9369818F
:1037A0007A818B819C81A3019201E9E0CE2EE4E035
:1037B000DE2E0E94164B0F900F908091FD0390918A
:1037C000FE03A091FF03B0910004809384039093C3
:1037D0008503A0938603B0938703809101049091A1
:1037E0000204A0910304B091040480938803909391
:1037F0008903A0938A03B0938B0380910504909171
:103800000604A0910704B091080480938C03909360
:103810008D03A0938E03B0938F0380910904909140
:103820000A04A0910B04B0910C0480939003909330
:103830009103A0939203B09393030F900F900F9076
:103840000F90CF91DF911F910F91FF90EF90DF903C
:10385000CF90BF90AF909F908F907F906F905F9030
:103860004F90089500D0CDB6DEB60894C11CD11C8F
:10387000409001045090020460900304709004048E
:10388000E0900504F09006040091070410910804EC
:103890006091690270916A02882777FD8095982F60
:1038A0000E945B942091900230919102409192028B
:1038B000509193020E94999620E030E040E752E454
:1038C0000E94C09320E030E048EC52E40E94C09394
:1038D0004B015C0183EB93E0F601918380835FCF22
:1038E000CF93DF938AE89CE00E944491E2EAF3E000
:1038F0006491EF0107C08AE89CE00E947010219655
:10390000FE0164916623B9F74091DF035091E00313
:103910006091E1037091E2034F5F5F4F6F4F7F4F04
:103920008AE89CE00E941E908AE89CE06AE00E947F
:10393000701099DCDF91CF9108954F925F926F9252
:103940007F928F929F92AF92BF92CF92DF92EF922F
:10395000FF920F931F9340909002509091026090BD
:103960009202709093020F2EF0E0AF2EF0E0BF2E87
:10397000FAEFCF2EF5E4DF2EF02DA0929002B09258
:103980009102C0929202D09293026093840370934A
:103990008503809386039093870320938803309355
:1039A000890340938A0350938B03E0928C03F09237
:1039B0008D0300938E0310938F0300D0E3EBF3E0AD
:1039C000ADB7BEB71296FC93EE931197F0E9CF2EE8
:1039D000F3E0DF2E0F2EF5E58F2EF5E59F2EF5E0B7
:1039E000AF2EF3E4BF2EF02D0E94164B0F900F90D8
:1039F0000E94C46C40929002509291026092920296
:103A0000709293021F910F91FF90EF90DF90CF90F3
:103A1000BF90AF909F908F907F906F905F904F90EE
:103A20000895EF92FF920F931F9360918C03709112
:103A30008D0380918E0390918F0320E030E040E76A
:103A400051E40E94E0927B018C0160E070E080EA2A
:103A500090E420E030E04EE353E46FDFE0908C032D
:103A6000F0908D0300918E0310918F0360E070E061
:103A700080E090E020E030E04EE353E45EDFE09051
:103A80008C03F0908D0300918E0310918F0360E002
:103A900070E080E090E020E030E042E053E44DDF71
:103AA000E0908C03F0908D0300918E0310918F03B2
:103AB00060E070E080EA90E420E030E042E053E42F
:103AC0003CDF1F910F91FF90EF9008956F927F92CE
:103AD0008F929F92AF92BF92CF92DF92EF92FF921E
:103AE0000F931F9360918C0370918D0380918E03CF
:103AF00090918F0320E030E040E751E40E94E09293
:103B00007B018C0160E070E080EA90E420E030E02E
:103B100040EF51E412DFE0908C03F0908D030091B0
:103B20008E0310918F0360E070E080E090E020E071
:103B300030E040EF51E401DFE0908C03F0908D0322
:103B400000918E0310918F0360E070E080E090E0C0
:103B500020E030E04EEB52E4F0DE6091840370919F
:103B60008503809186039091870320E030E040EA4E
:103B700050E40E94E0923B014C01609188037091F7
:103B8000890380918A0390918B0320E030E040E02C
:103B900050E00E94E0925B016C0160918C03709197
:103BA0008D0380918E0390918F0320E030E040E000
:103BB00050E00E94E0927B018C01C401B301A60198
:103BC0009501BBDE1F910F91FF90EF90DF90CF909A
:103BD000BF90AF909F908F907F906F9008952F929D
:103BE0003F924F925F926F927F928F929F92AF928D
:103BF000BF92CF92DF92EF92FF920F931F93DF93CA
:103C0000CF93CDB7DEB76C970FB6F894DEBF0FBE7B
:103C1000CDBF9C8F8B8F8330910508F00BC2FC01C8
:103C2000E75EF94FB4901C01220C331C220C331CAC
:103C300091012C573C4F3E832D8380E090E0A0E023
:103C4000B0E0F90180839183A283B3836091840300
:103C5000709185038091860390918703209188035A
:103C60003091890340918A0350918B03E0908C033B
:103C7000F0908D0300918E0310918F03B0E9CB2E4D
:103C8000B3E0DB2E0E947545F101E45EF94FE5904B
:103C9000F590059114916B2D772767FD7095882716
:103CA00077FD8095982F0E945B9469837A838B833C
:103CB0009C83910123503C4F38872F83C801B70163
:103CC00020E030E040EC5FE30E94999629813A8140
:103CD0004B815C810E949996AF81B8856D937D93ED
:103CE0008D939C931397F101E75AFD4FFA87E9876B
:103CF00060817181828193816093900270939102BF
:103D0000809392029093930200D0CDB6DEB60894D1
:103D1000C11CD11C4090FD035090FE036090FF0336
:103D2000709000042091010430910204409103043A
:103D3000509104042B873C874D875E87E0900504F3
:103D4000F0900604009107041091080420E030E090
:103D500040E752E40E94C0934B015C01E3EBF3E0C7
:103D6000D601ED93FC93C301B2012B853C854D85B3
:103D70005E85A9E0CA2EA4E0DA2E0E94164B0F90B1
:103D80000F900E94C46C20E030E040E050E0AD8134
:103D9000BE812D933D934D935C9313976091840363
:103DA0007091850380918603909187032091880309
:103DB0003091890340918A0350918B03E0908C03EA
:103DC000F0908D0300918E0310918F03F0E9CF2EB8
:103DD000F3E0DF2E0E947545F101E85DF94F459053
:103DE000559065907490C301B201905829813A8131
:103DF0004B815C810E949996EF81F8856083718385
:103E00008283938300D0CDB6DEB60894C11CD11C4A
:103E10002091FD033091FE034091FF035091000477
:103E20002F87388B498B5A8B809101049091020423
:103E3000A0910304B09104048B8B9C8BAD8BBE8B43
:103E4000E0900504F0900604009107041091080426
:103E500060919002709191028091920290919302F0
:103E600020E030E040E752E40E94C0934B015C0147
:103E7000E3EBF3E0D601ED93FC936F8578898989B4
:103E80009A892B893C894D895E89E9E0CE2EE4E050
:103E9000DE2E0E94164B0F900F900E94C46CC3013F
:103EA000B201A30192010E94E09229813A814B81E3
:103EB0005C810E949996AF81B8856D937D938D93B7
:103EC0009C931397E985FA85608171818281938142
:103ED00020E030E040E05FE30E949996609390021A
:103EE00070939102809392029093930200D0CDB68A
:103EF000DEB60894C11CD11C4090FD035090FE0317
:103F00006090FF037090000420910104309102043E
:103F100040910304509104042F8B388F498F5A8F9E
:103F2000E0900504F0900604009107041091080445
:103F300020E030E040E752E40E94C0934B015C0176
:103F4000E3EBF3E0D601ED93FC93C301B2012F89BB
:103F5000388D498D5A8DB9E0CB2EB4E0DB2E0E940E
:103F6000164B0F900F900E94C46CF101EC5CF94F5E
:103F70006591759185919491F101EC56FC4FA0806B
:103F8000B180C280D380A60195010E94E0927B019E
:103F90008C01CB01D801ED81FE8180839183A283C6
:103FA000B383F101E05CF94F65917591859194912E
:103FB000A0EA8A2EA3E09A2E820C931CA6019501FA
:103FC0000E94E092D4016D937D938D939C931397FF
:103FD000F101E45BF94F6591759185919491E3E767
:103FE000F2E02E0E3F1EA60195010E94E092D10143
:103FF0006D937D938D939C931397C701D801EF81A7
:10400000F88580839183A283B38320E030E040E091
:1040100050E020939002309391024093920250938B
:1040200093020E94E66B4B8D5C8D44555C4F81E0A2
:10403000DA018C936C960FB6F894DEBF0FBECDBF3D
:10404000CF91DF911F910F91FF90EF90DF90CF9074
:10405000BF90AF909F908F907F906F905F904F90A8
:104060003F902F900895409118045091190420E634
:1040700030E0B901469F9001479F300D569F300DAB
:104080001124682F772767FD7095C901865E9B4FC5
:104090000E94BB0D9C01909317048093160480E04E
:1040A000232B09F081E008950FB6F8942091820C3B
:1040B0003091830C4091840C5091850C0FBE682F79
:1040C00070E014C00FB6F8948091820C9091830C2C
:1040D000A091840CB091850C0FBE821B930BA40B96
:1040E000B50B895E9340A040B04028F4FB010E94CC
:1040F0004F8BEE2339F70895CF93DF934D9B60C02C
:1041000085E090E0D1DFE6EAF7E06491EF0107C0D7
:104110008AE89CE00E9470102196FE01649166235B
:10412000B9F78AE89CE06AE00E94701053C087E00B
:1041300090E0BADFEFE9F7E06491EF0107C08AE8A9
:104140009CE00E9470102196FE0164916623B9F7ED
:104150008AE89CE06AE00E9470105C983BC0809105
:10416000DD03882389F5E8E9F7E06491EF0107C0F2
:104170008AE89CE00E9470102196FE0164916623FB
:10418000B9F78AE89CE06AE00E94701081E08093B1
:10419000DD0320C0E1E9F7E06491EF0107C08AE8A0
:1041A0009CE00E9470102196FE0164916623B9F78D
:1041B0008AE89CE06AE00E9470101092DD030AC059
:1041C0004F99B5CF4E99CBCF4E9904C08091DD0366
:1041D000882301F7DF91CF9108952F923F924F925C
:1041E0005F926F927F928F929F92AF92BF92CF9287
:1041F000DF92EF92FF920F931F93DF93CF93CDB790
:10420000DEB764970FB6F894DEBF0FBECDBF6D83E7
:104210007E838F83988729873A874B875C870E94A4
:10422000C46C6091840370918503809186039091A2
:104230008703209188033091890340918A0350912C
:104240008B037BDB6D817E818F8198852AE939E93B
:1042500046EF51E40E94E0925B016C0169857A852A
:104260008B859C8526E636E64EEA50E40E94E09275
:104270009B01AC01E0908C03F0908D0300918E03C4
:1042800010918F03C601B50158DB85E992E00E94C9
:104290001F8360916102709162028091630290912C
:1042A00064026093900270939102809392029093C3
:1042B000930200D0CDB6DEB60894C11CD11CE090AC
:1042C0008403F0908503009186031091870340904A
:1042D00088035090890360908A0370908B0320E0DC
:1042E00030E040E752E40E94C0934B015C01E3EBF5
:1042F000F3E0D601ED93FC93C801B701A30192014D
:104300000F2EF0E0EF2EF0E0FF2EF8E40F2FF3EC8D
:104310001F2FF02DA0E9CA2EA3E0DA2E0E94164B23
:104320000F900F900E94C46C82E00E94A56C4B011C
:104330005C01609184037091850380918603909164
:104340008703209188033091890340918A0350911B
:104350008B03850174010E94754520E336E0F90165
:1043600085919591A591B49189839A83AB83BC8300
:10437000C501B40129813A814B815C810E94E092A0
:104380006D877E878F87988B00D0CDB6DEB6089478
:10439000C11CD11CE0908403F0908503009186033A
:1043A00010918703409088035090890360908A039E
:1043B00070908B03609190027091910280919202B3
:1043C0009091930220E030E040E752E40E94C093D5
:1043D0004B015C01E3EBF3E0D601ED93FC93C801E4
:1043E000B701A3019201ED84FE840F851889F0E9DD
:1043F000CF2EF3E0DF2E0E94164B0F900F900E94FD
:10440000C46C60916102709162028091630290912C
:10441000640220E030E040E05FE30E9499965B0197
:104420006C0160939002709391028093920290933A
:10443000930200D02DB63EB60894211C311C40904A
:104440008403509085036090860370908703809169
:10445000880390918903A0918A03B0918B03898B83
:104460009A8BAB8BBC8B69817A818B819C8120E09C
:1044700030E040E050EC0E9499969B01AC016D85C4
:104480007E858F8598890E94E0927B018C01C60110
:10449000B50120E030E040E752E40E94C0934B01B8
:1044A0005C01E3EBF3E0D101ED93FC93C301B201B6
:1044B00029893A894B895C89E0E9CE2EE3E0DE2E3A
:1044C0000E94164B0F900F900E94C46C82E00E94D5
:1044D000A56C7B018C0160938C0370938D0380939A
:1044E0008E0390938F036091840370918503809174
:1044F000860390918703209188033091890340912E
:104500008A0350918B030E947545F0908C03E090D4
:104510008D03D0908E03C0908F03E9E6F6E064919E
:104520008F0108C08AE89CE00E9470100F5F1F4F47
:10453000F80164916623B1F7E4E6F6E064918F0137
:1045400008C08AE89CE00E9470100F5F1F4FF801BE
:1045500064916623B1F78AE89CE04D815E816F81AA
:10456000788522E00E942B90EFE5F6E064918F01C0
:1045700008C08AE89CE00E9470100F5F1F4FF8018E
:1045800064916623B1F78AE89CE049855A856B857A
:104590007C8522E00E942B90EAE5F6E064918F0191
:1045A00008C08AE89CE00E9470100F5F1F4FF8015E
:1045B00064916623B1F78AE89CE02F2D3E2DED2D06
:1045C000FC2DA901BF0122E00E942B90E8E5F6E056
:1045D00064918F0108C08AE89CE00E9470100F5F10
:1045E0001F4FF80164916623B1F72F2D3E2D4D2DFD
:1045F0005C2DB901CA0164960FB6F894DEBF0FBEF8
:10460000CDBFCF91DF911F910F91FF90EF90DF9081
:10461000CF90BF90AF909F908F907F906F905F9062
:104620004F903F902F900895EF92FF920F931F931A
:10463000CF93DF93EC017A018B01FC01649107C0F9
:104640008AE89CE00E9470102196FE016491662326
:10465000B9F78AE89CE0B801A70122E00E942B90FC
:10466000DF91CF911F910F91FF90EF90089580916E
:10467000160490911704019660E070E04AE050E063
:104680000C945A0C8091160490911704019660E0E6
:1046900070E00C94FD0A0F931F93CF93DF938C016E
:1046A0008091B3038093DE0384E5DDDC882309F485
:1046B00055C0E8DF0E942D946093DE03662309F461
:1046C0004DC0EDEFF2E06491EF0107C08AE89CE095
:1046D0000E9470102196FE0164916623B9F70D3691
:1046E0001105D9F00E3611053CF40836110559F0C4
:1046F0000936110511F50CC00A3D110599F00D3D63
:104700001105D9F414C08AE89CE069E071E013C097
:104710008AE89CE060E271E00EC08AE89CE067E312
:1047200071E009C08AE89CE06EE471E004C08AE8A8
:104730009CE065E671E00E9495144091DE0350E034
:1047400060E070E08AE89CE020E00E94BE8F8AE88A
:104750009CE06AE00E94701081E001C080E0DF917F
:10476000CF911F910F910895AF92BF92CF92DF9298
:10477000EF92FF920F931F93CF93DF93B4E8EB2E4A
:10478000B3E0FB2ECDEFD3E000E010E0F801EF5DE9
:10479000FC4F808168DC882331F174DF5B016C01A0
:1047A000F801E258FC4F8081882311F061E002C0DB
:1047B00060910D0470E0882777FD8095982F0E9406
:1047C0005B94F70120813181428153810E94999647
:1047D0009B01AC01C601B5010E94E0926883798318
:1047E0008A839B8309C0F70180819181A281B38173
:1047F00088839983AA83BB830F5F1F4F84E090E077
:10480000E80EF91E24960430110509F0BFCF86E4A6
:104810002ADC8823D9F036DF7B018C0160930E04FB
:1048200070930F04809310049093110420E030E003
:1048300040E050E00E94C795181644F4E0929002C0
:10484000F09291020093920210939302DF91CF9124
:104850001F910F91FF90EF90DF90CF90BF90AF909E
:10486000089582DF89E4FFDB882351F00BDF60933A
:10487000F1037093F2038093F3039093F4030CC05D
:1048800080E090E0A0E0B0E08093F1039093F20329
:10489000A093F303B093F4038AE4E5DB882351F09B
:1048A000F1DE6093F5037093F6038093F703909322
:1048B000F803089580E090E0A0E0B0E08093F50375
:1048C0009093F603A093F703B093F8030895BF9273
:1048D000CF92DF92EF92FF920F931F93CF93DF93CC
:1048E00010E6E12EF12CEDE6F6E0C490E3EEF6E002
:1048F000D490BB24B394F7C12D3071F02A3321F446
:1049000080919B05882341F080919C0590919D05A5
:104910008F3591050CF4C3C1E0919C05F0919D0584
:10492000309719F410929B0510C2A0919E05B0918A
:104930009F05AE9D8001AF9D100DBE9D100D1124F1
:10494000E00FF11FE65EFB4F108280919B058823EC
:1049500009F0A0C110929B05A056BA4F1C92E80125
:10496000C65EDB4FCE016EE470E00E94BB0D9C0181
:10497000009709F4D9C090931704809316042F5F11
:104980003F4F2C1B3D0B200F311FC901865E9B4FF3
:1049900060E070E04AE050E00E945A0C6093A40589
:1049A0007093A5058093A6059093A7052091DF033A
:1049B0003091E0034091E1035091E2032F5F3F4FBC
:1049C0004F4F5F4F621773078407950709F4A3C120
:1049D00080919E0590919F059C012E9DC0012F9D69
:1049E000900D3E9D900D1124865E9B4F6CE877E004
:1049F0000E94A10D892B09F08EC1E3E0F3E06491E0
:104A0000EF0107C08AE89CE00E9470102196FE0129
:104A100064916623B9F7E9E5F7E06491EF0107C017
:104A20008AE89CE00E9470102196FE016491662342
:104A3000B9F755C01E274F5FFC01E40FF11DE65E7C
:104A4000FB4FE081EA32B1F730931704209316044C
:104A5000C901019660E070E00E94FD0A0E9428945E
:104A6000212F30E02617370709F44DC0E3E0F3E0CB
:104A70006491EF0107C08AE89CE00E9470102196C3
:104A8000FE0164916623B9F7EAE3F7E06491EF0170
:104A900007C08AE89CE00E9470102196FE01649194
:104AA0006623B9F71CC0E3E0F3E06491EF0107C0AF
:104AB0008AE89CE00E9470102196FE0164916623B2
:104AC000B9F7E0E1F7E06491EF0107C08AE89CE004
:104AD0000E9470102196FE0164916623B9F74091FF
:104AE000DF035091E0036091E1037091E2038AE8F3
:104AF0009CE00E941E908AE89CE06AE00E94701090
:104B00000E94701C45C08091A4059091A505A091BC
:104B1000A605B091A7058093DF039093E003A093CF
:104B2000E103B093E20339C0CE016AE270E00E9473
:104B3000BB0D009791F1E3E0F3E06491EF0107C052
:104B40008AE89CE00E9470102196FE016491662321
:104B5000B9F7E6EEF6E06491EF0107C08AE89CE061
:104B60000E9470102196FE0164916623B9F740916E
:104B7000DF035091E0036091E1037091E2038AE862
:104B80009CE00E941E908AE89CE06AE00E947010FF
:104B900010929D0510929C05D8C080919E05909121
:104BA0009F058E9D80018F9D100D9E9D100D1124DF
:104BB000E801C65EDB4FCE0167E470E00E94BB0DEA
:104BC0009C01009709F43AC090931704809316044F
:104BD0002F5F3F4F2C1B3D0B200F311FC901865EFD
:104BE0009B4F60E070E00E94FD0A0E9428946430B0
:104BF000710520F58091DB03882371F46D2DC3EEE0
:104C0000D6E007C08AE89CE00E9470102196FE0161
:104C100064916623B9F70DC06C2DCDE6D6E007C0D0
:104C20008AE89CE00E9470102196FE016491662340
:104C3000B9F78AE89CE06AE00E94701080919E05B6
:104C400090919F059C012E9DC0012F9D900D3E9D32
:104C5000900D1124865E9B4F6CE771E00E94C60D9B
:104C6000009711F40E94561A80919E0590919F051D
:104C7000019664E070E00E949E9790939F05809358
:104C80009E058091E7039091E80301969093E803D5
:104C90008093E70310929D0510929C0524C02B334E
:104CA00011F4B0929B0580919B058823E1F420913B
:104CB0009C0530919D0580919E0590919F058E9D4C
:104CC000F0018F9DF00D9E9DF00D1124E20FF31F5A
:104CD000E65EFB4F80919A0580832F5F3F4F3093B4
:104CE0009D0520939C058AE89CE00E94DC901816A4
:104CF00019065CF58091E7039091E80304972CF581
:104D00008AE89CE00E941591282F80939A058A30AA
:104D100009F0F2CD01CE80919E0590919F058E9D68
:104D2000E0018F9DD00D9E9DD00D1124CE01865E99
:104D30009B4F6AE270E00E94BB0D9C01009709F452
:104D4000B2CE10E040E0CE0177CEDF91CF911F913F
:104D50000F91FF90EF90DF90CF90BF900895EF926A
:104D6000FF920F931F938091E7039091E8030397BD
:104D70000CF4ADDD0FB6F8948091820C9091830C09
:104D8000A091840CB091850C0FBEE090ED03F090E3
:104D9000EE030091EF031091F0032091E9033091AD
:104DA000EA034091EB035091EC03821B930BA40B9D
:104DB000B50BE816F9060A071B0738F4E114F104ED
:104DC0000105110511F00E94561AE0908C02F09036
:104DD0008D0200918E0210918F02E114F104010501
:104DE000110561F10FB6F8948091820C9091830CBB
:104DF000A091840CB091850C0FBE2091E9033091F5
:104E0000EA034091EB035091EC03821B930BA40B3C
:104E1000B50BE816F9060A071B0780F49091EC0A17
:104E20008091ED0A981751F4779A1092AC03769A14
:104E30001092AD03479A1092AE03439A0E94F64433
:104E40001F910F91FF90EF9008952F923F924F92F4
:104E50005F926F927F928F929F92AF92BF92CF920A
:104E6000DF92EF92FF920F931F93DF93CF93CDB713
:104E7000DEB7C351D1400FB6F894DEBF0FBECDBF31
:104E800087E4F1D8882309F42FC7FCDB0E9428941B
:104E90006430710509F448C06530710554F462301E
:104EA000710569F1633071059CF57723ECF40C947E
:104EB0008E3D6A35710509F4A8C66B35710554F449
:104EC0006C31710509F486C06D31710511F00C94D7
:104ED0008E3D17C36B35710509F49BC66C357105A2
:104EE00011F00C948E3D9AC68091DB03882311F05B
:104EF0000C948E3D39DC0E944E1B0C94C63D809173
:104F0000DB03882311F00C948E3DABDC81E008C0FC
:104F10008091DB03882311F00C948E3DA2DC80E0AD
:104F20000E94871A0C94C63D80E59DD8882321F401
:104F3000AA24BB24650105C0A5DB0E942D945B015A
:104F40006C0183E590D8882359F09CDB20E030E0A9
:104F50004AE754E40E9499960E942D945B016C01EB
:104F60000E94C46C0FB6F894E090820CF090830C11
:104F70000091840C1091850C0FBEEA0CFB1C0C1DDB
:104F80001D1D0FB6F8948091820C9091830CA09116
:104F9000840CB091850C0FBE8093E9039093EA03D3
:104FA000A093EB03B093EC0303C00E942879D7DEF3
:104FB0000FB6F8948091820C9091830CA091840C90
:104FC000B091850C0FBE8E159F05A007B10768F341
:104FD0000C948E3D85E992E00E941F83809190029F
:104FE00090919102A0919202B09193028093120449
:104FF00090931304A0931404B09315048091690254
:1050000090916A02909383038093820384E690E0F8
:1050100090936A02809369020FB6F8948091820C93
:105020009091830CA091840CB091850C0FBE80935D
:10503000E9039093EA03A093EB03B093EC0381E0C0
:105040000E94ED6B8091840390918503A09186036B
:10505000B09187038093FD039093FE03A093FF0319
:10506000B09300048091880390918903A0918A03F2
:10507000B0918B038093010490930204A0930304E6
:10508000B093040480918C0390918D03A0918E03C2
:10509000B0918F038093050490930604A0930704B6
:1050A000B09308048091900390919103A091920392
:1050B000B09193038093090490930A04A0930B0486
:1050C000B0930C0480E090E0A0E0B0E08093900208
:1050D00090939102A0939202B093930288E50E946C
:1050E0003320882351F489E50E943320882329F452
:1050F0008AE50E943320882379F088E50E943320D6
:10510000882361F089E50E943320882339F08AE5FD
:105110000E943320882311F081E001C080E0809359
:105120009402882329F488E50E943320882321F003
:1051300080E090E00E94EF1D80919402882329F482
:1051400089E50E943320882321F081E090E00E94CD
:10515000EF1D88E50E9433208823C9F088DA6115A5
:1051600071058105910599F08DDA209194033091B4
:10517000950340919603509197030E94E0926093AB
:10518000840370938503809386039093870389E556
:105190000E9433208823C9F06ADA61157105810500
:1051A000910599F06FDA209198033091990340911D
:1051B0009A0350919B030E94E0926093880370933E
:1051C000890380938A0390938B03809194028823B0
:1051D00031F48AE50E943320882309F401C18091CB
:1051E000AC03882321F08091AD03882321F5EDEFF6
:1051F000F2E064918F0108C08AE89CE00E94701080
:105200000F5F1F4FF80164916623B1F7E7E0F6E006
:1052100064918F0108C08AE89CE00E9470100F5FC3
:105220001F4FF80164916623B1F78AE89CE06AE0B9
:105230000E947010D5C060918403709185038091A5
:1052400086039091870320918803309189034091D0
:105250008A0350918B03E0908C03F0908D030091B2
:105260008E0310918F03B0E9CB2EB3E0DB2E0E94AA
:1052700075450E94111D80E090E0A4E0B3E48093A6
:10528000FD039093FE03A093FF03B093000480E01E
:1052900090E0A2EDB2E48093010490930204A09305
:1052A0000304B093040480918C0390918D03A0912A
:1052B0008E03B0918F038093050490930604A0930E
:1052C0000704B093080480E090E0AAEFB5E480936F
:1052D000900290939102A0939202B093930280E087
:1052E00090E0A0E0B0E080938C0390938D03A093B6
:1052F0008E03B0938F036091840370918503809136
:10530000860390918703209188033091890340910F
:105310008A0350918B030F2EF0E0EF2EF0E0FF2E6A
:10532000F0E00F2FF0E01F2FF02D0E94754500D008
:105330006091FD037091FE038091FF039091000442
:10534000209101043091020440910304509104041F
:10535000E0900504F0900604009107041091080401
:105360008090900290909102A0909202B09093024F
:10537000E3EBF3E0ADB7BEB71296FC93EE93119753
:10538000A9E0CA2EA4E0DA2E0E94164B0F900F90CF
:105390000E94C46C8091FD039091FE03A091FF03D5
:1053A000B09100048093840390938503A0938603B7
:1053B000B09387038091010490910204A0910304AB
:1053C000B09104048093880390938903A0938A0387
:1053D000B0938B0382E090E00E94EF1D0E94661D57
:1053E0008AE50E9433208823C9F041D961157105EF
:1053F0008105910599F046D920919C0330919D0338
:1054000040919E0350919F030E94E09260938C0311
:1054100070938D0380938E0390938F0380919402F9
:10542000882329F48AE50E9433208823D1F06091F3
:105430008C0370918D0380918E0390918F03209146
:10544000AF033091B0034091B1035091B2030E9479
:10545000E09260938C0370938D0380938E039093FE
:105460008F036091840370918503809186039091EE
:105470008703209188033091890340918A035091DA
:105480008B03E0908C03F0908D0300918E031091BC
:105490008F03F0E9CF2EF3E0DF2E0E94754580E008
:1054A0000E94ED6B8091120490911304A09114045A
:1054B000B09115048093900290939102A093920270
:1054C000B0939302809182039091830390936A0238
:1054D000809369020FB6F8948091820C9091830CAE
:1054E000A091840CB091850C0FBE8093E90390933A
:1054F000EA03A093EB03B093EC030E94E66B0C94D9
:105500008E3D8091AC03882321F08091AD038823E8
:1055100029F5EDEFF2E064918F0108C08AE89CE084
:105520000E9470100F5F1F4FF80164916623B1F75E
:10553000E5EFF5E064918F0108C08AE89CE00E94E5
:1055400070100F5F1F4FF80164916623B1F78AE86E
:105550009CE06AE00E9470100C948E3D0E94C46C26
:1055600085E992E00E941F83CE010D960E94654658
:105570006D857E858F8598896093840370938503FC
:10558000809386039093870329893A894B895C89A4
:10559000209388033093890340938A0350938B03AD
:1055A000ED88FE880F89188DE0928C03F0928D03B0
:1055B00000938E0310938F03E0E9CE2EE3E0DE2EFE
:1055C0000E9475458091900290919102A091920263
:1055D000B09193028093120490931304A093140447
:1055E000B09315048091690290916A0290938303AD
:1055F0008093820384E690E090936A02809369022C
:105600000FB6F8948091820C9091830CA091840C39
:10561000B091850C0FBE8093E9039093EA03A093A9
:10562000EB03B093EC0381E00E94ED6B809161028B
:1056300090916202A0916302B09164028093900203
:1056400090939102A0939202B09393020E94111D35
:10565000C35FDE4F1882CD50D14092E3292E312C0A
:1056600022E330E0C75FDE4F39832883C950D14041
:1056700086E990E0C55FDE4F99838883CB50D140A7
:10568000CD5FDE4F19821882C350D14029C0C35F5D
:10569000DE4F9881CD50D140992391F4A1E0C35FB2
:1056A000DE4FA883CD50D14086E9282E312CEEEC78
:1056B000FFEFC75FDE4FF983E883C950D14010C0C8
:1056C000C35FDE4F1882CD50D14002E3202E312C33
:1056D00022E330E0C75FDE4F39832883C950D140D1
:1056E000CD5FDE4F88819981C350D140880F991FCB
:1056F000880F991FAFE4B0E0AC0FBD1FA80FB91F12
:10570000CB5FDE4FB983A883C550D140B3E74B2EA2
:10571000512C4C0E5D1E480E591ECD5FDE4FE881A8
:10572000F981C350D140C25FDE4FF983E883CE5088
:10573000D140C95FDE4F19821882C750D140C55F82
:10574000DE4F88819981CB50D140AA2797FDA09543
:10575000BA2FC05FDE4F88839983AA83BB83C05171
:10576000D140C25FDE4FA881B981CE50D140AB2B72
:1057700029F4EE24FF2400E711E410C060918C03AB
:1057800070918D0380918E0390918F0320E030E023
:1057900040E050E40E94E0927B018C01B101882737
:1057A00077FD8095982F0E945B943B014C01C05F70
:1057B000DE4F688179818A819B81C051D1400E94EE
:1057C0005B945B016C01C401B301A60195010E94C9
:1057D000ED20CB5FDE4FE881F981C550D140619368
:1057E000719381939193CB5FDE4FF983E883C5502A
:1057F000D140D2016D927D928D929C921397F201CD
:10580000A4A2B5A2C6A2D7A228E430E0420E531E3D
:1058100080E090E0A0E8BFE3F20180839183A2835F
:10582000B383C25FDE4F28813981CE50D1402F5FD4
:105830003F4FC25FDE4F39832883CE50D140C95FCE
:10584000DE4F88819981C750D1400196C95FDE4FF4
:1058500099838883C750D140ACEBBFEF4A0E5B1EE3
:10586000039749F0C75FDE4FE881F981C950D14005
:105870002E0E3F1E76CFCD5FDE4F28813981C3507B
:10588000D1402D5F3F4FCD5FDE4F39832883C3501A
:10589000D140C55FDE4F88819981CB50D140C297FE
:1058A000C55FDE4F99838883CB50D14029303105C5
:1058B00009F0EDCE80E00E94ED6B80911204909192
:1058C0001304A0911404B091150480939002909356
:1058D0009102A0939202B0939302809182039091DF
:1058E000830390936A02809369020FB6F8948091C3
:1058F000820C9091830CA091840CB091850C0FBE0A
:105900008093E9039093EA03A093EB03B093EC0335
:1059100089E090E063E070E0AE014D585F4F9E017A
:10592000215B3F4F0E94376B4C01EFEDF5E0649136
:105930008F0108C08AE89CE00E9470100F5F1F4F23
:10594000F80164916623B1F7D4014D915D916D9199
:105950007C918AE89CE022E00E942B90EAEDF5E041
:1059600064918F0108C08AE89CE00E9470100F5F6C
:105970001F4FF80164916623B1F7D40114964D913D
:105980005D916D917C9117978AE89CE022E00E94DE
:105990002B90E5EDF5E064918F0108C08AE89CE06A
:1059A0000E9470100F5F1F4FF80164916623B1F7DA
:1059B000D40118964D915D916D917C911B978AE869
:1059C0009CE022E00E942B908AE89CE06AE00E9422
:1059D0007010A9E1AA2EB12CAC0EBD1EF4014081BD
:1059E00051816281738170580481158126813781CC
:1059F0003058C5010F2EF0E0CF2EF0E0DF2EF0E89A
:105A0000EF2EFFE3FF2EF02D0E94A481C50161E877
:105A100071E00E94FD85FFEDAF2EB12CAC0EBD1ED6
:105A2000C501C98CDA8CEB8CFC8C0D8D1E8D2F8DF5
:105A300038A149A15AA16BA17CA10E949284A5E939
:105A4000B2E0F50184E201900D928150E1F7CE01C0
:105A500085960E9465466DA17EA18FA198A5609351
:105A6000840370938503809386039093870329A50D
:105A70003AA54BA55CA520938803309389034093F6
:105A80008A0350938B03E090AF03F090B003009132
:105A9000B1031091B203E0928C03F0928D03009356
:105AA0008E0310938F03E0E9CE2EE3E0DE2E0E94FA
:105AB0007545C4010E9482890E94661D0E94C46CC3
:105AC00082E00E94936C0E945B942091C405309107
:105AD000C5054091C6055091C7050E94C0937B0142
