:100000000C944B0B0C94760B0C94760B0C94760B97
:100010000C94760B0C94760B0C94760B0C94760B5C
:100020000C94760B0C94760B0C94EF9D0C94699CBD
:100030000C94760B0C94760B0C94760B0C94760B3C
:100040000C94760B0C94A97C0C94760B0C94760B88
:100050000C94760B0C94760B0C941D850C94329BAF
:100060000C94760B0C94760B0C94760B0C94760B0C
:100070000C94760B0C94760B0C94760B0C94760BFC
:100080000C94760B0C94760B0C94760B0C94760BEC
:100090000C9421960C94760B084AD73B3BCE016E0C
:1000A00084BCBFFDC12F3D6C74319ABD56833DDACF
:1000B0003D00C77F11BED9E4BB4C3E916BAAAABEDE
:1000C000000000803F05A84CCDB2D44EB93836A907
:1000D000020C50B9918688083CA6AAAA2ABE000044
:1000E00000803F6563686F3A0048617264636F64C3
:1000F00065642044656661756C7420536574746929
:100100006E6773204C6F616465640053746F726531
:10011000642073657474696E6773207265747269A4
:100120006576656400205000205200204C0020427B
:100130000020204D38353320460020590020204D26
:1001400038353220580020204D383531205A0053A0
:100150006F6C69546F7563682073657474696E673A
:10016000733A0020440020490020204D33303120D4
:1001700050005049442073657474696E67733A0087
:10018000205A0020590020204D3230362058004897
:100190006F6D65206F666673657420286D6D293AF2
:1001A00000204500205A0020580020420020540022
:1001B00020204D323035205300416476616E6365F6
:1001C00064207661726961626C65733A20533D4DBB
:1001D000696E20666565647261746520286D6D2F97
:1001E00073292C20543D4D696E2074726176656CC4
:1001F00020666565647261746520286D6D2F7329B2
:100200002C20423D6D696E696D756D207365676D5B
:10021000656E742074696D6520286D73292C2058D3
:100220003D6D6178696D756D205859206A65726BF6
:1002300020286D6D2F73292C20205A3D6D6178691F
:100240006D756D205A206A65726B20286D6D2F7355
:10025000292C2020453D6D6178696D756D20452004
:100260006A65726B20286D6D2F7329002054002061
:10027000204D323034205300416363656C657261F8
:1002800074696F6E3A20533D616363656C6572619A
:1002900074696F6E2C20543D7265747261637420B2
:1002A000616363656C65726174696F6E00204500FF
:1002B000205A0020590020204D3230312058004D66
:1002C0006178696D756D20416363656C65726174F9
:1002D000696F6E20286D6D2F7332293A002045001A
:1002E000205A0020590020204D3230332058004D34
:1002F0006178696D756D206665656472617465739A
:1003000020286D6D2F73293A00204500205A0020C7
:10031000590020204D3932205800537465707320E5
:1003200070657220756E69743A0053657474696EF5
:1003300067732053746F726564006563686F3A0079
:100340004572726F723A005072696E7465722073F2
:10035000746F707065642064756520746F206572B9
:10036000726F72732E2046697820746865206572FA
:10037000726F7220616E6420757365204D39393952
:1003800020746F20726573746172742E2028546516
:100390006D70657261747572652069732072657322
:1003A00065742E20536574206974206166746572CB
:1003B0002072657374617274696E67290050726986
:1003C0006E7465722068616C7465642E206B696C54
:1003D0006C28292063616C6C656421006F6B00528E
:1003E0006573656E643A20002200556E6B6E6F7700
:1003F0006E20636F6D6D616E643A202200507269E9
:100400006E7420656E646564005072696E7420734A
:1004100074617274656400205000205200204C000A
:10042000204200460059204F66667365743A0058B2
:10043000204F66667365743A002000795F6D6178BD
:100440003A20002000795F6D696E3A200059204FF4
:10045000666673657420002000785F6D61783A20CD
:10046000002000785F6D696E3A200058204F666664
:1004700073657420005A204F66667365743A2000D5
:1004800020007A5F6D61783A200020007A5F6D6904
:100490006E3A20005A204F666673657420004669E4
:1004A0006C616D656E742064696120286D6561738F
:1004B00075726564206D6D293A0046696C616D65E1
:1004C0006E742064696120286E6F6D696E616C20A6
:1004D0006D6D293A007A5F6D61783A20007A5F6D20
:1004E000696E3A2000795F6D61783A2000785F6D1F
:1004F00061783A2000205A3A0020593A0020436F90
:10050000756E7420583A200020453A00205A3A006F
:1005100020593A00583A004649524D574152455FDA
:100520004E414D453A4D61726C696E2056313B200B
:10053000537072696E7465722F6772626C206D61A0
:1005400073687570204D414348494E455F5459507A
:10055000453A536F6C69646F6F646C655F50726588
:1005600073732045585452554445525F434F554E7E
:10057000543A31204649524D574152455F564552F3
:1005800053494F4E3A4A756E20313520323031355D
:1005900031313A33353A3035204649524D57415280
:1005A000455F55524C3A687474703A2F2F737570CA
:1005B000706F72742E736F6C69646F6F646C652EEC
:1005C000636F6D2F68632F656E2D75732F61727465
:1005D00069636C65732F3230323637383238302DDC
:1005E000536F6C69646F6F646C652D4D6F746865D3
:1005F00072626F6172642D476572626572732D61FC
:100600006E642D4669726D776172652D536F7572D8
:1006100063652D46696C65730A0020423A002045E7
:100620003A00543A0020573A0020453A00543A0024
:100630002042403A0020403A00202F003A00205447
:1006400000202F0020423A00202F006F6B20543AE8
:10065000002569206D696E2C202569207365630073
:1006600020453A00205A3A0020593A00583A0020D2
:10067000643A200020623A200045716E20636F6565
:100680006666696369656E74733A20613A20004852
:100690006F6D6520582F59206265666F7265205A0C
:1006A0000020453A00205A3A0020593A00583A00B2
:1006B0005A2070726F6265206F75742E20626564B7
:1006C00000486F6D6520582F59206265666F72650E
:1006D000205A000101FF00004B4300004843000086
:1006E000484300004B430000484300000000000066
:1006F0000000000000000000000000004B4300006C
:100700004843000048430000A0400000A040000013
:10071000803F0A00207A3A200020793A2000207891
:100720003A2000426564005072696E7465722073ED
:10073000746F707065642064756520746F206572D5
:10074000726F72732E204669782074686520657216
:10075000726F7220616E6420757365204D3939396E
:1007600020746F20726573746172742E2028546532
:100770006D7065726174757265206973207265733E
:1007800065742E20536574206974206166746572E7
:100790002072657374617274696E6729006F6B00F3
:1007A0004E6F204C696E65204E756D6265722077C4
:1007B00069746820636865636B73756D2C204C6188
:1007C0007374204C696E653A20004E6F2043686553
:1007D000636B73756D2077697468206C696E652032
:1007E0006E756D6265722C204C617374204C696E5D
:1007F000653A2000636865636B73756D206D69737E
:100800006D617463682C204C617374204C696E6553
:100810003A20004C696E65204E756D6265722069E4
:1008200073206E6F74204C617374204C696E652068
:100830004E756D6265722B312C204C617374204CA7
:10084000696E653A20004D313130005344503130EB
:100850003300534450313032005344503130310072
:10086000534450313030002020506C616E6E657200
:1008700042756666657242797465733A2000204657
:10088000726565204D656D6F72793A200031313A9D
:1008900033353A30350020004A756E20313520322C
:1008A00030313500436F6D70696C65643A200052D9
:1008B0004A4400207C20417574686F723A20004AD7
:1008C000756E203135203230313531313A33353A99
:1008D000303500204C617374205570646174656418
:1008E0003A2000312E302E30004D61726C696E005E
:1008F00020536F667477617265205265736574006A
:10090000205761746368646F672052657365740073
:100910002042726F776E206F757420526573657414
:10092000002045787465726E616C20526573657441
:1009300000506F7765725570007374617274002295
:1009400000656E717565696E672022002200656E14
:10095000717565696E672022006563686F3A0020D3
:10096000746F6F206C6F6E67206578747275736931
:100970006F6E2070726576656E7465640020636FBB
:100980006C6420657874727573696F6E207072651F
:1009900076656E7465640045303A20005A3A20004E
:1009A000593A2000583A20004D53312C4D533220F3
:1009B00050696E730A0024F404D9201BC40C5C0E29
:1009C0009804C4095F0265077101F405F900FB048E
:1009D000B30048048700C1036900580355000303AE
:1009E0004500BE023A008402310053022A00290267
:1009F000250004022000E4011C00C8011900AF0119
:100A000017009801140084011300710110006101A6
:100A1000100051010E0043010D0036010B002B01A7
:100A20000B0020010B00150109000C010900030156
:100A30000800FB000800F3000800EB000700E400DA
:100A40000600DE000600D8000600D2000600CC003A
:100A50000500C7000500C2000500BD000400B90084
:100A60000400B5000400B1000400AD000400A900BA
:100A70000400A5000300A20003009F0004009B00E7
:100A8000030098000300950002009300030090000B
:100A900003008D0002008B00030088000200860026
:100AA000020084000300810002007F0002007D003C
:100AB00002007B000200790002007700010076004E
:100AC00002007400020072000100710002006F0059
:100AD00002006D0001006C0002006A000100690064
:100AE000020067000100660001006500010064006B
:100AF00002006200010061000100600001005F006F
:100B000002005D0001005C0001005B0001005A0072
:100B10000100590001005800010057000100560073
:100B20000100550001005400010053000000530073
:100B300001005200010051000100500001004F006F
:100B400001004E0000004E0001004D0001004C006D
:100B500001004B0000004B0001004A000100490069
:100B60000100480000004800010047000100460065
:100B7000000046000100450000004500010044005F
:100B80000100430000004300010042000000420059
:100B900001004100000041000100400001003F0051
:100BA00000003F0001003E0000003E0001003D004B
:100BB00000003D0001003C0000003C0000003C0043
:100BC00001003B0000003B0001003A0000003A0039
:100BD0000100390000003900010038000000380031
:100BE0000000380001003700000037000100360027
:100BF000000036000000360001003500000035001E
:100C00000000350001003400000034000000340012
:100C10000100330000003300000033000100320007
:100C200000003200000032000100310000003100FD
:100C300000003100010030000000300000003000F2
:100C400001002F0000002F0000002F0000002F00E7
:100C500001002E0000002E0000002E0001002D00DB
:100C600000002D0000002D0000002D0001002C00D0
:100C700000002C0000002C0000002C0001002B00C4
:100C800000002B0000002B0000002B0001002A00B8
:100C900000002A0000002A0000002A0001002900AC
:100CA00000002900000029000000290000002900A0
:100CB0000100280000002800000028000000280093
:100CC0000000280001002700000027000000270086
:100CD0000000270000002700010026000000260079
:100CE000000026000000260000002600010025006C
:100CF0000000250000002500000025000000250060
:100D00000000250001002400000024000000240051
:100D10000000240000002400010023000000230044
:100D20000000230000002300000023000000230037
:100D30000000230001002200000022000000220029
:100D4000000022000000220000002200010021001B
:100D5000000021000000210000002100000021000F
:100D60000000210000002100010020000000200000
:100D700000002000000020000000200000002000F3
:100D8000000020000000200001001F0000001F00E4
:100D900000001F0000001F0000001F0000001F00D7
:100DA00000001F0001001E0000001E0000001E00C9
:100DB00000001E00000024F4D43050C38E20C2A2D4
:100DC0004017828B7011127A910D816CD90AA8613B
:100DD000E108C7586607615143061E4B5D05C145D2
:100DE000A7041A411104093D9803713931034036B3
:100DF000DB0265339102D4305402802E1D02632C35
:100E0000EE01752AC501B028A001102781018F25A8
:100E100064012B244B01E0223401AC211F018D2001
:100E20000D01801FFC00841EED00971DDF00B81C23
:100E3000D200E61BC600201BBC00641AB200B21927
:100E4000A8000A19A0006A189900D117910040174C
:100E50008B00B516840031167E00B31579003A1563
:100E60007300C7146F0058146A00EE1366008813ED
:100E7000630025135E00C7125B006C125700151249
:100E80005400C111510070114F0021114B00D610B8
:100E900049008D1047004610440002104200C00F68
:100EA0004000800F3E00420F3C00060F3B00CB0E7F
:100EB0003800930E37005C0E3500270E3400F30D1A
:100EC0003200C10D3100900D3000600D2E00320D4A
:100ED0002D00050D2C00D90C2B00AE0C2900850C23
:100EE00029005C0C2700350C27000E0C2600E80BAF
:100EF0002400C40B2400A00B23007D0B23005A0BFD
:100F00002100390B2100180B2000F80A1F00D90A14
:100F10001E00BB0A1E009D0A1D00800A1D00630AF8
:100F20001C00470A1B002C0A1B00110A1A00F709B3
:100F30001A00DD091900C4091900AB09190092094A
:100F400017007B091800630917004C0916003609C1
:100F50001600200916000A091500F5081500E0081A
:100F60001400CC081400B8081400A4081400900859
:100F700013007D0812006B08130058081200460881
:100F80001200340811002308110012081100010892
:100F90001100F0071000E0071000D0071000C00794
:100FA0001000B0070F00A107100091070E00830783
:100FB0000F0074070F0065070E0057070E00490762
:100FC0000E003B070D002E070E0020070D00130733
:100FD0000D0006070D00F9060C00ED060D00E006F9
:100FE0000C00D4060C00C8060C00BC060C00B006B1
:100FF0000C00A4060B0099060C008D060B0082065F
:101000000B0077060B006C060B0061060A00570602
:101010000B004C060A0042060A0038060A002E069B
:101020000A0024060A001A060A001006090007062C
:101030000A00FD050900F4050900EB050900E205B9
:101040000900D9050900D0050900C7050900BE053A
:101050000900B5050800AD050800A50509009C05B7
:101060000800940508008C050800840508007C052C
:101070000800740508006C050700650508005D059B
:101080000700560508004E05070047050700400504
:10109000080038050700310507002A050700230569
:1010A00007001C050600160507000F0507000805C8
:1010B000060002050700FB040600F5040700EE0425
:1010C0000600E8040600E2040700DB040600D5047D
:1010D0000600CF040600C9040600C3040600BD04D0
:1010E0000600B7040600B1040500AC040600A6041F
:1010F0000600A00405009B0406009504050090046A
:1011000006008A04050085040500800406007A04B0
:10111000050075040500700405006B0405006604F5
:101120000500610405005C04050057040500520435
:1011300005004D04050048040500430405003E0475
:1011400004003A04050035040500300404002C04B2
:10115000050027040400230405001E0404001A04EB
:10116000040016040500110404000D040400090421
:1011700005000404040000040400FC030400F80358
:101180000400F4030400F0030400EC030400E8038B
:101190000400E4030400E0030400DC030400D803BB
:1011A0000400D4030400D0030400CC030400C803EB
:1011B0000300C50303004572726F723A0054656DF7
:1011C000706572617475726520686561746564200C
:1011D000626564207377697463686564206F66660E
:1011E0002E204D415854454D5020747269676765F3
:1011F000726564202121003A204578747275646517
:1012000072207377697463686564206F66662E2048
:101210004D494E54454D502074726967676572653B
:10122000642021003A2045787472756465722073D9
:1012300077697463686564206F66662E204D415837
:1012400054454D502074726967676572656420214A
:1012500000546865726D616C2052756E61776179BA
:101260002C2073797374656D2073746F707065646E
:1012700021204865617465725F49443A2000202D41
:1012800020496E76616C6964206578747275646556
:1012900072206E756D6265722021001000C9021007
:1012A000012C014001220170011801B0010E01F072
:1012B0000104015002FA00B002F0003003E600D051
:1012C00003DC009004D2007005C800A006BE000038
:1012D00008B400B009AA00D00BA000600E96006010
:1012E000118C000015820020197800C01D6E00A02E
:1012F000226400B0275A00902C500000314600E0D4
:10130000343C0010383200903A2800603C1E00A0A7
:101310003D1400803E0A00203F000070012C019027
:10132000012701B0012201C0011D01F001180110C7
:1013300002130130020E016002090190020401C093
:1013400002FF000003FA004003F5008003F000D024
:1013500003EB002004E6007004E100E004DC004040
:1013600005D700C005D2004006CD00D006C80080D9
:1013700007C3003008BE00F008B900C009B400B0CF
:101380000AAF00B00BAA00D00CA500000EA00050C0
:101390000F9B00C01096005012910000148C00C0EA
:1013A000158700B0178200B0197D00D01B780000AF
:1013B0001E730040206E0090226900F024640040FB
:1013C000275F0090295A00E02B5500102E50002076
:1013D000304B0010324600E033410090353C0010A5
:1013E00037370070383200A0392D00B03A2800A0FD
:1013F0003B2300603C1E00103D1900903D1400107E
:101400003E0F00703E0A00C03E0500003F00005045
:101410004944204175746F74756E652066696E6904
:1014200073686564212050757420746865206C6150
:101430007374204B702C204B6920616E64204B64C8
:1014400020636F6E7374616E74732066726F6D20AB
:1014500061626F766520696E746F20436F6E666996
:101460006775726174696F6E2E680050494420413F
:1014700075746F74756E65206661696C6564212092
:1014800074696D656F75740020403A006F6B20546D
:101490003A006F6B20423A00504944204175746F06
:1014A00074756E65206661696C6564212054656D94
:1014B000706572617475726520746F6F20686967FA
:1014C0006800204B643A2000204B693A2000204BF2
:1014D000703A200020436C61737369632050494463
:1014E00020002054753A2000204B753A2000206DD2
:1014F00061783A2000206D696E3A200020643A201D
:101500000020626961733A20000A0020000A00206E
:101510007A3A200020793A200020783A20000129E8
:101520000229042908291029202940298029012C71
:10153000022C0126022604260826102620264026F4
:101540008026402C802C012302230423082310230F
:101550002023402380230120022004200820102083
:10156000202040208020102C202C012F022F042F1F
:10157000082F102F202F402F802F7EFE7EFD7EFB18
:101580007EF77EEF7EDF7EBF7E7F00010000BE150E
:101590001200020000D015430003000013160401DE
:1015A0000309041716180203090431161603030968
:1015B0000449160C0001C102018036018136120176
:1015C000000202000020C016830400010102030192
:1015D00009024300020100C03209040000010202B6
:1015E0000100052400100105240100010424020665
:1015F00005240600010705820308004009040100D4
:10160000020A0000000705030240000007058402EB
:101610004000000403090418035400650065006ECF
:1016200000730079006400750069006E006F0000AF
:10163000001603550053004200200053006500725D
:1016400000690061006C0000000C033100320033BF
:1016500000340035000000494E46494E4954594E69
:10166000414ECDCCCC3D0AD7233C17B7D13877CCEF
:101670002B329595E6241FB14F0A0000204100004F
:10168000C84200401C4620BCBE4CCA1B0E5AAEC508
:101690009D74929540A111241FBECFEFD0E2DEBF12
:1016A000CDBF13E0A0E0B1E0E2E1FEE401E00BBF5A
:1016B00002C007900D92A23CB107D9F71BBE1CE0F7
:1016C000A2ECB3E001C01D92A33FB107E1F716E120
:1016D000C6E9D6E104C02297FE010E94C1A6C23924
:1016E000D107C9F70E946D9E0C9407A70C940000C7
:1016F000A0E0B0E0EEE7FBE00C94D6A6EC015B01C5
:101700006115710519F0FB0191838083F9908F2D8C
:1017100090E00E94C5A6892BC9F7FDE2FF1621F4CF
:10172000F990EE24E39405C02BE2F21609F4F99047
:10173000EE248E0101501040C80167E576E143E0D8
:1017400050E062D2892BF9F48E010E5F1F4FC80161
:101750006AE576E145E050E057D2892B19F48E0115
:10176000095F1F4FA114B10419F0F5011183008323
:10177000E0FC04C070E090E080E813C070E090E00E
:1017800080E86FEF07C1C8016FE576E143E050E004
:101790003BD2892B69F4A114B10429F470E090E0E4
:1017A00080EC6FE7F7C02296F501D183C083F6CFB6
:1017B0008824992440E050E060E070E0EF2DE05391
:1017C000EA30A0F5F2E0EF2A8E2D90E09C0128701F
:1017D0003070E2FE06C0232B79F50894811C911C21
:1017E0002BC0232B19F0089481089108DB01CA0152
:1017F00012E0880F991FAA1FBB1F1A95D1F7480F37
:10180000591F6A1F7B1F440F551F661F771F4E0FFE
:10181000511D611D711D483929E9520729E96207E7
:1018200029E1720748F084E0E82A06C0EE3F31F46F
:10183000E3FC39C098E0E92AF990C0CFE53311F014
:10184000E53189F529912D3219F4E0E1EE2A05C040
:101850002B3219F081E090E003C0299182E090E002
:10186000E22FE053EA3018F0C81BD90B1CC020E06F
:1018700030E0FCE020383F075CF4C901880F991F75
:10188000880F991F280F391F220F331F2E0F311D6C
:10189000E991E053EA3068F3E4FE03C03095219506
:1018A0003F4F820E931ECE2CDD24E1FE07C0A11413
:1018B000B10421F02197F501D183C083CB01BA0196
:1018C0000E942AA37B018C01F3E0CF22DD2423E0D8
:1018D000C216D10421F417FB109517F91095570182
:1018E0006801C801B70120E030E040E050E00E940C
:1018F0008AA2882309F44AC097FE0DC026E7E22E8B
:1019000026E1F22E9094819491089394C0E2D0E065
:1019100000E010E012C09EE8E92E96E1F92EF6CF25
:10192000F7012591359145915491C601B5010E9469
:101930006AA55B016C018C1A9D0A8C169D0684F7C2
:10194000D595C7950F5F1F4F0630110529F08CEF15
:101950009FEFE80EF91EF1CFC501D6017C018D0184
:101960008C2D880F8D2D881F8F3F51F0C601B5013A
:1019700020E030E040E050E00E948AA2882331F469
:1019800082E290E09093F20C8093F10C7E2D9F2DDB
:10199000802F612F272F392F482F562FB901CA01C9
:1019A000CDB7DEB7ECE00C94F2A62F923F925F9297
:1019B0006F927F928F929F92AF92BF92CF92DF925F
:1019C000EF92FF920F931F93CF93DF938C011B0134
:1019D000EA016115710519F0FB019183808320975D
:1019E00049F0CE010297839728F020E030E040E0F4
:1019F00050E0F6C0F801A1908F018A2D90E00E947E
:101A0000C5A6892BB9F7FDE2AF1631F4F801A19014
:101A10008F015524539407C0FBE2AF1619F4F80167
:101A2000A1908F015524209719F0C031D105C1F440
:101A3000F0E3AF1679F4F8018081883711F088352A
:101A400049F4F801A1800E5F1F4FF2E05F2AC0E168
:101A5000D0E006C0209721F480E3A816E9F427C05F
:101A6000C830D10531F1C930D10524F4C230D105D7
:101A700031F50CC0CA30D10589F0C031D105F9F477
:101A8000C12CD12CE12CB8E0FB2E28C0C12CD12CCC
:101A9000E12CA0E4FA2E22C0CAE0D0E0FCECCF2E6C
:101AA000FCECDF2EFCECEF2EFCE0FF2E17C0C8E0B4
:101AB000D0E0C12CD12CE12CE0E1FE2E0FC09E0124
:101AC000442737FD4095542F60E070E080E090E8B7
:101AD0000E9482A6C901DA016C017D0120E030E09C
:101AE00040E050E060E03E01882477FC8094982C30
:101AF00070EDB72EBA0CE9E0EB1570F48A2D815425
:101B00008A3118F499ECB92E06C08A2D81568A3193
:101B100050F589EAB82EBA0C8B2D90E08C179D07F2
:101B200014F56F3FE1F0C216D306E406F506B0F0F7
:101B3000CA01B901A40193010E943CA69B01AC011A
:101B40002B0D311D411D511D2130F0E03F07F0E00C
:101B50004F07F0E85F0710F461E001C06FEFF80194
:101B6000A1908F01C5CF2114310481F0662331F09B
:101B700001501040F1011183008308C051FE1AC0CA
:101B800002501040F1011183008314C067FF12C09E
:101B900050FC05C02FEF3FEF4FEF5FE704C020E0A0
:101BA00030E040E050E882E290E09093F20C8093C5
:101BB000F10C16C050FE08C0509540953095219507
:101BC0003F4F4F4F5F4F0CC057FF0AC082E290E07B
:101BD0009093F20C8093F10C2FEF3FEF4FEF5FE704
:101BE000B901CA01DF91CF911F910F91FF90EF9042
:101BF000DF90CF90BF90AF909F908F907F906F902D
:101C00005F903F902F900895FB01DC0141505040C0
:101C100088F08D9181341CF08B350CF4805E6591D9
:101C200061341CF06B350CF4605E861B611171F33E
:101C3000990B0895881BFCCFFB0155915523A9F002
:101C4000BF01DC014D9145174111E1F759F4CD0178
:101C50000590002049F04D9140154111C9F3FB0159
:101C60004111EFCF81E090E001970895FC0181914F
:101C7000861721F08823D9F7992708953197CF0146
:101C80000895FB01DC018D91019080190110D9F3B9
:101C9000990B0895FB01DC014150504030F08D91CB
:101CA0000190801919F40020B9F7881B990B089549
:101CB000AEE0B0E0EEE5FEE00C94DEA60D891E89F4
:101CC0008EE08C831A8309838FEF9FE79E838D8339
:101CD0009E01275E3F4FCE0101966F89788DA90145
:101CE0000AD02F813885020F131FF80110822E961B
:101CF000E4E00C94FAA6ABE0B0E0E1E8FEE00C947E
:101D0000D0A63C012B015A01FC0117821682838167
:101D100081FD03C06FEF7FEFB9C19AE0892E1E01EC
:101D20000894211C311CF3012381F20123FD8591CC
:101D300023FF81912F01882309F4A5C1853239F44D
:101D400023FD859123FF81912F01853221F490E0BD
:101D5000B301B7D1E8CF982FFF24EE249924FFE1F7
:101D6000FF15D0F09B3269F09C3228F4903259F084
:101D7000933291F40EC09D3249F0903369F441E002
:101D800024C052E0F52A84E0F82A28C098E0F92A15
:101D900025C0E0E1FE2A22C0F7FC29C0892F80532C
:101DA0008A3070F4F6FE05C0989C902C1124980E91
:101DB00015C0E89CE02C1124E80EF0E2FF2A0EC0CA
:101DC0009E3229F4F6FC5FC140E4F42A07C09C3639
:101DD00019F450E8F52A02C0983649F4F20123FDBF
:101DE000959123FF91912F01992309F0B8CF892F65
:101DF0008554833018F08052833038F444E050E04A
:101E0000A40EB51E5FE359830FC0933631F09337AC
:101E100079F0933509F052C01FC0F50180818983A4
:101E200042E050E0A40EB51E610101E010E011C0D7
:101E3000F501C080D180F6FC03C06FEF7FEF02C0D8
:101E4000692D70E042E050E0A40EB51EC6012ED10F
:101E50008C015FE7F52213C0F501C080D180F6FC4C
:101E600003C06FEF7FEF02C0692D70E042E050E0E9
:101E7000A40EB51EC6010FD18C0150E8F52AF3FE61
:101E800006C018C080E290E0B3011BD1EA948E2D09
:101E900090E008171907B0F30DC0F601F7FC859123
:101EA000F7FE81916F0190E0B3010BD1E110EA944C
:101EB000015010400115110581F7E2C0943611F070
:101EC000993661F5F7FE08C0F50120813181428124
:101ED000538184E090E00AC0F501808191819C01EA
:101EE000442737FD4095542F82E090E0A80EB91E9C
:101EF0009FE6F92257FF09C05095409530952195EE
:101F00003F4F4F4F5F4FE0E8FE2ACA01B901A101E0
:101F10002AE030E002D1D82ED2183FC0953729F4FC
:101F20001F2D1F7E2AE030E01DC01F2D197F9F3618
:101F300061F0903720F4983509F0A5C00FC09037B4
:101F400039F0983709F09FC004C028E030E00AC09B
:101F5000106114FD146020E130E004C014FD16602F
:101F600020E132E017FF08C0F501608171818281B4
:101F7000938144E050E008C0F50180819181BC016B
:101F800080E090E042E050E0A40EB51EA101C5D073
:101F9000D82ED2188FE7F82EF122F6FE0BC05EEF96
:101FA000F522D91438F4F4FE07C0F2FC05C08FEE18
:101FB000F82202C01D2D01C0192DF4FE0DC0FE0136
:101FC000ED0DF11D8081803319F499EEF92208C0DE
:101FD0001F5FF2FE05C003C08F2D867809F01F5FDA
:101FE0000F2DF3FC13C0F0FE0EC01E1510F09D2C3B
:101FF0000AC09D2C9E0C911A1E2D05C080E290E017
:10200000B3015FD01F5F1E15C8F304C01E1510F486
:10201000E11A01C0EE2404FF0EC080E390E0B3019A
:1020200050D002FF1BC001FD03C088E790E00EC046
:1020300088E590E00BC0802F867881F001FF02C018
:102040008BE201C080E2F7FC8DE290E0B30139D071
:1020500005C080E390E0B30134D09A94D914C8F35A
:10206000DA94F101ED0DF11D808190E0B30129D0EA
:10207000DD20B1F705C080E290E0B30122D0EA9400
:10208000EE20C9F750CEF30166817781CB012B9604
:10209000E2E10C94ECA6FC01059061507040011047
:1020A000D8F7809590958E0F9F1F0895FC01615081
:1020B000704001900110D8F7809590958E0F9F1F6A
:1020C00008950F931F93CF93DF938C01EB018B81C6
:1020D00081FF1BC082FF0DC02E813F818C819D81BD
:1020E0002817390764F4E881F9810193F983E883BB
:1020F00006C0E885F985802F0995892B31F48E81FA
:102100009F8101969F838E8302C00FEF1FEFC8014E
:10211000DF91CF911F910F910895FA01AA272830DE
:1021200051F1203181F1E8946F936E7F6E5F7F4FA4
:102130008F4F9F4FAF4FB1E03ED0B4E03CD0670F20
:10214000781F891F9A1FA11D680F791F8A1F911D73
:10215000A11D6A0F711D811D911DA11D20D009F4C3
:1021600068943F912AE0269F11243019305D319305
:10217000DEF6CF010895462F4770405D4193B3E0EE
:102180000FD0C9F7F6CF462F4F70405D4A3318F095
:10219000495D31FD4052419302D0A9F7EACFB4E046
:1021A000A6959795879577956795BA95C9F70097FE
:1021B0006105710508959B01AC010A2E069457959F
:1021C000479537952795BA95C9F7620F731F841FF6
:1021D000951FA01D0895DF93CF930F92CDB7DEB763
:1021E000FC016983A081B18112962D913C911397D6
:1021F000BE016F5F7F4F41E050E0F90109950F90FC
:10220000CF91DF9108950F931F93DF93CF93CDB7B5
:10221000DEB766970FB6F894DEBF0FBECDBF8091D4
:10222000000190910101A0910201B09103018F87FB
:10223000988BA98BBA8BFE013F9644E650E08081D3
:10224000F999FECF1FBA52BD41BD80BD0FB6F894BB
:10225000FA9AF99A0FBE4F5F5F4F4836510511F059
:102260003196EDCFEAE1F6E08081F999FECF1FBA11
:1022700052BD41BD80BD0FB6F894FA9AF99A0FBECF
:102280004F5F5F4F4837510511F03196EDCFEAE0CF
:10229000F6E08081F999FECF1FBA52BD41BD80BDE5
:1022A0000FB6F894FA9AF99A0FBE4F5F5F4F48380D
:1022B000510511F03196EDCFEAE2F6E08081F9990F
:1022C000FECF1FBA52BD41BD80BD0FB6F894FA9A39
:1022D000F99A0FBE4F5F5F4F4839510511F03196A3
:1022E000EDCFEEE3F6E08081F999FECF1FBA52BD43
:1022F00041BD80BD0FB6F894FA9AF99A0FBE4F5FB0
:102300005F4F4C39510511F03196EDCFE2E4F6E024
:102310008081F999FECF1FBA52BD41BD80BD0FB675
:10232000F894FA9AF99A0FBE4F5F5F4F403A510501
:1023300011F03196EDCFEAE3F6E08081F999FECF16
:102340001FBA52BD41BD80BD0FB6F894FA9AF99AF2
:102350000FBE4F5F5F4F443A510511F03196EDCFFC
:10236000E2E5F6E08081F999FECF1FBA52BD41BD8A
:1023700080BD0FB6F894FA9AF99A0FBE4F5F5F4F7F
:10238000483A510511F03196EDCFE6E0F6E0808154
:10239000F999FECF1FBA52BD41BD80BD0FB6F8946A
:1023A000FA9AF99A0FBE4F5F5F4F4C3A510511F000
:1023B0003196EDCFE6E4F6E08081F999FECF1FBAC1
:1023C00052BD41BD80BD0FB6F894FA9AF99A0FBE7E
:1023D0004F5F5F4F403B510511F03196EDCFEAE47E
:1023E000F6E08081F999FECF1FBA52BD41BD80BD94
:1023F0000FB6F894FA9AF99A0FBE4F5F5F4F443BBD
:10240000510511F03196EDCFEEE4F6E08081F999B7
:10241000FECF1FBA52BD41BD80BD0FB6F894FA9AE7
:10242000F99A0FBE4F5F5F4F483B510511F031964F
:10243000EDCFE8EDF3E08081F999FECF1FBA52BDF0
:1024400041BD80BD0FB6F894FA9AF99A0FBE4F5F5E
:102450005F4F443C510511F03196EDCF8EEB90E08B
:102460009A83898382E390E09C838B832FEF30E013
:102470003E832D8386EE90E098878F8389E690E0F7
:102480009A8789873C872B87FE0131968081F9994D
:10249000FECF1FBA52BD41BD80BD0FB6F894FA9A67
:1024A000F99A0FBE4F5F5F4F463C510571F7FE0131
:1024B00033968081F999FECF1FBA52BD41BD80BDD0
:1024C0000FB6F894FA9AF99A0FBE4F5F5F4F483CE7
:1024D000510511F03196EDCFFE0135968081F999C5
:1024E000FECF1FBA52BD41BD80BD0FB6F894FA9A17
:1024F000F99A0FBE4F5F5F4F4A3C510511F031967C
:10250000EDCFFE0137968081F999FECF1FBA52BDFB
:1025100041BD80BD0FB6F894FA9AF99A0FBE4F5F8D
:102520005F4F4C3C510511F03196EDCFFE013996CD
:102530008081F999FECF1FBA52BD41BD80BD0FB653
:10254000F894FA9AF99A0FBE4F5F5F4F4E3C5105CF
:1025500011F03196EDCFFE013B968081F999FECFC7
:102560001FBA52BD41BD80BD0FB6F894FA9AF99AD0
:102570000FBE4F5F5F4F403D510511F03196EDCFDB
:10258000E3EFF3E08081F999FECF1FBA52BD41BD60
:1025900080BD0FB6F894FA9AF99A0FBE4F5F5F4F5D
:1025A000443D510511F03196EDCFE7EFF3E0808126
:1025B000F999FECF1FBA52BD41BD80BD0FB6F89448
:1025C000FA9AF99A0FBE4F5F5F4F483D510511F0DF
:1025D0003196EDCFEBEFF3E08081F999FECF1FBA92
:1025E00052BD41BD80BD0FB6F894FA9AF99A0FBE5C
:1025F0004F5F5F4F4C3D510511F03196EDCFEFEF3E
:10260000F3E08081F999FECF1FBA52BD41BD80BD74
:102610000FB6F894FA9AF99A0FBE4F5F5F4F403E9B
:10262000510511F03196EDCFE3E0F4E08081F999A6
:10263000FECF1FBA52BD41BD80BD0FB6F894FA9AC5
:10264000F99A0FBE4F5F5F4F443E510511F031962E
:10265000EDCFE7E0F4E08081F999FECF1FBA52BDDB
:1026600041BD80BD0FB6F894FA9AF99A0FBE4F5F3C
:102670005F4F483E510511F03196EDCFEBE0F4E0AD
:102680008081F999FECF1FBA52BD41BD80BD0FB602
:10269000F894FA9AF99A0FBE4F5F5F4F4C3E51057E
:1026A00011F03196EDCFEFE0F4E08081F999FECFA3
:1026B0001FBA52BD41BD80BD0FB6F894FA9AF99A7F
:1026C0000FBE4F5F5F4F4E3E510511F03196EDCF7B
:1026D000E2E1F3E08081F999FECF1FBA52BD41BD1E
:1026E00080BD0FB6F894FA9AF99A0FBE4F5F5F4F0C
:1026F000423F510511F03196EDCFE6E1F3E08081E4
:10270000F999FECF1FBA52BD41BD80BD0FB6F894F6
:10271000FA9AF99A0FBE4F5F5F4F463F510511F08D
:102720003196EDCFEAE1F3E08081F999FECF1FBA4F
:1027300052BD41BD80BD0FB6F894FA9AF99A0FBE0A
:102740004F5F5F4F4A3F510511F03196EDCF80E268
:1027500090E09E878D87FE013D968081F999FECF9E
:102760001FBA52BD41BD80BD0FB6F894FA9AF99ACE
:102770000FBE4B3F510521F031964BEF50E0EDCFAE
:102780008091040190910501A0910601B09107018B
:102790008B8B9C8BAD8BBE8BFE01739684E690E099
:1027A0002081F999FECF1FBA92BD81BD20BD0FB621
:1027B000F894FA9AF99A0FBE8736910519F00196A6
:1027C0003196EECFE3EEF0E064918F0107C085EE25
:1027D0009CE001DD0F5F1F4FF80164916623B9F79C
:1027E000EAE2F3E064918F0107C085EE9CE0F3DC40
:1027F0000F5F1F4FF80164916623B9F785EE9CE0E7
:102800006AE0E9DC66960FB6F894DEBF0FBECDBF76
:10281000CF91DF911F910F9108950F931F93DF9335
:10282000CF93CDB7DEB7E0970FB6F894DEBF0FBEFB
:10283000CDBFDE011196E5E5F3E080E101900D9258
:102840008150E1F7DE015196E5E4F3E080E101908B
:102850000D928150E1F7DE019196E5E3F3E080E12E
:1028600001900D928150E1F789819A81AB81BC8101
:1028700080931A0690931B06A0931C06B0931D0626
:1028800089899A89AB89BC8980930A0690930B0643
:10289000A0930C06B0930D0689A19AA1ABA1BCA18F
:1028A00080932A0690932B06A0932C06B0932D06B6
:1028B0008D819E81AF81B88580931E0690931F06FF
:1028C000A0932006B09321068D899E89AF89B88D8B
:1028D00080930E0690930F06A0931006B0931106F6
:1028E0008DA19EA1AFA1B8A580932E0690932F062F
:1028F000A0933006B093310689859A85AB85BC8557
:102900008093220690932306A0932406B093250675
:10291000898D9A8DAB8DBC8D809312069093130692
:10292000A0931406B093150689A59AA5ABA5BCA5DE
:102930008093320690933306A0933406B093350605
:102940008D859E85AF85B88980932606909327064E
:10295000A0932806B09329068D8D9E8DAF8DB8A1CA
:102960008093160690931706A0931806B093190645
:102970008DA59EA5AFA5B8A980933606909337067E
:10298000A0933806B09339060E94E55480E090E0A9
:10299000AAE7B4E480933E0690933F06A0934006D6
:1029A000B09341068093420690934306A093440659
:1029B000B093450620E030E040E050E020933A0636
:1029C00030933B0640933C0650933D0680E29EE4E4
:1029D000A0E0B0E08093060690930706A093080657
:1029E000B093090620935206309353064093540641
:1029F0005093550680E090E0A0EAB1E4809346064B
:102A000090934706A0934806B09349068DEC9CEC42
:102A1000ACECBEE380934A0690934B06A0934C0621
:102A2000B0934D0680E090E0A0EAB0E480934E06BB
:102A300090934F06A0935006B09351062093E00365
:102A40003093E1034093E2035093E3032093DC03CC
:102A50003093DD034093DE035093DF032093D803CC
:102A60003093D9034093DA035093DB038AE999E961
:102A7000A6EFB1EC8093F3039093F403A093F503D6
:102A8000B093F6038DEC9CECACE8BFEB8093F703BE
:102A90009093F803A093F903B093FA038DEC9CECA8
:102AA000ACE4B0E48093FB039093FC03A093FD039C
:102AB000B093FE0320E030E040EF51E42093FF03A9
:102AC00030930004409301045093020480E090E0AE
:102AD000AAE2B3E48093030490930404A093050452
:102AE000B09306042093070430930804409309042C
:102AF00050930A0480930B0490930C04A0930D044C
:102B0000B0930E0483E090E09093100480930F0440
:102B100080E090E0A0E5B1E480931203909313036A
:102B2000A0931403B093150363E373E383E39FE37C
:102B30000E945A84609316037093170380931803BE
:102B40009093190360E070E088E792E40E94668445
:102B500060931A0370931B0380931C0390931D03CF
:102B60000E942B8380E090E0A0E8BFE380931E03E7
:102B700090931F03A0932003B0932103E3EEF0E0B2
:102B800064918F0107C085EE9CE025DB0F5F1F4F2E
:102B9000F80164916623B9F7E9EEF0E064918F01E2
:102BA00007C085EE9CE017DB0F5F1F4FF8016491B3
:102BB0006623B9F785EE9CE06AE00DDBE0960FB680
:102BC000F894DEBF0FBECDBFCF91DF911F910F9163
:102BD0000895CF93DF93DB010D900020E9F7119763
:102BE000A61BB70BEC01E881F9810280F381E02D8F
:102BF000AD010995DF91CF9108950F931F93CF9366
:102C0000DF9303EE10E0F8016491E80106C085EE61
:102C10009CE0E1DA2196FE0164916623C1F7EAE1C6
:102C2000F3E06491EF0106C085EE9CE0D4DA2196D2
:102C3000FE0164916623C1F785EE9CE06AE0CBDA81
:102C4000F8016491C3EED0E006C085EE9CE0C3DAE3
:102C50002196FE0164916623C1F740911A065091B6
:102C60001B0660911C0670911D0682E193E00E9494
:102C7000FB2540911E0650911F0660912006709121
:102C800021068FE093E00E94FB254091220650919F
:102C9000230660912406709125068CE093E00E9443
:102CA000FB254091260650912706609128067091D9
:102CB000290689E093E00E94FB2585EE9CE068E010
:102CC00071E087DF85EE9CE06AE085DAF8016491C7
:102CD000C3EED0E006C085EE9CE07DDA2196FE01D1
:102CE00064916623C1F7EFEEF2E06491EF0106C054
:102CF00085EE9CE070DA2196FE0164916623C1F7AF
:102D000085EE9CE06AE067DAF8016491C3EED0E0FA
:102D100006C085EE9CE05FDA2196FE016491662391
:102D2000C1F740910A0650910B0660910C06709114
:102D30000D0686EE92E00E94FB2540910E06509112
:102D40000F06609110067091110683EE92E00E94CA
:102D5000FB25409112065091130660911406709164
:102D6000150680EE92E00E94FB25409116065091D8
:102D7000170660911806709119068DED92E00E9479
:102D8000FB2585EE9CE068E071E023DF85EE9CE0AA
:102D90006AE021DAF8016491C3EED0E006C085EE66
:102DA0009CE019DA2196FE0164916623C1F7EFEBEE
:102DB000F2E06491EF0106C085EE9CE00CDA21960A
:102DC000FE0164916623C1F785EE9CE06AE003DAB8
:102DD000F8016491C3EED0E006C085EE9CE0FBD91B
:102DE0002196FE0164916623C1F740912A06509115
:102DF0002B0660912C0670912D0686EB92E076D51D
:102E000040912E0650912F06609130067091310648
:102E100083EB92E06BD5409132065091330660917E
:102E200034067091350680EB92E060D5409136060D
:102E30005091370660913806709139068DEA92E01C
:102E400055D585EE9CE068E071E0C3DE85EE9CE040
:102E50006AE0C1D9F8016491C3EED0E006C085EE06
:102E60009CE0B9D92196FE0164916623C1F7E8E799
:102E7000F2E06491EF0106C085EE9CE0ACD92196AA
:102E8000FE0164916623C1F785EE9CE06AE0A3D958
:102E9000F8016491C3EED0E006C085EE9CE09BD9BA
:102EA0002196FE0164916623C1F740913E06509140
:102EB0003F0660914006709141068FE692E00E94C5
:102EC000FB25409142065091430660914406709163
:102ED00045068CE692E00E94FB2585EE9CE068E0CA
:102EE00071E077DE85EE9CE06AE075D9F8016491C7
:102EF000C3EED0E006C085EE9CE06DD92196FE01C0
:102F000064916623C1F7E9EBF1E06491EF0106C03B
:102F100085EE9CE060D92196FE0164916623C1F79D
:102F200085EE9CE06AE057D9F8016491C3EED0E0E9
:102F300006C085EE9CE04FD92196FE016491662380
:102F4000C1F740913A0650913B0660913C06709162
:102F50003D0680EB91E00E94FB2540915206509186
:102F6000530660915406709155068DEA91E00E94D7
:102F7000FB25409106065091070660910806709166
:102F800009068AEA91E0B2D440914606509147067C
:102F9000609148067091490687EA91E00E94FB25FE
:102FA00040914A0650914B0660914C0670914D0637
:102FB00084EA91E00E94FB2540914E0650914F0615
:102FC000609150067091510681EA91E00E94FB25C4
:102FD00085EE9CE068E071E0FCDD85EE9CE06AE057
:102FE000FAD8F8016491C3EED0E006C085EE9CE00B
:102FF000F2D82196FE0164916623C1F7EFE8F1E073
:103000006491EF0106C085EE9CE0E5D82196FE01B3
:1030100064916623C1F785EE9CE06AE0DCD8F80194
:103020006491C3EED0E006C085EE9CE0D4D8219632
:10303000FE0164916623C1F74091D8035091D903F2
:103040006091DA037091DB0386E891E00E94FB2532
:103050004091DC035091DD036091DE037091DF034A
:1030600083E891E00E94FB254091E0035091E10349
:103070006091E2037091E30380E891E00E94FB25F8
:1030800085EE9CE068E071E0A4DD85EE9CE06AE0FE
:10309000A2D8F8016491C3EED0E006C085EE9CE0B2
:1030A0009AD82196FE0164916623C1F7E2E7F1E028
:1030B0006491EF0106C085EE9CE08DD82196FE015B
:1030C00064916623C1F785EE9CE06AE084D8F8013C
:1030D0006491C3EED0E006C085EE9CE07CD82196DA
:1030E000FE0164916623C1F74091120350911303CE
:1030F000609114037091150389E691E00E94FB250D
:103100006091160370911703809118039091190331
:103110000E946084AB01BC0186E691E00E94FB2521
:1031200060911A0370911B0380911C0390911D0301
:103130000E946C84AB01BC0183E691E00E94FB25F8
:1031400085EE9CE068E071E044DD85EE9CE06AE09D
:1031500042D8F8016491C3EED0E006C085EE9CE051
:103160003AD82196FE0164916623C1F7EFE4F1E0BD
:103170006491EF0106C085EE9CE02DD82196FE01FA
:1031800064916623C1F785EE9CE06AE024D8F801DB
:103190006491C3EED0E006C085EE9CE01CD8219679
:1031A000FE0164916623C1F74091FB035091FC033B
:1031B0006091FD037091FE0386E491E00E94FB257F
:1031C00085EE9CE068E071E004DD85EE9CE06AE05D
:1031D00002D8F8016491C3EED0E007C085EE9CE010
:1031E0000E94EB102196FE0164916623B9F740918D
:1031F000F3035091F4036091F5037091F6038DE3AE
:1032000091E00E94FB254091F7035091F8036091F3
:10321000F9037091FA038AE391E00E94FB2585EEA1
:103220009CE068E071E0D5DC85EE9CE06AE00E94FD
:10323000EB10F8016491C3EED0E007C085EE9CE08E
:103240000E94EB102196FE0164916623B9F740912C
:10325000FF0350910004609101047091020481E326
:1032600091E00E94FB254091030450910404609179
:103270000504709106048EE291E00E94FB254091C6
:103280000704509108046091090470910A048BE2CC
:1032900091E00E94FB2540910B0450910C04609139
:1032A0000D0470910E0488E291E00E94FB2560916C
:1032B0000F047091100485E291E0C2D585EE9CE088
:1032C00068E071E086DC85EE9CE06AE00E94EB102D
:1032D000DF91CF911F910F9108950F931F93DF936B
:1032E000CF93CDB7DEB766970FB6F894DEBF0FBEAB
:1032F000CDBF8091040190910501A0910601B0918C
:1033000007018B8B9C8BAD8BBE8BFE013F9604E639
:1033100010E0F999FECF12BD01BDF89A80B5808307
:103320000F5F1F4F0836110511F03196F2CFCE0115
:103330004396BE01615F7F4F43E050E00E944A0E1A
:10334000009709F006C2EAE1F6E0F999FECF12BD56
:1033500001BDF89A80B580830F5F1F4F08371105B4
:1033600011F03196F2CFEAE0F6E0F999FECF12BD06
:1033700001BDF89A80B580830F5F1F4F0838110593
:1033800011F03196F2CFEAE2F6E0F999FECF12BDE4
:1033900001BDF89A80B580830F5F1F4F0839110572
:1033A00011F03196F2CF0E94E554EEE3F6E0F99980
:1033B000FECF12BD01BDF89A80B580830F5F1F4F0D
:1033C0000C39110511F03196F2CFE2E4F6E0F999EB
:1033D000FECF12BD01BDF89A80B580830F5F1F4FED
:1033E000003A110511F03196F2CFEAE3F6E0F999CF
:1033F000FECF12BD01BDF89A80B580830F5F1F4FCD
:10340000043A110511F03196F2CFE2E5F6E0F999B0
:10341000FECF12BD01BDF89A80B580830F5F1F4FAC
:10342000083A110511F03196F2CFE6E0F6E0F9998D
:10343000FECF12BD01BDF89A80B580830F5F1F4F8C
:103440000C3A110511F03196F2CFE6E4F6E0F99965
:10345000FECF12BD01BDF89A80B580830F5F1F4F6C
:10346000003B110511F03196F2CFEAE4F6E0F9994C
:10347000FECF12BD01BDF89A80B580830F5F1F4F4C
:10348000043B110511F03196F2CFEEE4F6E0F99924
:10349000FECF12BD01BDF89A80B580830F5F1F4F2C
:1034A000083B110511F03196F2CFE8EDF3E0F99900
:1034B000FECF12BD01BDF89A80B580830F5F1F4F0C
:1034C000043C110511F03196F2CFFE013196F999C5
:1034D000FECF12BD01BDF89A80B580830F5F1F4FEC
:1034E000063C110599F7FE013396F999FECF12BDFE
:1034F00001BDF89A80B580830F5F1F4F083C11050E
:1035000011F03196F2CFFE013596F999FECF12BD3A
:1035100001BDF89A80B580830F5F1F4F0A3C1105EB
:1035200011F03196F2CFFE013796F999FECF12BD18
:1035300001BDF89A80B580830F5F1F4F0C3C1105C9
:1035400011F03196F2CFFE013996F999FECF12BDF6
:1035500001BDF89A80B580830F5F1F4F0E3C1105A7
:1035600011F03196F2CFFE013B96F999FECF12BDD4
:1035700001BDF89A80B580830F5F1F4F003D110594
:1035800011F03196F2CFE3EFF3E0F999FECF12BDDF
:1035900001BDF89A80B580830F5F1F4F043D110570
:1035A00011F03196F2CFE7EFF3E0F999FECF12BDBB
:1035B00001BDF89A80B580830F5F1F4F083D11054C
:1035C00011F03196F2CFEBEFF3E0F999FECF12BD97
:1035D00001BDF89A80B580830F5F1F4F0C3D110528
:1035E00011F03196F2CFEFEFF3E0F999FECF12BD73
:1035F00001BDF89A80B580830F5F1F4F003E110513
:1036000011F03196F2CFE3E0F4E0F999FECF12BD6C
:1036100001BDF89A80B580830F5F1F4F043E1105EE
:1036200011F03196F2CFE7E0F4E0F999FECF12BD48
:1036300001BDF89A80B580830F5F1F4F083E1105CA
:1036400011F03196F2CFEBE0F4E0F999FECF12BD24
:1036500001BDF89A80B580830F5F1F4F0C3E1105A6
:1036600011F03196F2CFEFE0F4E0F999FECF12BD00
:1036700001BDF89A80B580830F5F1F4F0E3E110584
:1036800011F03196F2CFE2E1F3E0F999FECF12BDED
:1036900001BDF89A80B580830F5F1F4F023F11056F
:1036A00011F03196F2CFE6E1F3E0F999FECF12BDC9
:1036B00001BDF89A80B580830F5F1F4F063F11054B
:1036C00011F03196F2CFEAE1F3E0F999FECF12BDA5
:1036D00001BDF89A80B580830F5F1F4F0A3F110527
:1036E00011F03196F2CFFE013D96F999FECF12BD51
:1036F00001BDF89A80B580830B3F110521F031960A
:103700000BEF10E0F2CF0E942B83E3EEF0E0649128
:103710008F0108C085EE9CE00E94EB100F5F1F4FE9
:10372000F80164916623B1F7EBE0F1E064918F0159
:1037300008C085EE9CE00E94EB100F5F1F4FF80160
:1037400064916623B1F785EE9CE06AE00E94EB107D
:1037500001C063D852DA66960FB6F894DEBF0FBE8A
:10376000CDBFCF91DF911F910F910895CF93DF933C
:103770000FB6F8948091DD0C9091DE0CA091DF0CD7
:10378000B091E00C0FBE8093470490934804A0933F
:103790004904B0934A04ECEDF3E06491EF0107C0F3
:1037A00085EE9CE00E94EB102196FE016491662359
:1037B000B9F785EE9CE06AE00E94EB10DF91CF91B3
:1037C0000895EF92FF920F931F93CF93DF93EC0135
:1037D000E090E403F090E5030091E6031091E70325
:1037E000688179818A819B81A80197010E948AA2C0
:1037F000882324F4E882F9820A831B83E090E8039B
:10380000F090E9030091EA031091EB036C817D8154
:103810008E819F81A80197010E948AA2882324F4A7
:10382000EC82FD820E831F83E090EC03F090ED03A9
:103830000091EE031091EF03688579858A859B8559
:10384000A80197010E948AA2882324F4E886F986B9
:103850000A871B87E090B702F090B8020091B90286
:103860001091BA02688179818A819B81A8019701B0
:103870000E9498A4181624F4E882F9820A831B8314
:10388000E090BB02F090BC020091BD021091BE021C
:103890006C817D818E819F81A80197010E9498A4EF
:1038A000181624F4EC82FD820E831F83E090BF0281
:1038B000F090C0020091C1021091C2026885798522
:1038C0008A859B85A80197010E9498A4181624F464
:1038D000E886F9860A871B87DF91CF911F910F91A8
:1038E000FF90EF900895809139040895EF92FF9230
:1038F0000F931F93CF93DF93EC017A018B01FC01AF
:10390000649107C085EE9CE00E94EB102196FE01B9
:1039100064916623B9F785EE9CE0B801A70120E029
:103920000E948F9EDF91CF911F910F91FF90EF909A
:103930000895CF93DF930E944B84809139048823AC
:1039400009F034C081E08093390480913D04909166
:103950003E04A0913F04B0914004809341049093B1
:103960004204A0934304B0934404E0E4F3E0649180
:10397000EF0107C085EE9CE00E94EB102196FE014E
:1039800064916623B9F7E7E4F3E06491EF0107C0BF
:1039900085EE9CE00E94EB102196FE016491662367
:1039A000B9F785EE9CE06AE00E94EB10DF91CF91C1
:1039B0000895CF93DF93F8940E944B84779A1092E6
:1039C000F003769A1092F103479A1092F203439A09
:1039D000E0E4F3E06491EF0107C085EE9CE00E9413
:1039E000EB102196FE0164916623B9F7EDEBF3E04D
:1039F0006491EF0107C085EE9CE00E94EB102196D8
:103A0000FE0164916623B9F785EE9CE06AE00E94AE
:103A1000EB10FFCF6F927F928F929F92AF92BF92E7
:103A2000CF92DF92EF92FF920F931F93F82E609147
:103A30004F04709150048091510490915204209150
:103A400053043091540440915504509156040E94FF
:103A5000A5A43B014C0100D000D000D00DB71EB78B
:103A60000F5F1F4F6091AD027091AE02882777FD06
:103A70008095982F0E942CA32091D4023091D502DA
:103A80004091D6025091D7020E946AA520E030E012
:103A900040E752E40E9491A220E030E048EC52E47A
:103AA0000E9491A25B016C01F801608271828282A6
:103AB0009382F48280911104858388EC93E06BE516
:103AC00074E04FE454E020E001E032E0E32E0E9495
:103AD0009A4F80915B0490915C04A0915D04B09139
:103AE0005E048093C8039093C903A093CA03B09364
:103AF000CB0380915F0490916004A0916104B09128
:103B000062048093CC039093CD03A093CE03B09333
:103B1000CF038091630490916404A0916504B091F7
:103B200066048093D0039093D103A093D203B09303
:103B3000D3038091670490916804A0916904B091C7
:103B40006A048093D4039093D503A093D603B093D3
:103B5000D7030FB6F8948091DD0C9091DE0CA09104
:103B6000DF0CB091E00C0FBE8093470490934804A3
:103B7000A0934904B0934A048DB79EB706960FB63A
:103B8000F8949EBF0FBE8DBF1F910F91FF90EF90D5
:103B9000DF90CF90BF90AF909F908F907F906F906D
:103BA00008954F925F926F927F928F929F92AF9201
:103BB000BF92CF92DF92EF92FF920F931F93DF930A
:103BC000CF9300D000D0CDB7DEB78BE594E0F9DD20
:103BD0000FB6F8948091DD0C9091DE0CA091DF0C73
:103BE000B091E00C0FBE8093470490934804A093DB
:103BF0004904B0934A0480915B0490915C04A091C5
:103C00005D04B0915E0489839A83AB83BC83609129
:103C1000C8037091C9038091CA039091CB03298195
:103C20003A814B815C810E948AA2882309F09DC061
:103C300040905F0450906004609061047090620452
:103C40006091CC037091CD038091CE039091CF030E
:103C5000A30192010E948AA2882309F086C000D0A5
:103C6000CDB6DEB60894C11CD11CE0906304F09080
:103C7000640400916504109166046091D40270910F
:103C8000D5028091D6029091D70220E030E040E743
:103C900052E40E9491A24B015C0181E194E0D601C3
:103CA0008D939C9369817A818B819C81A301920180
:103CB000E7E6CE2EE4E0DE2E0E94CE5A0F900F9063
:103CC00080915B0490915C04A0915D04B0915E04CE
:103CD0008093C8039093C903A093CA03B093CB0306
:103CE00080915F0490916004A0916104B09162049E
:103CF0008093CC039093CD03A093CE03B093CF03D6
:103D00008091630490916404A0916504B09166046D
:103D10008093D0039093D103A093D203B093D303A5
:103D20008091670490916804A0916904B0916A043D
:103D30008093D4039093D503A093D603B093D70375
:103D40000F900F900F900F90CF91DF911F910F91D7
:103D5000FF90EF90DF90CF90BF90AF909F908F90AB
:103D60007F906F905F904F90089500D0CDB6DEB6F3
:103D70000894C11CD11C40905F0450906004609076
:103D8000610470906204E0906304F0906404009118
:103D90006504109166046091AD027091AE028827AF
:103DA00077FD8095982F0E942CA32091D40230910A
:103DB000D5024091D6025091D7020E946AA520E018
:103DC00030E040E752E40E9491A220E030E048EC6D
:103DD00052E40E9491A24B015C0181E194E0F60162
:103DE000918380835FCFCF93DF9385EE9CE00E9429
:103DF00015A0EFEDF3E06491EF0107C085EE9CE0C4
:103E00000E94EB102196FE0164916623B9F7409160
:103E10003D0450913E0460913F04709140044F5F17
:103E20005F4F6F4F7F4F85EE9CE00E94EF9E85EEC7
:103E30009CE06AE00E94EB1099DCDF91CF9108953D
:103E40000F931F93CF93DF93EC018B01FC016491DF
:103E500007C085EE9CE00E94EB102196FE01649164
:103E60006623B9F7A801662757FD6095762F85EE82
:103E70009CE00E94EF9EDF91CF911F910F910895DA
:103E80004F925F926F927F928F929F92AF92BF926A
:103E9000CF92DF92EF92FF920F931F934090D40244
:103EA0005090D5026090D6027090D7020F2EF0E0AD
:103EB000AF2EF0E0BF2EFAEFCF2EF5E4DF2EF02D7F
:103EC000A092D402B092D502C092D602D092D7026C
:103ED0006093C8037093C9038093CA039093CB0384
:103EE0002093CC033093CD034093CE035093CF0364
:103EF000E092D003F092D1030093D2031093D30346
:103F000000D0E1E1F4E0ADB7BEB71296FC93EE93BA
:103F10001197F4EDCF2EF3E0DF2E0F2EF5E58F2E67
:103F2000F5E59F2EF5E0AF2EF3E4BF2EF02D0E94B5
:103F3000CE5A0F900F900E94917C4092D4025092E2
:103F4000D5026092D6027092D7021F910F91FF9016
:103F5000EF90DF90CF90BF90AF909F908F907F9029
:103F60006F905F904F9008956F927F928F929F9283
:103F7000AF92BF92CF92DF92EF92FF920F931F9377
:103F80006091C8037091C9038091CA039091CB03DB
:103F900020E030E040E050E00E94B1A13B014C0144
:103FA0006091CC037091CD038091CE039091CF03AB
:103FB00020E030E040E050E00E94B1A15B016C01E4
:103FC0006091D0037091D1038091D2039091D3037B
:103FD00020E030E040E051E40E94B1A17B018C017F
:103FE000C401B301A60195014BDFE090D003F0902E
:103FF000D1030091D2031091D30360E070E080EA16
:1040000090E420E030E04EE353E43ADFE090D00368
:10401000F090D1030091D2031091D30360E070E0DF
:1040200080E090E020E030E04EE353E429DFE090D0
:10403000D003F090D1030091D2031091D30360E03C
:1040400070E080E090E020E030E042E053E418DFF0
:10405000E090D003F090D1030091D2031091D303EC
:1040600060E070E080EA90E420E030E042E053E479
:1040700007DF1F910F91FF90EF90DF90CF90BF90DF
:10408000AF909F908F907F906F9008956F927F92E6
:104090008F929F92AF92BF92CF92DF92EF92FF9258
:1040A0000F931F936091C8037091C9038091CA0355
:1040B0009091CB0320E030E040E050E00E94B1A1BD
:1040C0003B014C016091CC037091CD038091CE03F4
:1040D0009091CF0320E030E040E050E00E94B1A199
:1040E0005B016C016091D0037091D1038091D20388
:1040F0009091D30320E030E040E051E40E94B1A170
:104100007B018C01C401B301A6019501B9DEE090E9
:10411000D003F090D1030091D2031091D30360E05B
:1041200070E080EA90E420E030E040EF51E4A8DE67
:10413000E090D003F090D1030091D2031091D3030B
:1041400060E070E080E090E020E030E040EF51E49B
:1041500097DEE090D003F090D1030091D20310914C
:10416000D30360E070E080E090E020E030E04EEBD0
:1041700052E486DEE090D003F090D1030091D203A8
:104180001091D30360E070E080EA90E420E030E03A
:104190004EEB52E475DE1F910F91FF90EF90DF9090
:1041A000CF90BF90AF909F908F907F906F90089529
:1041B0002F923F924F925F926F927F928F929F9237
:1041C000AF92BF92CF92DF92EF92FF920F931F9325
:1041D000DF93CF93CDB7DEB76C970FB6F894DEBF01
:1041E0000FBECDBF9C8F8B8F8330910508F00BC223
:1041F000FC01ED52F94FB4901C01220C331C220C2F
:10420000331C910128533C4F3E832D8380E090E086
:10421000A0E0B0E0F90180839183A283B383609131
:10422000C8037091C9038091CA039091CB03209178
:10423000CC033091CD034091CE035091CF03E09059
:10424000D003F090D1030091D2031091D303B4EDC9
:10425000CB2EB3E0DB2E0E942D55F101EA52F94F2F
:10426000E590F590059114916B2D772767FD70957A
:10427000882777FD8095982F0E942CA369837A83E5
:104280008B839C839101255A3B4F38872F83C8012C
:10429000B70120E030E040EC5FE30E946AA529818D
:1042A0003A814B815C810E946AA5AF81B8856D938C
:1042B0007D938D939C931397F101E356FD4FFA87FD
:1042C000E98760817181828193816093D4027093C8
:1042D000D5028093D6029093D70200D0CDB6DEB639
:1042E0000894C11CD11C40905B0450905C04609009
:1042F0005D0470905E0420915F04309160044091F1
:104300006104509162042B873C874D875E87E09063
:104310006304F0906404009165041091660420E049
:1043200030E040E752E40E9491A24B015C01E1E1E0
:10433000F4E0D601ED93FC93C301B2012B853C85DB
:104340004D855E85A7E6CA2EA4E0DA2E0E94CE5ADD
:104350000F900F900E94917C20E030E040E050E010
:10436000AD81BE812D933D934D935C9313976091E6
:10437000C8037091C9038091CA039091CB03209127
:10438000CC033091CD034091CE035091CF03E09008
:10439000D003F090D1030091D2031091D303F4ED38
:1043A000CF2EF3E0DF2E0E942D55F101EA5FF84F8A
:1043B0004590559065907490C301B2019058298141
:1043C0003A814B815C810E946AA5EF81F885608308
:1043D00071838283938300D0CDB6DEB60894C11C6E
:1043E000D11C20915B0430915C0440915D0450919C
:1043F0005E042F87388B498B5A8B80915F04909194
:104400006004A0916104B09162048B8B9C8BAD8B96
:10441000BE8BE0906304F0906404009165041091F9
:1044200066046091D4027091D5028091D602909179
:10443000D70220E030E040E752E40E9491A24B0115
:104440005C01E1E1F4E0D601ED93FC936F8578899E
:1044500089899A892B893C894D895E89E7E6CE2E28
:10446000E4E0DE2E0E94CE5A0F900F900E94917CC5
:10447000C301B201A30192010E94B1A129813A8135
:104480004B815C810E946AA5AF81B8856D937D9355
:104490008D939C931397E985FA8560817181828160
:1044A000938120E030E040E05FE30E946AA56093E2
:1044B000D4027093D5028093D6029093D70200D095
:1044C000CDB6DEB60894C11CD11C40905B04509060
:1044D0005C0460905D0470905E0420915F043091F4
:1044E000600440916104509162042F8B388F498F92
:1044F0005A8FE0906304F090640400916504109179
:10450000660420E030E040E752E40E9491A24B01B3
:104510005C01E1E1F4E0D601ED93FC93C301B2014B
:104520002F89388D498D5A8DB7E6CB2EB4E0DB2E1E
:104530000E94CE5A0F900F900E94917CF101EE5193
:10454000F94F6591759185919491F101E852FC4F75
:10455000A080B180C280D380A60195010E94B1A144
:104560007B018C01CB01D801ED81FE818083918399
:10457000A283B383F101E251F94F65917591859161
:104580009491A4EE8A2EA3E09A2E820C931CA6018D
:1045900095010E94B1A1D4016D937D938D939C935D
:1045A0001397F101E650F94F6591759185919491BA
:1045B000E7EBF2E02E0E3F1EA60195010E94B1A18D
:1045C000D1016D937D938D939C931397C701D8016F
:1045D000EF81F88580839183A283B38320E030E06C
:1045E00040E050E02093D4023093D5024093D602AD
:1045F0005093D7020E94B17B4B8D5C8D40515C4F34
:1046000081E0DA018C936C960FB6F894DEBF0FBE92
:10461000CDBFCF91DF911F910F91FF90EF90DF9071
:10462000CF90BF90AF909F908F907F906F905F9052
:104630004F903F902F9008954091760450917704C9
:1046400020E630E0B901469F9001479F300D569F0C
:10465000300D1124682F772767FD7095C9018858A0
:104660009B4F0E94360E9C019093750480937404B6
:1046700080E0232B09F081E008950FB6F894209193
:10468000DD0C3091DE0C4091DF0C5091E00C0FBE40
:10469000682F70E014C00FB6F8948091DD0C9091F3
:1046A000DE0CA091DF0CB091E00C0FBE821B930BCF
:1046B000A40BB50B895E9340A040B04028F4FB01E9
:1046C0000E94209AEE2339F70895CF93DF934D9BF4
:1046D00060C085E090E0D1DFE0E6F8E06491EF01B2
:1046E00007C085EE9CE00E94EB102196FE016491CC
:1046F0006623B9F785EE9CE06AE00E94EB1053C098
:1047000087E090E0BADFE9E5F8E06491EF0107C0E7
:1047100085EE9CE00E94EB102196FE0164916623D9
:10472000B9F785EE9CE06AE00E94EB105C983BC014
:1047300080913B04882389F5E2E5F8E06491EF017C
:1047400007C085EE9CE00E94EB102196FE0164916B
:104750006623B9F785EE9CE06AE00E94EB1081E0E9
:1047600080933B0420C0EBE4F8E06491EF0107C0C4
:1047700085EE9CE00E94EB102196FE016491662379
:10478000B9F785EE9CE06AE00E94EB1010923B04C2
:104790000AC04F99B5CF4E99CBCF4E9904C08091A6
:1047A0003B04882301F7DF91CF9108952F923F9228
:1047B0004F925F926F927F928F929F92AF92BF9231
:1047C000CF92DF92EF92FF920F931F93DF93CF93DD
:1047D000CDB7DEB764970FB6F894DEBF0FBECDBF7E
:1047E0006D837E838F83988729873A874B875C8781
:1047F0006091C8037091C9038091CA039091CB0363
:104800002091CC033091CD034091CE035091CF0342
:1048100037DB6D817E818F8198852AE939E946EF02
:1048200051E40E94B1A15B016C0169857A858B8599
:104830009C852DEC3CEC4CE85FE30E94B1A19B0110
:10484000AC01E090D003F090D1030091D20310911D
:10485000D303C601B50114DB89ED92E00E94F0910B
:104860006091A5027091A6028091A7029091A80282
:104870006093D4027093D5028093D6029093D702AE
:1048800000D0CDB6DEB60894C11CD11CE090C803A0
:10489000F090C9030091CA031091CB034090CC0360
:1048A0005090CD036090CE037090CF0320E030E0B5
:1048B00040E752E40E9491A24B015C01E1E1F4E087
:1048C000D601ED93FC93C801B701A30192010F2E0D
:1048D000F0E0EF2EF0E0FF2EF8E40F2FF3EC1F2FA7
:1048E000F02DA4EDCA2EA3E0DA2E0E94CE5A0F902E
:1048F0000F900E94917C82E00E94727C4B015C01CF
:104900006091C8037091C9038091CA039091CB0351
:104910002091CC033091CD034091CE035091CF0331
:10492000850174010E942D552EE037E0F901859133
:104930009591A591B49189839A83AB83BC83C5017A
:10494000B40129813A814B815C810E94B1A16D87BC
:104950007E878F87988B00D0CDB6DEB60894C11CB9
:10496000D11CE090C803F090C9030091CA031091D4
:10497000CB034090CC035090CD036090CE03709059
:10498000CF036091D4027091D5028091D6029091AC
:10499000D70220E030E040E752E40E9491A24B01B0
:1049A0005C01E1E1F4E0D601ED93FC93C801B701AD
:1049B000A3019201ED84FE840F851889F4EDCF2EBA
:1049C000F3E0DF2E0E94CE5A0F900F900E94917C50
:1049D0006091A5027091A6028091A7029091A80211
:1049E00020E030E040E05FE30E946AA55B016C01DB
:1049F0006093D4027093D5028093D6029093D7022D
:104A000000D02DB63EB60894211C311C4090C8033E
:104A10005090C9036090CA037090CB038091CC037F
:104A20009091CD03A091CE03B091CF03898B9A8B47
:104A3000AB8BBC8B69817A818B819C8120E030E0DB
:104A400040E050EC0E946AA59B01AC016D857E851B
:104A50008F8598890E94B1A17B018C01C601B501A7
:104A600020E030E040E752E40E9491A24B015C015B
:104A7000E1E1F4E0D101ED93FC93C301B201298996
:104A80003A894B895C89E4EDCE2EE3E0DE2E0E946C
:104A9000CE5A0F900F900E94917C82E00E94727C0F
:104AA0007B018C016093D0037093D1038093D20378
:104AB0009093D3036091C8037091C9038091CA0396
:104AC0009091CB032091CC033091CD034091CE0344
:104AD0005091CF030E942D55F090D003E090D10368
:104AE000D090D203C090D303E3E2F7E064918F014A
:104AF00008C085EE9CE00E94EB100F5F1F4FF8018D
:104B000064916623B1F7EEE1F7E064918F0108C08C
:104B100085EE9CE00E94EB100F5F1F4FF80164913F
:104B20006623B1F785EE9CE04D815E816F817885CB
:104B300022E00E94FC9EE9E1F7E064918F0108C049
:104B400085EE9CE00E94EB100F5F1F4FF80164910F
:104B50006623B1F785EE9CE049855A856B857C8597
:104B600022E00E94FC9EE4E1F7E064918F0108C01E
:104B700085EE9CE00E94EB100F5F1F4FF8016491DF
:104B80006623B1F785EE9CE02F2D3E2DED2DFC2DFB
:104B9000A901BF0122E00E94FC9EE2E1F7E06491DE
:104BA0008F0108C085EE9CE00E94EB100F5F1F4F45
:104BB000F80164916623B1F72F2D3E2D4D2D5C2D0C
:104BC000B901CA0164960FB6F894DEBF0FBECDBF1F
:104BD000CF91DF911F910F91FF90EF90DF90CF90D9
:104BE000BF90AF909F908F907F906F905F904F900D
:104BF0003F902F900895EF92FF920F931F93CF93C2
:104C0000DF93EC017A018B01FC01649107C085EE12
:104C10009CE00E94EB102196FE0164916623B9F797
:104C200085EE9CE0B801A70122E00E94FC9EDF9186
:104C3000CF911F910F91FF90EF9008958091740490
:104C400090917504019660E070E04AE050E00C94A9
:104C5000D50C8091740490917504019660E070E029
:104C60000C94780B0F931F93CF93DF938C0180915B
:104C7000110480933C0484E5DFDC882309F455C0EB
:104C8000E8DF0E94FEA260933C04662309F44DC055
:104C9000EAE3F3E06491EF0107C085EE9CE00E9437
:104CA000EB102196FE0164916623B9F70D361105CC
:104CB000D9F00E3611053CF40836110559F00936C5
:104CC000110511F50CC00A3D110599F00D3D1105B6
:104CD000D9F414C085EE9CE069E071E013C085EE64
:104CE0009CE060E271E00EC085EE9CE067E371E05D
:104CF00009C085EE9CE06EE471E004C085EE9CE0A6
:104D000065E671E00E94E91540913C0450E060E0E6
:104D100070E085EE9CE020E00E948F9E85EE9CE096
:104D20006AE00E94EB1081E001C080E0DF91CF914A
:104D30001F910F910895AF92BF92CF92DF92EF92A1
:104D4000FF920F931F93CF93DF93B8ECEB2EB3E05A
:104D5000FB2ECBE5D4E000E010E0F801EB59FC4F6E
:104D600080816ADC882331F174DF5B016C01F8011A
:104D7000EE53FC4F8081882311F061E002C0609106
:104D80006B0470E0882777FD8095982F0E942CA3F4
:104D9000F70120813181428153810E946AA59B01E4
:104DA000AC01C601B5010E94B1A1688379838A83F1
:104DB0009B8309C0F70180819181A281B38188839F
:104DC0009983AA83BB830F5F1F4F84E090E0E80EB6
:104DD000F91E24960430110509F0BFCF86E42CDCBF
:104DE0008823D9F036DF7B018C0160936C047093CB
:104DF0006D0480936E0490936F0420E030E040E0F7
:104E000050E00E9498A4181644F4E092D402F09264
:104E1000D5020093D6021093D702DF91CF911F9154
:104E20000F91FF90EF90DF90CF90BF90AF900895DB
:104E300082DF89E401DC882351F00BDF60934F04AB
:104E40007093500480935104909352040CC080E0FE
:104E500090E0A0E0B0E080934F0490935004A093C2
:104E60005104B09352048AE4E7DB882351F0F1DE69
:104E700060935304709354048093550490935604A4
:104E8000089580E090E0A0E0B0E080935304909318
:104E90005404A0935504B09356040895BF92CF9242
:104EA000DF92EF92FF920F931F93CF93DF9310E661
:104EB000E12EF12CE7E2F7E0C490EDE9F7E0D490C1
:104EC000BB24B394F7C12D3071F02A3321F48091C3
:104ED000F905882341F08091FA059091FB058F3503
:104EE00091050CF4C3C1E091FA05F091FB053097F0
:104EF00019F41092F90510C2A091FC05B091FD05BE
:104F0000AE9D8001AF9D100DBE9D100D1124E00FD0
:104F1000F11FE858FB4F10828091F905882309F0B2
:104F2000A0C11092F905A250BA4F1C92E801C858CE
:104F3000DB4FCE016EE470E00E94360E9C010097BC
:104F400009F4D9C090937504809374042F5F3F4F88
:104F50002C1B3D0B200F311FC90188589B4F60E06F
:104F600070E04AE050E00E94D50C60930206709316
:104F70000306809304069093050620913D0430912A
:104F80003E0440913F04509140042F5F3F4F4F4FEC
:104F90005F4F621773078407950709F4A3C18091D7
:104FA000FC059091FD059C012E9DC0012F9D900D4B
:104FB0003E9D900D112488589B4F66E478E00E9436
:104FC0001C0E892B09F08EC1E0E4F3E06491EF013F
:104FD00007C085EE9CE00E94EB102196FE016491D3
:104FE0006623B9F7E3E1F8E06491EF0107C085EECD
:104FF0009CE00E94EB102196FE0164916623B9F7B4
:1050000055C01E274F5FFC01E40FF11DE858FB4F10
:10501000E081EA32B1F73093750420937404C9013A
:10502000019660E070E00E94780B0E94F9A2212FA7
:1050300030E02617370709F44DC0E0E4F3E064914F
:10504000EF0107C085EE9CE00E94EB102196FE0167
:1050500064916623B9F7E4EFF7E06491EF0107C0CC
:1050600085EE9CE00E94EB102196FE016491662380
:10507000B9F71CC0E0E4F3E06491EF0107C085EEEE
:105080009CE00E94EB102196FE0164916623B9F723
:10509000EAECF7E06491EF0107C085EE9CE00E9426
:1050A000EB102196FE0164916623B9F740913D040F
:1050B00050913E0460913F047091400485EE9CE065
:1050C0000E94EF9E85EE9CE06AE00E94EB100E9439
:1050D000F31E45C08091020690910306A09104063C
:1050E000B091050680933D0490933E04A0933F0445
:1050F000B093400439C0CE016AE270E00E94360EDF
:10510000009791F1E0E4F3E06491EF0107C085EED0
:105110009CE00E94EB102196FE0164916623B9F792
:10512000E0EAF7E06491EF0107C085EE9CE00E94A1
:10513000EB102196FE0164916623B9F740913D047E
:1051400050913E0460913F047091400485EE9CE0D4
:105150000E94EF9E85EE9CE06AE00E94EB101092A8
:10516000FB051092FA05D8C08091FC059091FD05D1
:105170008E9D80018F9D100D9E9D100D1124E801C4
:10518000C858DB4FCE0167E470E00E94360E9C01E8
:10519000009709F43AC090937504809374042F5FCC
:1051A0003F4F2C1B3D0B200F311FC90188589B4FCF
:1051B00060E070E00E94780B0E94F9A264307105F3
:1051C00020F580913904882371F46D2DCDE9D7E065
:1051D00007C085EE9CE00E94EB102196FE016491D1
:1051E0006623B9F70DC06C2DC7E2D7E007C085EE86
:1051F0009CE00E94EB102196FE0164916623B9F7B2
:1052000085EE9CE06AE00E94EB108091FC05909195
:10521000FD059C012E9DC0012F9D900D3E9D900D82
:10522000112488589B4F6CE771E00E94410E009753
:1052300011F40E94D91C8091FC059091FD05019606
:1052400064E070E00E946FA69093FD058093FC05DA
:105250008091450490914604019690934604809372
:1052600045041092FB051092FA0524C02B3311F46B
:10527000B092F9058091F9058823E1F42091FA05AF
:105280003091FB058091FC059091FD058E9DF0010C
:105290008F9DF00D9E9DF00D1124E20FF31FE85835
:1052A000FB4F8091F80580832F5F3F4F3093FB05C4
:1052B0002093FA0585EE9CE00E94AD9F1816190612
:1052C0005CF5809145049091460404972CF585EE99
:1052D0009CE00E94E69F282F8093F8058A3009F011
:1052E000F2CD01CE8091FC059091FD058E9DE001EF
:1052F0008F9DD00D9E9DD00D1124CE0188589B4FBF
:105300006AE270E00E94360E9C01009709F4B2CE6A
:1053100010E040E0CE0177CEDF91CF911F910F9149
:10532000FF90EF90DF90CF90BF900895EF92FF92A3
:105330000F931F93809145049091460403970CF4BA
:10534000ADDD0FB6F8948091DD0C9091DE0CA0914C
:10535000DF0CB091E00C0FBEE0904B04F0904C04D9
:1053600000914D0410914E0420914704309148045F
:105370004091490450914A04821B930BA40BB50B36
:10538000E816F9060A071B0738F4E114F1040105D1
:10539000110511F00E94D91CE090D002F090D102CA
:1053A0000091D2021091D302E114F104010511051C
:1053B00061F10FB6F8948091DD0C9091DE0CA09114
:1053C000DF0CB091E00C0FBE2091470430914804EF
:1053D0004091490450914A04821B930BA40BB50BD6
:1053E000E816F9060A071B0780F490914A0B809192
:1053F0004B0B981751F4779A1092F003769A10920B
:10540000F103479A1092F203439A0E94AE541F91FF
:105410000F91FF90EF9008952F923F924F925F92DD
:105420006F927F928F929F92AF92BF92CF92DF92B4
:10543000EF92FF920F931F93DF93CF93CDB7DEB719
:10544000C759D0400FB6F894DEBF0FBECDBF2DB701
:105450003EB7C457DF4F39832883CC58D04087E408
:10546000EBD8882311F40C94FC36F3DB0E94F9A2EC
:105470006430710509F44BC06530710554F4623035
:10548000710581F163307105B4F5772304F50C944F
:105490003E4D6A35710511F40C948D366B357105EE
:1054A00054F46C31710509F488C06D31710511F047
:1054B0000C943E4DDCC66B35710511F40C9491369D
:1054C0006C35710511F00C943E4D0C94963680911C
:1054D0003904882311F00C943E4D2DDC0E94D11D1F
:1054E0000C94734D80913904882311F00C943E4D37
:1054F0009FDC81E008C080913904882311F00C946E
:105500003E4D96DC80E00E940A1D0C94734D80E5B0
:1055100093D8882321F4AA24BB24650105C099DB14
:105520000E94FEA25B016C0183E586D8882359F0B6
:1055300090DB20E030E04AE754E40E946AA50E9434
:10554000FEA25B016C010E94917C0FB6F894E09082
:10555000DD0CF090DE0C0091DF0C1091E00C0FBE22
:10556000EA0CFB1C0C1D1D1D0FB6F8948091DD0C80
:105570009091DE0CA091DF0CB091E00C0FBE8093F7
:10558000470490934804A0934904B0934A0403C08D
:105590000E942E88CBDE0FB6F8948091DD0C90919E
:1055A000DE0CA091DF0CB091E00C0FBE8E159F05B4
:1055B000A007B10768F30C943E4D89ED92E00E947C
:1055C000F0918091D4029091D502A091D602B09131
:1055D000D7028093700490937104A0937204B093E7
:1055E00073048091AD029091AE029093C7038093B3
:1055F000C60384E690E09093AE028093AD020FB6AE
:10560000F8948091DD0C9091DE0CA091DF0CB091AC
:10561000E00C0FBE8093470490934804A093490484
:10562000B0934A0481E00E94B87B8091C8039091B6
:10563000C903A091CA03B091CB0380935B049093FC
:105640005C04A0935D04B0935E048091CC039091C0
:10565000CD03A091CE03B091CF0380935F049093CC
:105660006004A0936104B09362048091D003909190
:10567000D103A091D203B091D3038093630490939C
:105680006404A0936504B09366048091D403909160
:10569000D503A091D603B091D7038093670490936C
:1056A0006804A0936904B0936A0480E090E0A0E0ED
:1056B000B0E08093D4029093D502A093D602B09329
:1056C000D70288E50E941C23882351F489E50E94B3
:1056D0001C23882329F48AE50E941C23882379F05F
:1056E00088E50E941C23882361F089E50E941C2321
:1056F000882339F08AE50E941C23882311F081E079
:1057000001C080E08093D802882361F488E50E947C
:105710001C23882309F481C289E50E941C23882365
:1057200009F47BC280E090E0A0E0B0E08093C80381
:105730009093C903A093CA03B093CB038093CC0387
:105740009093CD03A093CE03B093CF03F3ED6F2ED0
:10575000F6E07F2EF3018490E090D003F090D10327
:105760000091D2031091D303BC01CD019B01AC0188
:10577000E4EDCE2EE3E0DE2E0E942D5526ED422EE6
:1057800026E0522EF201659175918591949120E069
:1057900030E040EC5FE30E946AA57B018C01992414
:1057A00087FC9094AA2497FCA094BA2CC501B4015C
:1057B0000E942CA39B01AC01C801B7010E946AA5FD
:1057C00060935B0470935C0480935D0490935E042B
:1057D00094E0892E912C840C951CF40165917591AF
:1057E000859194910894611C711CF301D49020E080
:1057F00030E040EC5FE30E946AA57B018C016D2DD7
:10580000772767FD7095872F972F0E942CA39B0108
:10581000AC01C801B7010E946AA560935F04709350
:105820006004809361049093620420919D02309102
:105830009E0240919F025091A0022093D402309387
:10584000D5024093D6025093D702E090A102F09087
:10585000A2020091A3021091A402C801B7010E9404
:105860008AA2882344F4E092D402F092D5020093F5
:10587000D6021093D702F201A590B590C590D490AE
:10588000F401E590F59005911491C601B501A801C8
:1058900097010E9498A418162CF4C801B701A6011C
:1058A000950104C0C601B501A80197010E9491A20B
:1058B0009B01AC010E946AA59B01AC01CA0120E0DA
:1058C00030E040E85FE30E94B1A10E94D7A59B01B0
:1058D000AC016091D4027091D5028091D602909172
:1058E000D7020E946AA56093D4027093D502809378
:1058F000D6029093D70200D0CDB6DEB60894C11C74
:10590000D11C40905B0450905C0460905D047090EA
:105910005E0420915F0430916004409161045091D5
:105920006204C058DF4F288339834A835B83C058A1
:10593000D040E0906304F0906404009165041091FD
:1059400066046091D4027091D5028091D602909144
:10595000D70220E030E040E752E40E9491A24B01E0
:105960005C0181E1282E84E0382ED6012D923C92F4
:10597000C301B201C058DF4F288139814A815B8160
:10598000C058D040B7E6CB2EB4E0DB2E0E94CE5AF2
:105990000F900F900E94917CE2EEF6E06591759178
:1059A000859194912091D8033091D9034091DA03E5
:1059B0005091DB030E94B1A13B014C016093C803ED
:1059C0007093C9038093CA039093CB03EEEEF6E085
:1059D00065917591859194912091D8033091D90367
:1059E0004091DA035091DB030E94B1A16093E4037C
:1059F0007093E5038093E6039093E703EAEFF6E004
:105A000065917591859194912091D8033091D90336
:105A10004091DA035091DB030E94B1A16093B70279
:105A20007093B8028093B9029093BA02E6EEF6E062
:105A300065917591859194912091DC033091DD03FE
:105A40004091DE035091DF030E94B1A15B016C0124
:105A50006093CC037093CD038093CE039093CF03D8
:105A6000E2EFF6E065917591859194912091DC03C8
:105A70003091DD034091DE035091DF030E94B1A11C
:105A80006093E8037093E9038093EA039093EB0338
:105A9000EEEFF6E065917591859194912091DC038C
:105AA0003091DD034091DE035091DF030E94B1A1EC
:105AB0006093BB027093BC028093BD029093BE02C0
:105AC000E090D003F090D1030091D2031091D30362
:105AD000C401B301A6019501A4EDCA2EA3E0DA2EFC
